{
  "_format": "hh-sol-artifact-1",
  "contractName": "DBNCoordinator",
  "sourceName": "contracts/DBNCoordinator.sol",
  "abi": [
    {
      "inputs": [
        {
          "internalType": "string",
          "name": "baseExternalURI",
          "type": "string"
        }
      ],
      "stateMutability": "nonpayable",
      "type": "constructor"
    },
    {
      "anonymous": false,
      "inputs": [
        {
          "indexed": true,
          "internalType": "address",
          "name": "owner",
          "type": "address"
        },
        {
          "indexed": true,
          "internalType": "address",
          "name": "approved",
          "type": "address"
        },
        {
          "indexed": true,
          "internalType": "uint256",
          "name": "tokenId",
          "type": "uint256"
        }
      ],
      "name": "Approval",
      "type": "event"
    },
    {
      "anonymous": false,
      "inputs": [
        {
          "indexed": true,
          "internalType": "address",
          "name": "owner",
          "type": "address"
        },
        {
          "indexed": true,
          "internalType": "address",
          "name": "operator",
          "type": "address"
        },
        {
          "indexed": false,
          "internalType": "bool",
          "name": "approved",
          "type": "bool"
        }
      ],
      "name": "ApprovalForAll",
      "type": "event"
    },
    {
      "anonymous": false,
      "inputs": [
        {
          "indexed": false,
          "internalType": "uint256",
          "name": "tokenId",
          "type": "uint256"
        },
        {
          "indexed": false,
          "internalType": "address",
          "name": "addr",
          "type": "address"
        },
        {
          "indexed": false,
          "internalType": "string",
          "name": "externalURL",
          "type": "string"
        }
      ],
      "name": "DrawingDeployed",
      "type": "event"
    },
    {
      "anonymous": false,
      "inputs": [
        {
          "indexed": true,
          "internalType": "address",
          "name": "previousOwner",
          "type": "address"
        },
        {
          "indexed": true,
          "internalType": "address",
          "name": "newOwner",
          "type": "address"
        }
      ],
      "name": "OwnershipTransferred",
      "type": "event"
    },
    {
      "anonymous": false,
      "inputs": [
        {
          "indexed": true,
          "internalType": "address",
          "name": "from",
          "type": "address"
        },
        {
          "indexed": true,
          "internalType": "address",
          "name": "to",
          "type": "address"
        },
        {
          "indexed": true,
          "internalType": "uint256",
          "name": "tokenId",
          "type": "uint256"
        }
      ],
      "name": "Transfer",
      "type": "event"
    },
    {
      "inputs": [],
      "name": "allTokens",
      "outputs": [
        {
          "internalType": "uint256[]",
          "name": "",
          "type": "uint256[]"
        }
      ],
      "stateMutability": "view",
      "type": "function"
    },
    {
      "inputs": [
        {
          "internalType": "address",
          "name": "to",
          "type": "address"
        },
        {
          "internalType": "uint256",
          "name": "tokenId",
          "type": "uint256"
        }
      ],
      "name": "approve",
      "outputs": [],
      "stateMutability": "nonpayable",
      "type": "function"
    },
    {
      "inputs": [
        {
          "internalType": "address",
          "name": "owner",
          "type": "address"
        }
      ],
      "name": "balanceOf",
      "outputs": [
        {
          "internalType": "uint256",
          "name": "",
          "type": "uint256"
        }
      ],
      "stateMutability": "view",
      "type": "function"
    },
    {
      "inputs": [
        {
          "internalType": "uint256",
          "name": "tokenId",
          "type": "uint256"
        }
      ],
      "name": "getAllowedMinter",
      "outputs": [
        {
          "internalType": "address",
          "name": "",
          "type": "address"
        }
      ],
      "stateMutability": "view",
      "type": "function"
    },
    {
      "inputs": [
        {
          "internalType": "address",
          "name": "addr",
          "type": "address"
        }
      ],
      "name": "getAllowedTokenIds",
      "outputs": [
        {
          "internalType": "uint256[]",
          "name": "",
          "type": "uint256[]"
        }
      ],
      "stateMutability": "view",
      "type": "function"
    },
    {
      "inputs": [
        {
          "internalType": "uint256",
          "name": "tokenId",
          "type": "uint256"
        }
      ],
      "name": "getApproved",
      "outputs": [
        {
          "internalType": "address",
          "name": "",
          "type": "address"
        }
      ],
      "stateMutability": "view",
      "type": "function"
    },
    {
      "inputs": [],
      "name": "getContractMode",
      "outputs": [
        {
          "internalType": "enum DBNCoordinator.ContractMode",
          "name": "",
          "type": "uint8"
        }
      ],
      "stateMutability": "view",
      "type": "function"
    },
    {
      "inputs": [
        {
          "internalType": "address",
          "name": "owner",
          "type": "address"
        },
        {
          "internalType": "address",
          "name": "operator",
          "type": "address"
        }
      ],
      "name": "isApprovedForAll",
      "outputs": [
        {
          "internalType": "bool",
          "name": "",
          "type": "bool"
        }
      ],
      "stateMutability": "view",
      "type": "function"
    },
    {
      "inputs": [
        {
          "internalType": "bytes",
          "name": "bytecode",
          "type": "bytes"
        }
      ],
      "name": "mint",
      "outputs": [
        {
          "internalType": "address",
          "name": "",
          "type": "address"
        }
      ],
      "stateMutability": "nonpayable",
      "type": "function"
    },
    {
      "inputs": [
        {
          "internalType": "bytes",
          "name": "bytecode",
          "type": "bytes"
        },
        {
          "internalType": "uint256",
          "name": "tokenId",
          "type": "uint256"
        }
      ],
      "name": "mintTokenId",
      "outputs": [
        {
          "internalType": "address",
          "name": "",
          "type": "address"
        }
      ],
      "stateMutability": "nonpayable",
      "type": "function"
    },
    {
      "inputs": [],
      "name": "name",
      "outputs": [
        {
          "internalType": "string",
          "name": "",
          "type": "string"
        }
      ],
      "stateMutability": "view",
      "type": "function"
    },
    {
      "inputs": [],
      "name": "owner",
      "outputs": [
        {
          "internalType": "address",
          "name": "",
          "type": "address"
        }
      ],
      "stateMutability": "view",
      "type": "function"
    },
    {
      "inputs": [
        {
          "internalType": "uint256",
          "name": "tokenId",
          "type": "uint256"
        }
      ],
      "name": "ownerOf",
      "outputs": [
        {
          "internalType": "address",
          "name": "",
          "type": "address"
        }
      ],
      "stateMutability": "view",
      "type": "function"
    },
    {
      "inputs": [],
      "name": "renounceOwnership",
      "outputs": [],
      "stateMutability": "nonpayable",
      "type": "function"
    },
    {
      "inputs": [
        {
          "internalType": "address",
          "name": "from",
          "type": "address"
        },
        {
          "internalType": "address",
          "name": "to",
          "type": "address"
        },
        {
          "internalType": "uint256",
          "name": "tokenId",
          "type": "uint256"
        }
      ],
      "name": "safeTransferFrom",
      "outputs": [],
      "stateMutability": "nonpayable",
      "type": "function"
    },
    {
      "inputs": [
        {
          "internalType": "address",
          "name": "from",
          "type": "address"
        },
        {
          "internalType": "address",
          "name": "to",
          "type": "address"
        },
        {
          "internalType": "uint256",
          "name": "tokenId",
          "type": "uint256"
        },
        {
          "internalType": "bytes",
          "name": "_data",
          "type": "bytes"
        }
      ],
      "name": "safeTransferFrom",
      "outputs": [],
      "stateMutability": "nonpayable",
      "type": "function"
    },
    {
      "inputs": [
        {
          "internalType": "address",
          "name": "operator",
          "type": "address"
        },
        {
          "internalType": "bool",
          "name": "approved",
          "type": "bool"
        }
      ],
      "name": "setApprovalForAll",
      "outputs": [],
      "stateMutability": "nonpayable",
      "type": "function"
    },
    {
      "inputs": [
        {
          "internalType": "bytes4",
          "name": "interfaceId",
          "type": "bytes4"
        }
      ],
      "name": "supportsInterface",
      "outputs": [
        {
          "internalType": "bool",
          "name": "",
          "type": "bool"
        }
      ],
      "stateMutability": "view",
      "type": "function"
    },
    {
      "inputs": [],
      "name": "symbol",
      "outputs": [
        {
          "internalType": "string",
          "name": "",
          "type": "string"
        }
      ],
      "stateMutability": "view",
      "type": "function"
    },
    {
      "inputs": [
        {
          "internalType": "uint256",
          "name": "index",
          "type": "uint256"
        }
      ],
      "name": "tokenByIndex",
      "outputs": [
        {
          "internalType": "uint256",
          "name": "",
          "type": "uint256"
        }
      ],
      "stateMutability": "view",
      "type": "function"
    },
    {
      "inputs": [
        {
          "internalType": "uint256",
          "name": "tokenId",
          "type": "uint256"
        }
      ],
      "name": "tokenCode",
      "outputs": [
        {
          "internalType": "bytes",
          "name": "",
          "type": "bytes"
        }
      ],
      "stateMutability": "view",
      "type": "function"
    },
    {
      "inputs": [
        {
          "internalType": "uint256",
          "name": "tokenId",
          "type": "uint256"
        }
      ],
      "name": "tokenMetadata",
      "outputs": [
        {
          "internalType": "string",
          "name": "",
          "type": "string"
        }
      ],
      "stateMutability": "view",
      "type": "function"
    },
    {
      "inputs": [
        {
          "internalType": "address",
          "name": "owner",
          "type": "address"
        },
        {
          "internalType": "uint256",
          "name": "index",
          "type": "uint256"
        }
      ],
      "name": "tokenOfOwnerByIndex",
      "outputs": [
        {
          "internalType": "uint256",
          "name": "",
          "type": "uint256"
        }
      ],
      "stateMutability": "view",
      "type": "function"
    },
    {
      "inputs": [
        {
          "internalType": "uint256",
          "name": "tokenId",
          "type": "uint256"
        }
      ],
      "name": "tokenURI",
      "outputs": [
        {
          "internalType": "string",
          "name": "",
          "type": "string"
        }
      ],
      "stateMutability": "view",
      "type": "function"
    },
    {
      "inputs": [],
      "name": "totalSupply",
      "outputs": [
        {
          "internalType": "uint256",
          "name": "",
          "type": "uint256"
        }
      ],
      "stateMutability": "view",
      "type": "function"
    },
    {
      "inputs": [
        {
          "internalType": "address",
          "name": "from",
          "type": "address"
        },
        {
          "internalType": "address",
          "name": "to",
          "type": "address"
        },
        {
          "internalType": "uint256",
          "name": "tokenId",
          "type": "uint256"
        }
      ],
      "name": "transferFrom",
      "outputs": [],
      "stateMutability": "nonpayable",
      "type": "function"
    },
    {
      "inputs": [
        {
          "internalType": "address",
          "name": "newOwner",
          "type": "address"
        }
      ],
      "name": "transferOwnership",
      "outputs": [],
      "stateMutability": "nonpayable",
      "type": "function"
    }
  ],
  "bytecode": "0x60806040523480156200001157600080fd5b50604051620050d6380380620050d683398181016040528101906200003791906200041c565b6040518060400160405280601581526020017f44657369676e204279204e756d62657273204e465400000000000000000000008152506040518060400160405280600581526020017f44424e46540000000000000000000000000000000000000000000000000000008152508160009080519060200190620000bb929190620002fa565b508060019080519060200190620000d4929190620002fa565b505050620000f7620000eb6200022c60201b60201c565b6200023460201b60201c565b80600c90805190602001906200010f929190620002fa565b506000600660146101000a81548160ff021916908360018111156200015d577f4e487b7100000000000000000000000000000000000000000000000000000000600052602160045260246000fd5b0217905550620001726200022c60201b60201c565b600d600080815260200190815260200160002060006101000a81548173ffffffffffffffffffffffffffffffffffffffff021916908373ffffffffffffffffffffffffffffffffffffffff160217905550620001d36200022c60201b60201c565b600d60006001815260200190815260200160002060006101000a81548173ffffffffffffffffffffffffffffffffffffffff021916908373ffffffffffffffffffffffffffffffffffffffff16021790555050620005d1565b600033905090565b6000600660009054906101000a900473ffffffffffffffffffffffffffffffffffffffff16905081600660006101000a81548173ffffffffffffffffffffffffffffffffffffffff021916908373ffffffffffffffffffffffffffffffffffffffff1602179055508173ffffffffffffffffffffffffffffffffffffffff168173ffffffffffffffffffffffffffffffffffffffff167f8be0079c531659141344cd1fd0a4f28419497f9722a3daafe3b4186f6b6457e060405160405180910390a35050565b8280546200030890620004f6565b90600052602060002090601f0160209004810192826200032c576000855562000378565b82601f106200034757805160ff191683800117855562000378565b8280016001018555821562000378579182015b82811115620003775782518255916020019190600101906200035a565b5b5090506200038791906200038b565b5090565b5b80821115620003a65760008160009055506001016200038c565b5090565b6000620003c1620003bb846200048a565b62000461565b905082815260208101848484011115620003da57600080fd5b620003e7848285620004c0565b509392505050565b600082601f8301126200040157600080fd5b815162000413848260208601620003aa565b91505092915050565b6000602082840312156200042f57600080fd5b600082015167ffffffffffffffff8111156200044a57600080fd5b6200045884828501620003ef565b91505092915050565b60006200046d62000480565b90506200047b82826200052c565b919050565b6000604051905090565b600067ffffffffffffffff821115620004a857620004a762000591565b5b620004b382620005c0565b9050602081019050919050565b60005b83811015620004e0578082015181840152602081019050620004c3565b83811115620004f0576000848401525b50505050565b600060028204905060018216806200050f57607f821691505b6020821081141562000526576200052562000562565b5b50919050565b6200053782620005c0565b810181811067ffffffffffffffff8211171562000559576200055862000591565b5b80604052505050565b7f4e487b7100000000000000000000000000000000000000000000000000000000600052602260045260246000fd5b7f4e487b7100000000000000000000000000000000000000000000000000000000600052604160045260246000fd5b6000601f19601f8301169050919050565b614af580620005e16000396000f3fe608060405234801561001057600080fd5b50600436106101a95760003560e01c80636ff97f1d116100f9578063a43da3bd11610097578063db5fac6a11610071578063db5fac6a14610508578063e985e9c514610538578063f2fde38b14610568578063f5f5b06e14610584576101a9565b8063a43da3bd1461049e578063b88d4fde146104bc578063c87b56dd146104d8576101a9565b80637ba0e2e7116100d35780637ba0e2e7146104165780638da5cb5b1461044657806395d89b4114610464578063a22cb46514610482576101a9565b80636ff97f1d146103be57806370a08231146103dc578063715018a61461040c576101a9565b80632f745c59116101665780635dca47b7116101405780635dca47b7146102fe578063610204cd1461032e5780636352211e1461035e5780636914db601461038e576101a9565b80632f745c591461028257806342842e0e146102b25780634f6ccce7146102ce576101a9565b806301ffc9a7146101ae57806306fdde03146101de578063081812fc146101fc578063095ea7b31461022c57806318160ddd1461024857806323b872dd14610266575b600080fd5b6101c860048036038101906101c39190613118565b6105b4565b6040516101d59190613a63565b60405180910390f35b6101e661062e565b6040516101f39190613abb565b60405180910390f35b610216600480360381019061021191906131ff565b6106c0565b60405161022391906139da565b60405180910390f35b610246600480360381019061024191906130dc565b610745565b005b61025061085d565b60405161025d9190613d7d565b60405180910390f35b610280600480360381019061027b9190612fd6565b61086a565b005b61029c600480360381019061029791906130dc565b6108ca565b6040516102a99190613d7d565b60405180910390f35b6102cc60048036038101906102c79190612fd6565b61096f565b005b6102e860048036038101906102e391906131ff565b61098f565b6040516102f59190613d7d565b60405180910390f35b610318600480360381019061031391906131ff565b610a26565b6040516103259190613a7e565b60405180910390f35b61034860048036038101906103439190612f71565b610a70565b6040516103559190613a41565b60405180910390f35b610378600480360381019061037391906131ff565b610c7b565b60405161038591906139da565b60405180910390f35b6103a860048036038101906103a391906131ff565b610d2d565b6040516103b59190613abb565b60405180910390f35b6103c6610d5c565b6040516103d39190613a41565b60405180910390f35b6103f660048036038101906103f19190612f71565b610db4565b6040516104039190613d7d565b60405180910390f35b610414610e6c565b005b610430600480360381019061042b919061316a565b610ef4565b60405161043d91906139da565b60405180910390f35b61044e610f9c565b60405161045b91906139da565b60405180910390f35b61046c610fc6565b6040516104799190613abb565b60405180910390f35b61049c600480360381019061049791906130a0565b611058565b005b6104a66111d9565b6040516104b39190613aa0565b60405180910390f35b6104d660048036038101906104d19190613025565b6111f0565b005b6104f260048036038101906104ed91906131ff565b611252565b6040516104ff9190613abb565b60405180910390f35b610522600480360381019061051d91906131ff565b611290565b60405161052f91906139da565b60405180910390f35b610552600480360381019061054d9190612f9a565b6112cd565b60405161055f9190613a63565b60405180910390f35b610582600480360381019061057d9190612f71565b611361565b005b61059e600480360381019061059991906131ab565b611459565b6040516105ab91906139da565b60405180910390f35b60007f780e9d63000000000000000000000000000000000000000000000000000000007bffffffffffffffffffffffffffffffffffffffffffffffffffffffff1916827bffffffffffffffffffffffffffffffffffffffffffffffffffffffff191614806106275750610626826114e9565b5b9050919050565b60606000805461063d906140ef565b80601f0160208091040260200160405190810160405280929190818152602001828054610669906140ef565b80156106b65780601f1061068b576101008083540402835291602001916106b6565b820191906000526020600020905b81548152906001019060200180831161069957829003601f168201915b5050505050905090565b60006106cb826115cb565b61070a576040517f08c379a000000000000000000000000000000000000000000000000000000000815260040161070190613c7d565b60405180910390fd5b6004600083815260200190815260200160002060009054906101000a900473ffffffffffffffffffffffffffffffffffffffff169050919050565b600061075082610c7b565b90508073ffffffffffffffffffffffffffffffffffffffff168373ffffffffffffffffffffffffffffffffffffffff1614156107c1576040517f08c379a00000000000000000000000000000000000000000000000000000000081526004016107b890613cdd565b60405180910390fd5b8073ffffffffffffffffffffffffffffffffffffffff166107e0611637565b73ffffffffffffffffffffffffffffffffffffffff16148061080f575061080e81610809611637565b6112cd565b5b61084e576040517f08c379a000000000000000000000000000000000000000000000000000000000815260040161084590613bfd565b60405180910390fd5b610858838361163f565b505050565b6000600880549050905090565b61087b610875611637565b826116f8565b6108ba576040517f08c379a00000000000000000000000000000000000000000000000000000000081526004016108b190613d1d565b60405180910390fd5b6108c58383836117d6565b505050565b60006108d583610db4565b8210610916576040517f08c379a000000000000000000000000000000000000000000000000000000000815260040161090d90613cfd565b60405180910390fd5b600960008473ffffffffffffffffffffffffffffffffffffffff1673ffffffffffffffffffffffffffffffffffffffff168152602001908152602001600020600083815260200190815260200160002054905092915050565b61098a838383604051806020016040528060008152506111f0565b505050565b600061099961085d565b82106109da576040517f08c379a00000000000000000000000000000000000000000000000000000000081526004016109d190613b7d565b60405180910390fd5b60088281548110610a14577f4e487b7100000000000000000000000000000000000000000000000000000000600052603260045260246000fd5b90600052602060002001549050919050565b60606000610a3383611a32565b90508073ffffffffffffffffffffffffffffffffffffffff16803b806020016040519081016040528181526000908060200190933c915050919050565b60606000805b60658160ff161015610b0e578373ffffffffffffffffffffffffffffffffffffffff16600d60008360ff16815260200190815260200160002060009054906101000a900473ffffffffffffffffffffffffffffffffffffffff1673ffffffffffffffffffffffffffffffffffffffff161415610afb578180610af79061419b565b9250505b8080610b069061419b565b915050610a76565b5060008160ff1667ffffffffffffffff811115610b54577f4e487b7100000000000000000000000000000000000000000000000000000000600052604160045260246000fd5b604051908082528060200260200182016040528015610b825781602001602082028036833780820191505090505b5090506000915060005b60658160ff161015610c70578473ffffffffffffffffffffffffffffffffffffffff16600d60008360ff16815260200190815260200160002060009054906101000a900473ffffffffffffffffffffffffffffffffffffffff1673ffffffffffffffffffffffffffffffffffffffff161415610c5d578060ff16828460ff1681518110610c42577f4e487b7100000000000000000000000000000000000000000000000000000000600052603260045260246000fd5b6020026020010181815250508280610c599061419b565b9350505b8080610c689061419b565b915050610b8c565b508092505050919050565b6000806002600084815260200190815260200160002060009054906101000a900473ffffffffffffffffffffffffffffffffffffffff169050600073ffffffffffffffffffffffffffffffffffffffff168173ffffffffffffffffffffffffffffffffffffffff161415610d24576040517f08c379a0000000000000000000000000000000000000000000000000000000008152600401610d1b90613c3d565b60405180910390fd5b80915050919050565b60606000610d3a83611a32565b90506000610d488483611ae4565b9050610d5381611c15565b92505050919050565b60606008805480602002602001604051908101604052809291908181526020018280548015610daa57602002820191906000526020600020905b815481526020019060010190808311610d96575b5050505050905090565b60008073ffffffffffffffffffffffffffffffffffffffff168273ffffffffffffffffffffffffffffffffffffffff161415610e25576040517f08c379a0000000000000000000000000000000000000000000000000000000008152600401610e1c90613c1d565b60405180910390fd5b600360008373ffffffffffffffffffffffffffffffffffffffff1673ffffffffffffffffffffffffffffffffffffffff168152602001908152602001600020549050919050565b610e74611637565b73ffffffffffffffffffffffffffffffffffffffff16610e92610f9c565b73ffffffffffffffffffffffffffffffffffffffff1614610ee8576040517f08c379a0000000000000000000000000000000000000000000000000000000008152600401610edf90613c9d565b60405180910390fd5b610ef26000611c4c565b565b6000610efe611637565b73ffffffffffffffffffffffffffffffffffffffff16610f1c610f9c565b73ffffffffffffffffffffffffffffffffffffffff1614610f72576040517f08c379a0000000000000000000000000000000000000000000000000000000008152600401610f6990613c9d565b60405180910390fd5b6000610f7e6007611d12565b9050610f8a6007611d20565b610f948382611d36565b915050919050565b6000600660009054906101000a900473ffffffffffffffffffffffffffffffffffffffff16905090565b606060018054610fd5906140ef565b80601f0160208091040260200160405190810160405280929190818152602001828054611001906140ef565b801561104e5780601f106110235761010080835404028352916020019161104e565b820191906000526020600020905b81548152906001019060200180831161103157829003601f168201915b5050505050905090565b611060611637565b73ffffffffffffffffffffffffffffffffffffffff168273ffffffffffffffffffffffffffffffffffffffff1614156110ce576040517f08c379a00000000000000000000000000000000000000000000000000000000081526004016110c590613bbd565b60405180910390fd5b80600560006110db611637565b73ffffffffffffffffffffffffffffffffffffffff1673ffffffffffffffffffffffffffffffffffffffff16815260200190815260200160002060008473ffffffffffffffffffffffffffffffffffffffff1673ffffffffffffffffffffffffffffffffffffffff16815260200190815260200160002060006101000a81548160ff0219169083151502179055508173ffffffffffffffffffffffffffffffffffffffff16611188611637565b73ffffffffffffffffffffffffffffffffffffffff167f17307eab39ab6107e8899845ad3d59bd9653f200f220920489ca2b5937696c31836040516111cd9190613a63565b60405180910390a35050565b6000600660149054906101000a900460ff16905090565b6112016111fb611637565b836116f8565b611240576040517f08c379a000000000000000000000000000000000000000000000000000000000815260040161123790613d1d565b60405180910390fd5b61124c84848484611e51565b50505050565b6060600061125f83611a32565b9050600061126c82611ead565b9050600061127a8584611ae4565b90506112868282611f64565b9350505050919050565b6000600d600083815260200190815260200160002060009054906101000a900473ffffffffffffffffffffffffffffffffffffffff169050919050565b6000600560008473ffffffffffffffffffffffffffffffffffffffff1673ffffffffffffffffffffffffffffffffffffffff16815260200190815260200160002060008373ffffffffffffffffffffffffffffffffffffffff1673ffffffffffffffffffffffffffffffffffffffff16815260200190815260200160002060009054906101000a900460ff16905092915050565b611369611637565b73ffffffffffffffffffffffffffffffffffffffff16611387610f9c565b73ffffffffffffffffffffffffffffffffffffffff16146113dd576040517f08c379a00000000000000000000000000000000000000000000000000000000081526004016113d490613c9d565b60405180910390fd5b600073ffffffffffffffffffffffffffffffffffffffff168173ffffffffffffffffffffffffffffffffffffffff16141561144d576040517f08c379a000000000000000000000000000000000000000000000000000000000815260040161144490613b1d565b60405180910390fd5b61145681611c4c565b50565b6000611463611637565b73ffffffffffffffffffffffffffffffffffffffff16611481610f9c565b73ffffffffffffffffffffffffffffffffffffffff16146114d7576040517f08c379a00000000000000000000000000000000000000000000000000000000081526004016114ce90613c9d565b60405180910390fd5b6114e18383611d36565b905092915050565b60007f80ac58cd000000000000000000000000000000000000000000000000000000007bffffffffffffffffffffffffffffffffffffffffffffffffffffffff1916827bffffffffffffffffffffffffffffffffffffffffffffffffffffffff191614806115b457507f5b5e139f000000000000000000000000000000000000000000000000000000007bffffffffffffffffffffffffffffffffffffffffffffffffffffffff1916827bffffffffffffffffffffffffffffffffffffffffffffffffffffffff1916145b806115c457506115c382611fa6565b5b9050919050565b60008073ffffffffffffffffffffffffffffffffffffffff166002600084815260200190815260200160002060009054906101000a900473ffffffffffffffffffffffffffffffffffffffff1673ffffffffffffffffffffffffffffffffffffffff1614159050919050565b600033905090565b816004600083815260200190815260200160002060006101000a81548173ffffffffffffffffffffffffffffffffffffffff021916908373ffffffffffffffffffffffffffffffffffffffff160217905550808273ffffffffffffffffffffffffffffffffffffffff166116b283610c7b565b73ffffffffffffffffffffffffffffffffffffffff167f8c5be1e5ebec7d5bd14f71427d1e84f3dd0314c0f7b2291e5b200ac8c7c3b92560405160405180910390a45050565b6000611703826115cb565b611742576040517f08c379a000000000000000000000000000000000000000000000000000000000815260040161173990613bdd565b60405180910390fd5b600061174d83610c7b565b90508073ffffffffffffffffffffffffffffffffffffffff168473ffffffffffffffffffffffffffffffffffffffff1614806117bc57508373ffffffffffffffffffffffffffffffffffffffff166117a4846106c0565b73ffffffffffffffffffffffffffffffffffffffff16145b806117cd57506117cc81856112cd565b5b91505092915050565b8273ffffffffffffffffffffffffffffffffffffffff166117f682610c7b565b73ffffffffffffffffffffffffffffffffffffffff161461184c576040517f08c379a000000000000000000000000000000000000000000000000000000000815260040161184390613cbd565b60405180910390fd5b600073ffffffffffffffffffffffffffffffffffffffff168273ffffffffffffffffffffffffffffffffffffffff1614156118bc576040517f08c379a00000000000000000000000000000000000000000000000000000000081526004016118b390613b9d565b60405180910390fd5b6118c7838383612010565b6118d260008261163f565b6001600360008573ffffffffffffffffffffffffffffffffffffffff1673ffffffffffffffffffffffffffffffffffffffff16815260200190815260200160002060008282546119229190613fa9565b925050819055506001600360008473ffffffffffffffffffffffffffffffffffffffff1673ffffffffffffffffffffffffffffffffffffffff16815260200190815260200160002060008282546119799190613ec8565b92505081905550816002600083815260200190815260200160002060006101000a81548173ffffffffffffffffffffffffffffffffffffffff021916908373ffffffffffffffffffffffffffffffffffffffff160217905550808273ffffffffffffffffffffffffffffffffffffffff168473ffffffffffffffffffffffffffffffffffffffff167fddf252ad1be2c89b69c2b068fc378daa952ba7f163c4a11628f55a4df523b3ef60405160405180910390a4505050565b600080600b600084815260200190815260200160002060009054906101000a900473ffffffffffffffffffffffffffffffffffffffff169050600073ffffffffffffffffffffffffffffffffffffffff168173ffffffffffffffffffffffffffffffffffffffff161415611adb576040517f08c379a0000000000000000000000000000000000000000000000000000000008152600401611ad290613b5d565b60405180910390fd5b80915050919050565b611aec612e78565b6000808373ffffffffffffffffffffffffffffffffffffffff16604051611b129061393e565b600060405180830381855afa9150503d8060008114611b4d576040519150601f19603f3d011682016040523d82523d6000602084013e611b52565b606091505b509150915081611b97576040517f08c379a0000000000000000000000000000000000000000000000000000000008152600401611b8e90613d3d565b60405180910390fd5b6000611ba2866120e0565b9050604051806080016040528082604051602001611bc09190613953565b6040516020818303038152906040528152602001838152602001611be38861228d565b8152602001611c078773ffffffffffffffffffffffffffffffffffffffff166122c1565b815250935050505092915050565b60606000611c2283612347565b905080604051602001611c35919061388e565b604051602081830303815290604052915050919050565b6000600660009054906101000a900473ffffffffffffffffffffffffffffffffffffffff16905081600660006101000a81548173ffffffffffffffffffffffffffffffffffffffff021916908373ffffffffffffffffffffffffffffffffffffffff1602179055508173ffffffffffffffffffffffffffffffffffffffff168173ffffffffffffffffffffffffffffffffffffffff167f8be0079c531659141344cd1fd0a4f28419497f9722a3daafe3b4186f6b6457e060405160405180910390a35050565b600081600001549050919050565b6001816000016000828254019250508190555050565b6000808351602085016000f09050600073ffffffffffffffffffffffffffffffffffffffff168173ffffffffffffffffffffffffffffffffffffffff161415611da8577f4e487b7100000000000000000000000000000000000000000000000000000000600052600160045260246000fd5b80600b600085815260200190815260200160002060006101000a81548173ffffffffffffffffffffffffffffffffffffffff021916908373ffffffffffffffffffffffffffffffffffffffff160217905550611e043384612386565b7ff3a49663583623b9938240e94c937038afc982b749f42e8c4754206ecb514bae8382611e308661228d565b604051611e3f93929190613d98565b60405180910390a18091505092915050565b611e5c8484846117d6565b611e68848484846123a4565b611ea7576040517f08c379a0000000000000000000000000000000000000000000000000000000008152600401611e9e90613afd565b60405180910390fd5b50505050565b60606000808373ffffffffffffffffffffffffffffffffffffffff16604051611ed590613975565b600060405180830381855afa9150503d8060008114611f10576040519150601f19603f3d011682016040523d82523d6000602084013e611f15565b606091505b509150915081611f5a576040517f08c379a0000000000000000000000000000000000000000000000000000000008152600401611f5190613d5d565b60405180910390fd5b8092505050919050565b60606000611f7183612347565b905080611f7d8561253b565b604051602001611f8e92919061398a565b60405160208183030381529060405291505092915050565b60007f01ffc9a7000000000000000000000000000000000000000000000000000000007bffffffffffffffffffffffffffffffffffffffffffffffffffffffff1916827bffffffffffffffffffffffffffffffffffffffffffffffffffffffff1916149050919050565b61201b8383836126f7565b600073ffffffffffffffffffffffffffffffffffffffff168373ffffffffffffffffffffffffffffffffffffffff16141561205e57612059816126fc565b61209d565b8173ffffffffffffffffffffffffffffffffffffffff168373ffffffffffffffffffffffffffffffffffffffff161461209c5761209b8382612728565b5b5b8273ffffffffffffffffffffffffffffffffffffffff168273ffffffffffffffffffffffffffffffffffffffff16146120db576120da8282612895565b5b505050565b60606000821415612128576040518060400160405280600181526020017f30000000000000000000000000000000000000000000000000000000000000008152509050612288565b600082905060005b6000821461215a57808061214390614152565b915050600a826121539190613f1e565b9150612130565b60008167ffffffffffffffff81111561219c577f4e487b7100000000000000000000000000000000000000000000000000000000600052604160045260246000fd5b6040519080825280601f01601f1916602001820160405280156121ce5781602001600182028036833780820191505090505b5090505b60008514612281576001826121e79190613fa9565b9150600a856121f691906141c5565b60306122029190613ec8565b60f81b81838151811061223e577f4e487b7100000000000000000000000000000000000000000000000000000000600052603260045260246000fd5b60200101907effffffffffffffffffffffffffffffffffffffffffffffffffffffffffffff1916908160001a905350600a8561227a9190613f1e565b94506121d2565b8093505050505b919050565b6060600c61229a836120e0565b6040516020016122ab9291906138b0565b6040516020818303038152906040529050919050565b60606000821415612309576040518060400160405280600481526020017f30783030000000000000000000000000000000000000000000000000000000008152509050612342565b600082905060005b6000821461233357808061232490614152565b915050600882901c9150612311565b61233d8482612914565b925050505b919050565b6060816000015182602001518360400151846060015160405160200161237094939291906138d4565b6040516020818303038152906040529050919050565b6123a0828260405180602001604052806000815250612c0e565b5050565b60006123c58473ffffffffffffffffffffffffffffffffffffffff16612c69565b1561252e578373ffffffffffffffffffffffffffffffffffffffff1663150b7a026123ee611637565b8786866040518563ffffffff1660e01b815260040161241094939291906139f5565b602060405180830381600087803b15801561242a57600080fd5b505af192505050801561245b57506040513d601f19601f820116820180604052508101906124589190613141565b60015b6124de573d806000811461248b576040519150601f19603f3d011682016040523d82523d6000602084013e612490565b606091505b506000815114156124d6576040517f08c379a00000000000000000000000000000000000000000000000000000000081526004016124cd90613afd565b60405180910390fd5b805181602001fd5b63150b7a0260e01b7bffffffffffffffffffffffffffffffffffffffffffffffffffffffff1916817bffffffffffffffffffffffffffffffffffffffffffffffffffffffff191614915050612533565b600190505b949350505050565b606060008251141561254f578190506126f2565b60007f4142434445464748494a4b4c4d4e4f505152535455565758595a616263646566905060007f6768696a6b6c6d6e6f707172737475767778797a303132333435363738392b2f905060006125a58551612c7c565b67ffffffffffffffff8111156125e4577f4e487b7100000000000000000000000000000000000000000000000000000000600052604160045260246000fd5b6040519080825280601f01601f1916602001820160405280156126165781602001600182028036833780820191505090505b50905060008551905060208601602083015b60008311156126b857815160101c601e60f0601e861015612666578591508286601e0360031b1c925060066004870983811b9350808760031b019150505b818603955081850194505b60008111156126b05760068103905082603f821b16811c89601f82111561269c578990506020820391505b80821a808753600187019650505050612671565b505050612628565b6003885106600181146126d257600281146126e2576126e7565b603d8253603d82600101536126e7565b603d82535b505050819450505050505b919050565b505050565b600881908060018154018082558091505060019003906000526020600020016000909190919091505550565b6000600161273584610db4565b61273f9190613fa9565b90506000600a6000848152602001908152602001600020549050818114612824576000600960008673ffffffffffffffffffffffffffffffffffffffff1673ffffffffffffffffffffffffffffffffffffffff168152602001908152602001600020600084815260200190815260200160002054905080600960008773ffffffffffffffffffffffffffffffffffffffff1673ffffffffffffffffffffffffffffffffffffffff16815260200190815260200160002060008481526020019081526020016000208190555081600a600083815260200190815260200160002081905550505b600a600084815260200190815260200160002060009055600960008573ffffffffffffffffffffffffffffffffffffffff1673ffffffffffffffffffffffffffffffffffffffff16815260200190815260200160002060008381526020019081526020016000206000905550505050565b60006128a083610db4565b905081600960008573ffffffffffffffffffffffffffffffffffffffff1673ffffffffffffffffffffffffffffffffffffffff16815260200190815260200160002060008381526020019081526020016000208190555080600a600084815260200190815260200160002081905550505050565b6060600060028360026129279190613f4f565b6129319190613ec8565b67ffffffffffffffff811115612970577f4e487b7100000000000000000000000000000000000000000000000000000000600052604160045260246000fd5b6040519080825280601f01601f1916602001820160405280156129a25781602001600182028036833780820191505090505b5090507f300000000000000000000000000000000000000000000000000000000000000081600081518110612a00577f4e487b7100000000000000000000000000000000000000000000000000000000600052603260045260246000fd5b60200101907effffffffffffffffffffffffffffffffffffffffffffffffffffffffffffff1916908160001a9053507f780000000000000000000000000000000000000000000000000000000000000081600181518110612a8a577f4e487b7100000000000000000000000000000000000000000000000000000000600052603260045260246000fd5b60200101907effffffffffffffffffffffffffffffffffffffffffffffffffffffffffffff1916908160001a90535060006001846002612aca9190613f4f565b612ad49190613ec8565b90505b6001811115612bc0577f3031323334353637383961626364656600000000000000000000000000000000600f861660108110612b3c577f4e487b7100000000000000000000000000000000000000000000000000000000600052603260045260246000fd5b1a60f81b828281518110612b79577f4e487b7100000000000000000000000000000000000000000000000000000000600052603260045260246000fd5b60200101907effffffffffffffffffffffffffffffffffffffffffffffffffffffffffffff1916908160001a905350600485901c945080612bb9906140c5565b9050612ad7565b5060008414612c04576040517f08c379a0000000000000000000000000000000000000000000000000000000008152600401612bfb90613add565b60405180910390fd5b8091505092915050565b612c188383612caa565b612c2560008484846123a4565b612c64576040517f08c379a0000000000000000000000000000000000000000000000000000000008152600401612c5b90613afd565b60405180910390fd5b505050565b600080823b905060008111915050919050565b600060046003600284612c8f9190613ec8565b612c999190613f1e565b612ca39190613f4f565b9050919050565b600073ffffffffffffffffffffffffffffffffffffffff168273ffffffffffffffffffffffffffffffffffffffff161415612d1a576040517f08c379a0000000000000000000000000000000000000000000000000000000008152600401612d1190613c5d565b60405180910390fd5b612d23816115cb565b15612d63576040517f08c379a0000000000000000000000000000000000000000000000000000000008152600401612d5a90613b3d565b60405180910390fd5b612d6f60008383612010565b6001600360008473ffffffffffffffffffffffffffffffffffffffff1673ffffffffffffffffffffffffffffffffffffffff1681526020019081526020016000206000828254612dbf9190613ec8565b92505081905550816002600083815260200190815260200160002060006101000a81548173ffffffffffffffffffffffffffffffffffffffff021916908373ffffffffffffffffffffffffffffffffffffffff160217905550808273ffffffffffffffffffffffffffffffffffffffff16600073ffffffffffffffffffffffffffffffffffffffff167fddf252ad1be2c89b69c2b068fc378daa952ba7f163c4a11628f55a4df523b3ef60405160405180910390a45050565b6040518060800160405280606081526020016060815260200160608152602001606081525090565b6000612eb3612eae84613dfb565b613dd6565b905082815260208101848484011115612ecb57600080fd5b612ed6848285614083565b509392505050565b600081359050612eed81614a63565b92915050565b600081359050612f0281614a7a565b92915050565b600081359050612f1781614a91565b92915050565b600081519050612f2c81614a91565b92915050565b600082601f830112612f4357600080fd5b8135612f53848260208601612ea0565b91505092915050565b600081359050612f6b81614aa8565b92915050565b600060208284031215612f8357600080fd5b6000612f9184828501612ede565b91505092915050565b60008060408385031215612fad57600080fd5b6000612fbb85828601612ede565b9250506020612fcc85828601612ede565b9150509250929050565b600080600060608486031215612feb57600080fd5b6000612ff986828701612ede565b935050602061300a86828701612ede565b925050604061301b86828701612f5c565b9150509250925092565b6000806000806080858703121561303b57600080fd5b600061304987828801612ede565b945050602061305a87828801612ede565b935050604061306b87828801612f5c565b925050606085013567ffffffffffffffff81111561308857600080fd5b61309487828801612f32565b91505092959194509250565b600080604083850312156130b357600080fd5b60006130c185828601612ede565b92505060206130d285828601612ef3565b9150509250929050565b600080604083850312156130ef57600080fd5b60006130fd85828601612ede565b925050602061310e85828601612f5c565b9150509250929050565b60006020828403121561312a57600080fd5b600061313884828501612f08565b91505092915050565b60006020828403121561315357600080fd5b600061316184828501612f1d565b91505092915050565b60006020828403121561317c57600080fd5b600082013567ffffffffffffffff81111561319657600080fd5b6131a284828501612f32565b91505092915050565b600080604083850312156131be57600080fd5b600083013567ffffffffffffffff8111156131d857600080fd5b6131e485828601612f32565b92505060206131f585828601612f5c565b9150509250929050565b60006020828403121561321157600080fd5b600061321f84828501612f5c565b91505092915050565b60006132348383613870565b60208301905092915050565b61324981613fdd565b82525050565b600061325a82613e51565b6132648185613e7f565b935061326f83613e2c565b8060005b838110156132a05781516132878882613228565b975061329283613e72565b925050600181019050613273565b5085935050505092915050565b6132b681613fef565b82525050565b60006132c782613e5c565b6132d18185613e90565b93506132e1818560208601614092565b6132ea816142e1565b840191505092915050565b6132fe81614071565b82525050565b600061330f82613e67565b6133198185613eac565b9350613329818560208601614092565b613332816142e1565b840191505092915050565b600061334882613e67565b6133528185613ebd565b9350613362818560208601614092565b80840191505092915050565b6000815461337b816140ef565b6133858186613ebd565b945060018216600081146133a057600181146133b1576133e4565b60ff198316865281860193506133e4565b6133ba85613e3c565b60005b838110156133dc578154818901526001820191506020810190506133bd565b838801955050505b50505092915050565b60006133fa601083613ebd565b9150613405826142f2565b601082019050919050565b600061341d602083613eac565b91506134288261431b565b602082019050919050565b6000613440600983613ebd565b915061344b82614344565b600982019050919050565b6000613463601283613ebd565b915061346e8261436d565b601282019050919050565b6000613486603283613eac565b915061349182614396565b604082019050919050565b60006134a9602683613eac565b91506134b4826143e5565b604082019050919050565b60006134cc601c83613eac565b91506134d782614434565b602082019050919050565b60006134ef600a83613eac565b91506134fa8261445d565b602082019050919050565b6000613512601a83613eac565b915061351d82614486565b602082019050919050565b600061353560a083613ebd565b9150613540826144af565b60a082019050919050565b6000613558602483613eac565b915061356382614570565b604082019050919050565b600061357b601983613eac565b9150613586826145bf565b602082019050919050565b600061359e601183613ebd565b91506135a9826145e8565b601182019050919050565b60006135c1602c83613eac565b91506135cc82614611565b604082019050919050565b60006135e4601583613ebd565b91506135ef82614660565b601582019050919050565b6000613607600b83613ebd565b915061361282614689565b600b82019050919050565b600061362a603883613eac565b9150613635826146b2565b604082019050919050565b600061364d602a83613eac565b915061365882614701565b604082019050919050565b6000613670602983613eac565b915061367b82614750565b604082019050919050565b6000613693600283613ebd565b915061369e8261479f565b600282019050919050565b60006136b6602083613eac565b91506136c1826147c8565b602082019050919050565b60006136d9602c83613eac565b91506136e4826147f1565b604082019050919050565b60006136fc602083613eac565b915061370782614840565b602082019050919050565b600061371f602983613eac565b915061372a82614869565b604082019050919050565b6000613742600183613ea1565b915061374d826148b8565b600182019050919050565b6000613765602183613eac565b9150613770826148e1565b604082019050919050565b6000613788600783613ebd565b915061379382614930565b600782019050919050565b60006137ab601983613eac565b91506137b682614959565b602082019050919050565b60006137ce600083613ea1565b91506137d982614982565b600082019050919050565b60006137f1603183613eac565b91506137fc82614985565b604082019050919050565b6000613814601083613eac565b915061381f826149d4565b602082019050919050565b6000613837601383613eac565b9150613842826149fd565b602082019050919050565b600061385a601683613ebd565b915061386582614a26565b601682019050919050565b6138798161405a565b82525050565b6138888161405a565b82525050565b600061389a828461333d565b91506138a582613686565b915081905092915050565b60006138bc828561336e565b91506138c8828461333d565b91508190509392505050565b60006138df82613433565b91506138eb828761333d565b91506138f682613591565b9150613902828661333d565b915061390d82613456565b9150613919828561333d565b9150613924826135d7565b9150613930828461333d565b915081905095945050505050565b600061394982613735565b9150819050919050565b600061395e8261377b565b915061396a828461333d565b915081905092915050565b6000613980826137c1565b9150819050919050565b60006139958261384d565b91506139a1828561333d565b91506139ac826133ed565b91506139b782613528565b91506139c3828461333d565b91506139ce826135fa565b91508190509392505050565b60006020820190506139ef6000830184613240565b92915050565b6000608082019050613a0a6000830187613240565b613a176020830186613240565b613a24604083018561387f565b8181036060830152613a3681846132bc565b905095945050505050565b60006020820190508181036000830152613a5b818461324f565b905092915050565b6000602082019050613a7860008301846132ad565b92915050565b60006020820190508181036000830152613a9881846132bc565b905092915050565b6000602082019050613ab560008301846132f5565b92915050565b60006020820190508181036000830152613ad58184613304565b905092915050565b60006020820190508181036000830152613af681613410565b9050919050565b60006020820190508181036000830152613b1681613479565b9050919050565b60006020820190508181036000830152613b368161349c565b9050919050565b60006020820190508181036000830152613b56816134bf565b9050919050565b60006020820190508181036000830152613b76816134e2565b9050919050565b60006020820190508181036000830152613b9681613505565b9050919050565b60006020820190508181036000830152613bb68161354b565b9050919050565b60006020820190508181036000830152613bd68161356e565b9050919050565b60006020820190508181036000830152613bf6816135b4565b9050919050565b60006020820190508181036000830152613c168161361d565b9050919050565b60006020820190508181036000830152613c3681613640565b9050919050565b60006020820190508181036000830152613c5681613663565b9050919050565b60006020820190508181036000830152613c76816136a9565b9050919050565b60006020820190508181036000830152613c96816136cc565b9050919050565b60006020820190508181036000830152613cb6816136ef565b9050919050565b60006020820190508181036000830152613cd681613712565b9050919050565b60006020820190508181036000830152613cf681613758565b9050919050565b60006020820190508181036000830152613d168161379e565b9050919050565b60006020820190508181036000830152613d36816137e4565b9050919050565b60006020820190508181036000830152613d5681613807565b9050919050565b60006020820190508181036000830152613d768161382a565b9050919050565b6000602082019050613d92600083018461387f565b92915050565b6000606082019050613dad600083018661387f565b613dba6020830185613240565b8181036040830152613dcc8184613304565b9050949350505050565b6000613de0613df1565b9050613dec8282614121565b919050565b6000604051905090565b600067ffffffffffffffff821115613e1657613e156142b2565b5b613e1f826142e1565b9050602081019050919050565b6000819050602082019050919050565b60008190508160005260206000209050919050565b600081519050919050565b600081519050919050565b600081519050919050565b6000602082019050919050565b600082825260208201905092915050565b600082825260208201905092915050565b600081905092915050565b600082825260208201905092915050565b600081905092915050565b6000613ed38261405a565b9150613ede8361405a565b9250827fffffffffffffffffffffffffffffffffffffffffffffffffffffffffffffffff03821115613f1357613f126141f6565b5b828201905092915050565b6000613f298261405a565b9150613f348361405a565b925082613f4457613f43614225565b5b828204905092915050565b6000613f5a8261405a565b9150613f658361405a565b9250817fffffffffffffffffffffffffffffffffffffffffffffffffffffffffffffffff0483118215151615613f9e57613f9d6141f6565b5b828202905092915050565b6000613fb48261405a565b9150613fbf8361405a565b925082821015613fd257613fd16141f6565b5b828203905092915050565b6000613fe88261403a565b9050919050565b60008115159050919050565b60007fffffffff0000000000000000000000000000000000000000000000000000000082169050919050565b600081905061403582614a4f565b919050565b600073ffffffffffffffffffffffffffffffffffffffff82169050919050565b6000819050919050565b600060ff82169050919050565b600061407c82614027565b9050919050565b82818337600083830152505050565b60005b838110156140b0578082015181840152602081019050614095565b838111156140bf576000848401525b50505050565b60006140d08261405a565b915060008214156140e4576140e36141f6565b5b600182039050919050565b6000600282049050600182168061410757607f821691505b6020821081141561411b5761411a614283565b5b50919050565b61412a826142e1565b810181811067ffffffffffffffff82111715614149576141486142b2565b5b80604052505050565b600061415d8261405a565b91507fffffffffffffffffffffffffffffffffffffffffffffffffffffffffffffffff8214156141905761418f6141f6565b5b600182019050919050565b60006141a682614064565b915060ff8214156141ba576141b96141f6565b5b600182019050919050565b60006141d08261405a565b91506141db8361405a565b9250826141eb576141ea614225565b5b828206905092915050565b7f4e487b7100000000000000000000000000000000000000000000000000000000600052601160045260246000fd5b7f4e487b7100000000000000000000000000000000000000000000000000000000600052601260045260246000fd5b7f4e487b7100000000000000000000000000000000000000000000000000000000600052602160045260246000fd5b7f4e487b7100000000000000000000000000000000000000000000000000000000600052602260045260246000fd5b7f4e487b7100000000000000000000000000000000000000000000000000000000600052604160045260246000fd5b6000601f19601f8301169050919050565b7f222c22696d6167655f64617461223a2200000000000000000000000000000000600082015250565b7f537472696e67733a20686578206c656e67746820696e73756666696369656e74600082015250565b7f7b226e616d65223a220000000000000000000000000000000000000000000000600082015250565b7f222c2265787465726e616c5f75726c223a220000000000000000000000000000600082015250565b7f4552433732313a207472616e7366657220746f206e6f6e20455243373231526560008201527f63656976657220696d706c656d656e7465720000000000000000000000000000602082015250565b7f4f776e61626c653a206e6577206f776e657220697320746865207a65726f206160008201527f6464726573730000000000000000000000000000000000000000000000000000602082015250565b7f4552433732313a20746f6b656e20616c7265616479206d696e74656400000000600082015250565b7f554e4b4e4f574e5f494400000000000000000000000000000000000000000000600082015250565b7f676c6f62616c20696e646578206f7574206f6620626f756e6473000000000000600082015250565b7f3c73766720786d6c6e733d27687474703a2f2f7777772e77332e6f72672f323060008201527f30302f737667272077696474683d2733303327206865696768743d273330332760208201527f3e3c696d6167652077696474683d2733303327206865696768743d273330332760408201527f207374796c653d27696d6167652d72656e646572696e673a20706978656c617460608201527f65642720687265663d27646174613a696d6167652f626d703b6261736536342c608082015250565b7f4552433732313a207472616e7366657220746f20746865207a65726f2061646460008201527f7265737300000000000000000000000000000000000000000000000000000000602082015250565b7f4552433732313a20617070726f766520746f2063616c6c657200000000000000600082015250565b7f222c226465736372697074696f6e223a22000000000000000000000000000000600082015250565b7f4552433732313a206f70657261746f7220717565727920666f72206e6f6e657860008201527f697374656e7420746f6b656e0000000000000000000000000000000000000000602082015250565b7f222c2264726177696e675f61646472657373223a220000000000000000000000600082015250565b7f272f3e3c2f7376673e227d000000000000000000000000000000000000000000600082015250565b7f4552433732313a20617070726f76652063616c6c6572206973206e6f74206f7760008201527f6e6572206e6f7220617070726f76656420666f7220616c6c0000000000000000602082015250565b7f4552433732313a2062616c616e636520717565727920666f7220746865207a6560008201527f726f206164647265737300000000000000000000000000000000000000000000602082015250565b7f4552433732313a206f776e657220717565727920666f72206e6f6e657869737460008201527f656e7420746f6b656e0000000000000000000000000000000000000000000000602082015250565b7f227d000000000000000000000000000000000000000000000000000000000000600082015250565b7f4552433732313a206d696e7420746f20746865207a65726f2061646472657373600082015250565b7f4552433732313a20617070726f76656420717565727920666f72206e6f6e657860008201527f697374656e7420746f6b656e0000000000000000000000000000000000000000602082015250565b7f4f776e61626c653a2063616c6c6572206973206e6f7420746865206f776e6572600082015250565b7f4552433732313a207472616e73666572206f6620746f6b656e2074686174206960008201527f73206e6f74206f776e0000000000000000000000000000000000000000000000602082015250565b7fde00000000000000000000000000000000000000000000000000000000000000600082015250565b7f4552433732313a20617070726f76616c20746f2063757272656e74206f776e6560008201527f7200000000000000000000000000000000000000000000000000000000000000602082015250565b7f44424e4654202300000000000000000000000000000000000000000000000000600082015250565b7f6f776e657220696e646578206f7574206f6620626f756e647300000000000000600082015250565b50565b7f4552433732313a207472616e736665722063616c6c6572206973206e6f74206f60008201527f776e6572206e6f7220617070726f766564000000000000000000000000000000602082015250565b7f4445534352495054494f4e5f4641494c00000000000000000000000000000000600082015250565b7f6661696c7572652072656e6465722063616c6c00000000000000000000000000600082015250565b7f646174613a6170706c69636174696f6e2f6a736f6e2c00000000000000000000600082015250565b60028110614a6057614a5f614254565b5b50565b614a6c81613fdd565b8114614a7757600080fd5b50565b614a8381613fef565b8114614a8e57600080fd5b50565b614a9a81613ffb565b8114614aa557600080fd5b50565b614ab18161405a565b8114614abc57600080fd5b5056fea26469706673582212201ae917105fc198eed7f8586891fab3cee545ce0ca8793e960046eb2e5fc9d36964736f6c63430008040033",
  "linkReferences": {},
  "deployedLinkReferences": {}
}