{
  "_format": "hh-sol-artifact-1",
  "contractName": "DBNCoordinator",
  "sourceName": "contracts/DBNCoordinator.sol",
  "abi": [
    {
      "inputs": [],
      "stateMutability": "nonpayable",
      "type": "constructor"
    },
    {
      "anonymous": false,
      "inputs": [
        {
          "indexed": true,
          "internalType": "address",
          "name": "owner",
          "type": "address"
        },
        {
          "indexed": true,
          "internalType": "address",
          "name": "approved",
          "type": "address"
        },
        {
          "indexed": true,
          "internalType": "uint256",
          "name": "tokenId",
          "type": "uint256"
        }
      ],
      "name": "Approval",
      "type": "event"
    },
    {
      "anonymous": false,
      "inputs": [
        {
          "indexed": true,
          "internalType": "address",
          "name": "owner",
          "type": "address"
        },
        {
          "indexed": true,
          "internalType": "address",
          "name": "operator",
          "type": "address"
        },
        {
          "indexed": false,
          "internalType": "bool",
          "name": "approved",
          "type": "bool"
        }
      ],
      "name": "ApprovalForAll",
      "type": "event"
    },
    {
      "anonymous": false,
      "inputs": [
        {
          "indexed": false,
          "internalType": "address",
          "name": "addr",
          "type": "address"
        }
      ],
      "name": "DrawingDeployed",
      "type": "event"
    },
    {
      "anonymous": false,
      "inputs": [
        {
          "indexed": true,
          "internalType": "address",
          "name": "from",
          "type": "address"
        },
        {
          "indexed": true,
          "internalType": "address",
          "name": "to",
          "type": "address"
        },
        {
          "indexed": true,
          "internalType": "uint256",
          "name": "tokenId",
          "type": "uint256"
        }
      ],
      "name": "Transfer",
      "type": "event"
    },
    {
      "inputs": [
        {
          "internalType": "address",
          "name": "to",
          "type": "address"
        },
        {
          "internalType": "uint256",
          "name": "tokenId",
          "type": "uint256"
        }
      ],
      "name": "approve",
      "outputs": [],
      "stateMutability": "nonpayable",
      "type": "function"
    },
    {
      "inputs": [
        {
          "internalType": "address",
          "name": "owner",
          "type": "address"
        }
      ],
      "name": "balanceOf",
      "outputs": [
        {
          "internalType": "uint256",
          "name": "",
          "type": "uint256"
        }
      ],
      "stateMutability": "view",
      "type": "function"
    },
    {
      "inputs": [
        {
          "internalType": "bytes",
          "name": "bytecode",
          "type": "bytes"
        }
      ],
      "name": "deploy",
      "outputs": [
        {
          "internalType": "address",
          "name": "",
          "type": "address"
        }
      ],
      "stateMutability": "nonpayable",
      "type": "function"
    },
    {
      "inputs": [
        {
          "internalType": "uint256",
          "name": "tokenId",
          "type": "uint256"
        }
      ],
      "name": "getApproved",
      "outputs": [
        {
          "internalType": "address",
          "name": "",
          "type": "address"
        }
      ],
      "stateMutability": "view",
      "type": "function"
    },
    {
      "inputs": [
        {
          "internalType": "address",
          "name": "owner",
          "type": "address"
        },
        {
          "internalType": "address",
          "name": "operator",
          "type": "address"
        }
      ],
      "name": "isApprovedForAll",
      "outputs": [
        {
          "internalType": "bool",
          "name": "",
          "type": "bool"
        }
      ],
      "stateMutability": "view",
      "type": "function"
    },
    {
      "inputs": [],
      "name": "name",
      "outputs": [
        {
          "internalType": "string",
          "name": "",
          "type": "string"
        }
      ],
      "stateMutability": "view",
      "type": "function"
    },
    {
      "inputs": [
        {
          "internalType": "uint256",
          "name": "tokenId",
          "type": "uint256"
        }
      ],
      "name": "ownerOf",
      "outputs": [
        {
          "internalType": "address",
          "name": "",
          "type": "address"
        }
      ],
      "stateMutability": "view",
      "type": "function"
    },
    {
      "inputs": [
        {
          "internalType": "address",
          "name": "from",
          "type": "address"
        },
        {
          "internalType": "address",
          "name": "to",
          "type": "address"
        },
        {
          "internalType": "uint256",
          "name": "tokenId",
          "type": "uint256"
        }
      ],
      "name": "safeTransferFrom",
      "outputs": [],
      "stateMutability": "nonpayable",
      "type": "function"
    },
    {
      "inputs": [
        {
          "internalType": "address",
          "name": "from",
          "type": "address"
        },
        {
          "internalType": "address",
          "name": "to",
          "type": "address"
        },
        {
          "internalType": "uint256",
          "name": "tokenId",
          "type": "uint256"
        },
        {
          "internalType": "bytes",
          "name": "_data",
          "type": "bytes"
        }
      ],
      "name": "safeTransferFrom",
      "outputs": [],
      "stateMutability": "nonpayable",
      "type": "function"
    },
    {
      "inputs": [
        {
          "internalType": "address",
          "name": "operator",
          "type": "address"
        },
        {
          "internalType": "bool",
          "name": "approved",
          "type": "bool"
        }
      ],
      "name": "setApprovalForAll",
      "outputs": [],
      "stateMutability": "nonpayable",
      "type": "function"
    },
    {
      "inputs": [
        {
          "internalType": "bytes4",
          "name": "interfaceId",
          "type": "bytes4"
        }
      ],
      "name": "supportsInterface",
      "outputs": [
        {
          "internalType": "bool",
          "name": "",
          "type": "bool"
        }
      ],
      "stateMutability": "view",
      "type": "function"
    },
    {
      "inputs": [],
      "name": "symbol",
      "outputs": [
        {
          "internalType": "string",
          "name": "",
          "type": "string"
        }
      ],
      "stateMutability": "view",
      "type": "function"
    },
    {
      "inputs": [
        {
          "internalType": "uint256",
          "name": "tokenId",
          "type": "uint256"
        }
      ],
      "name": "tokenURI",
      "outputs": [
        {
          "internalType": "string",
          "name": "",
          "type": "string"
        }
      ],
      "stateMutability": "view",
      "type": "function"
    },
    {
      "inputs": [
        {
          "internalType": "address",
          "name": "from",
          "type": "address"
        },
        {
          "internalType": "address",
          "name": "to",
          "type": "address"
        },
        {
          "internalType": "uint256",
          "name": "tokenId",
          "type": "uint256"
        }
      ],
      "name": "transferFrom",
      "outputs": [],
      "stateMutability": "nonpayable",
      "type": "function"
    }
  ],
  "bytecode": "0x60806040523480156200001157600080fd5b506040518060400160405280600781526020017f44424e204e4654000000000000000000000000000000000000000000000000008152506040518060400160405280600581526020017f44424e4654000000000000000000000000000000000000000000000000000000815250816000908051906020019062000096929190620000b8565b508060019080519060200190620000af929190620000b8565b505050620001cd565b828054620000c69062000168565b90600052602060002090601f016020900481019282620000ea576000855562000136565b82601f106200010557805160ff191683800117855562000136565b8280016001018555821562000136579182015b828111156200013557825182559160200191906001019062000118565b5b50905062000145919062000149565b5090565b5b80821115620001645760008160009055506001016200014a565b5090565b600060028204905060018216806200018157607f821691505b602082108114156200019857620001976200019e565b5b50919050565b7f4e487b7100000000000000000000000000000000000000000000000000000000600052602260045260246000fd5b612c2d80620001dd6000396000f3fe608060405234801561001057600080fd5b50600436106100e95760003560e01c80636352211e1161008c578063a22cb46511610066578063a22cb4651461026e578063b88d4fde1461028a578063c87b56dd146102a6578063e985e9c5146102d6576100e9565b80636352211e146101f057806370a082311461022057806395d89b4114610250576100e9565b8063081812fc116100c8578063081812fc1461016c578063095ea7b31461019c57806323b872dd146101b857806342842e0e146101d4576100e9565b8062774360146100ee57806301ffc9a71461011e57806306fdde031461014e575b600080fd5b61010860048036038101906101039190611ac1565b610306565b6040516101159190612000565b60405180910390f35b61013860048036038101906101339190611a6f565b6103d8565b6040516101459190612067565b60405180910390f35b6101566104ba565b6040516101639190612082565b60405180910390f35b61018660048036038101906101819190611b02565b61054c565b6040516101939190612000565b60405180910390f35b6101b660048036038101906101b19190611a33565b6105d1565b005b6101d260048036038101906101cd919061192d565b6106e9565b005b6101ee60048036038101906101e9919061192d565b610749565b005b61020a60048036038101906102059190611b02565b610769565b6040516102179190612000565b60405180910390f35b61023a600480360381019061023591906118c8565b61081b565b6040516102479190612264565b60405180910390f35b6102586108d3565b6040516102659190612082565b60405180910390f35b610288600480360381019061028391906119f7565b610965565b005b6102a4600480360381019061029f919061197c565b610ae6565b005b6102c060048036038101906102bb9190611b02565b610b48565b6040516102cd9190612082565b60405180910390f35b6102f060048036038101906102eb91906118f1565b610b6e565b6040516102fd9190612067565b60405180910390f35b6000808251602084016000f09050600073ffffffffffffffffffffffffffffffffffffffff168173ffffffffffffffffffffffffffffffffffffffff161415610378577f4e487b7100000000000000000000000000000000000000000000000000000000600052600160045260246000fd5b610398338273ffffffffffffffffffffffffffffffffffffffff16610c02565b7f8bb4171d405ccf5bba8fc45ab6870e14961698f35d0a575eb3be75a472879076816040516103c79190612000565b60405180910390a180915050919050565b60007f80ac58cd000000000000000000000000000000000000000000000000000000007bffffffffffffffffffffffffffffffffffffffffffffffffffffffff1916827bffffffffffffffffffffffffffffffffffffffffffffffffffffffff191614806104a357507f5b5e139f000000000000000000000000000000000000000000000000000000007bffffffffffffffffffffffffffffffffffffffffffffffffffffffff1916827bffffffffffffffffffffffffffffffffffffffffffffffffffffffff1916145b806104b357506104b282610c20565b5b9050919050565b6060600080546104c9906124ee565b80601f01602080910402602001604051908101604052809291908181526020018280546104f5906124ee565b80156105425780601f1061051757610100808354040283529160200191610542565b820191906000526020600020905b81548152906001019060200180831161052557829003601f168201915b5050505050905090565b600061055782610c8a565b610596576040517f08c379a000000000000000000000000000000000000000000000000000000000815260040161058d906121c4565b60405180910390fd5b6004600083815260200190815260200160002060009054906101000a900473ffffffffffffffffffffffffffffffffffffffff169050919050565b60006105dc82610769565b90508073ffffffffffffffffffffffffffffffffffffffff168373ffffffffffffffffffffffffffffffffffffffff16141561064d576040517f08c379a000000000000000000000000000000000000000000000000000000000815260040161064490612204565b60405180910390fd5b8073ffffffffffffffffffffffffffffffffffffffff1661066c610cf6565b73ffffffffffffffffffffffffffffffffffffffff16148061069b575061069a81610695610cf6565b610b6e565b5b6106da576040517f08c379a00000000000000000000000000000000000000000000000000000000081526004016106d190612144565b60405180910390fd5b6106e48383610cfe565b505050565b6106fa6106f4610cf6565b82610db7565b610739576040517f08c379a000000000000000000000000000000000000000000000000000000000815260040161073090612224565b60405180910390fd5b610744838383610e95565b505050565b61076483838360405180602001604052806000815250610ae6565b505050565b6000806002600084815260200190815260200160002060009054906101000a900473ffffffffffffffffffffffffffffffffffffffff169050600073ffffffffffffffffffffffffffffffffffffffff168173ffffffffffffffffffffffffffffffffffffffff161415610812576040517f08c379a000000000000000000000000000000000000000000000000000000000815260040161080990612184565b60405180910390fd5b80915050919050565b60008073ffffffffffffffffffffffffffffffffffffffff168273ffffffffffffffffffffffffffffffffffffffff16141561088c576040517f08c379a000000000000000000000000000000000000000000000000000000000815260040161088390612164565b60405180910390fd5b600360008373ffffffffffffffffffffffffffffffffffffffff1673ffffffffffffffffffffffffffffffffffffffff168152602001908152602001600020549050919050565b6060600180546108e2906124ee565b80601f016020809104026020016040519081016040528092919081815260200182805461090e906124ee565b801561095b5780601f106109305761010080835404028352916020019161095b565b820191906000526020600020905b81548152906001019060200180831161093e57829003601f168201915b5050505050905090565b61096d610cf6565b73ffffffffffffffffffffffffffffffffffffffff168273ffffffffffffffffffffffffffffffffffffffff1614156109db576040517f08c379a00000000000000000000000000000000000000000000000000000000081526004016109d290612104565b60405180910390fd5b80600560006109e8610cf6565b73ffffffffffffffffffffffffffffffffffffffff1673ffffffffffffffffffffffffffffffffffffffff16815260200190815260200160002060008473ffffffffffffffffffffffffffffffffffffffff1673ffffffffffffffffffffffffffffffffffffffff16815260200190815260200160002060006101000a81548160ff0219169083151502179055508173ffffffffffffffffffffffffffffffffffffffff16610a95610cf6565b73ffffffffffffffffffffffffffffffffffffffff167f17307eab39ab6107e8899845ad3d59bd9653f200f220920489ca2b5937696c3183604051610ada9190612067565b60405180910390a35050565b610af7610af1610cf6565b83610db7565b610b36576040517f08c379a0000000000000000000000000000000000000000000000000000000008152600401610b2d90612224565b60405180910390fd5b610b42848484846110f1565b50505050565b606060008290506000610b5a8261114d565b9050610b6581611204565b92505050919050565b6000600560008473ffffffffffffffffffffffffffffffffffffffff1673ffffffffffffffffffffffffffffffffffffffff16815260200190815260200160002060008373ffffffffffffffffffffffffffffffffffffffff1673ffffffffffffffffffffffffffffffffffffffff16815260200190815260200160002060009054906101000a900460ff16905092915050565b610c1c828260405180602001604052806000815250611235565b5050565b60007f01ffc9a7000000000000000000000000000000000000000000000000000000007bffffffffffffffffffffffffffffffffffffffffffffffffffffffff1916827bffffffffffffffffffffffffffffffffffffffffffffffffffffffff1916149050919050565b60008073ffffffffffffffffffffffffffffffffffffffff166002600084815260200190815260200160002060009054906101000a900473ffffffffffffffffffffffffffffffffffffffff1673ffffffffffffffffffffffffffffffffffffffff1614159050919050565b600033905090565b816004600083815260200190815260200160002060006101000a81548173ffffffffffffffffffffffffffffffffffffffff021916908373ffffffffffffffffffffffffffffffffffffffff160217905550808273ffffffffffffffffffffffffffffffffffffffff16610d7183610769565b73ffffffffffffffffffffffffffffffffffffffff167f8c5be1e5ebec7d5bd14f71427d1e84f3dd0314c0f7b2291e5b200ac8c7c3b92560405160405180910390a45050565b6000610dc282610c8a565b610e01576040517f08c379a0000000000000000000000000000000000000000000000000000000008152600401610df890612124565b60405180910390fd5b6000610e0c83610769565b90508073ffffffffffffffffffffffffffffffffffffffff168473ffffffffffffffffffffffffffffffffffffffff161480610e7b57508373ffffffffffffffffffffffffffffffffffffffff16610e638461054c565b73ffffffffffffffffffffffffffffffffffffffff16145b80610e8c5750610e8b8185610b6e565b5b91505092915050565b8273ffffffffffffffffffffffffffffffffffffffff16610eb582610769565b73ffffffffffffffffffffffffffffffffffffffff1614610f0b576040517f08c379a0000000000000000000000000000000000000000000000000000000008152600401610f02906121e4565b60405180910390fd5b600073ffffffffffffffffffffffffffffffffffffffff168273ffffffffffffffffffffffffffffffffffffffff161415610f7b576040517f08c379a0000000000000000000000000000000000000000000000000000000008152600401610f72906120e4565b60405180910390fd5b610f86838383611290565b610f91600082610cfe565b6001600360008573ffffffffffffffffffffffffffffffffffffffff1673ffffffffffffffffffffffffffffffffffffffff1681526020019081526020016000206000828254610fe19190612404565b925050819055506001600360008473ffffffffffffffffffffffffffffffffffffffff1673ffffffffffffffffffffffffffffffffffffffff16815260200190815260200160002060008282546110389190612323565b92505081905550816002600083815260200190815260200160002060006101000a81548173ffffffffffffffffffffffffffffffffffffffff021916908373ffffffffffffffffffffffffffffffffffffffff160217905550808273ffffffffffffffffffffffffffffffffffffffff168473ffffffffffffffffffffffffffffffffffffffff167fddf252ad1be2c89b69c2b068fc378daa952ba7f163c4a11628f55a4df523b3ef60405160405180910390a4505050565b6110fc848484610e95565b61110884848484611295565b611147576040517f08c379a000000000000000000000000000000000000000000000000000000000815260040161113e906120a4565b60405180910390fd5b50505050565b60606000808373ffffffffffffffffffffffffffffffffffffffff1660405161117590611f66565b600060405180830381855afa9150503d80600081146111b0576040519150601f19603f3d011682016040523d82523d6000602084013e6111b5565b606091505b5091509150816111fa576040517f08c379a00000000000000000000000000000000000000000000000000000000081526004016111f190612244565b60405180910390fd5b8092505050919050565b606061120f8261142c565b60405160200161121f9190611f7b565b6040516020818303038152906040529050919050565b61123f83836115e8565b61124c6000848484611295565b61128b576040517f08c379a0000000000000000000000000000000000000000000000000000000008152600401611282906120a4565b60405180910390fd5b505050565b505050565b60006112b68473ffffffffffffffffffffffffffffffffffffffff166117b6565b1561141f578373ffffffffffffffffffffffffffffffffffffffff1663150b7a026112df610cf6565b8786866040518563ffffffff1660e01b8152600401611301949392919061201b565b602060405180830381600087803b15801561131b57600080fd5b505af192505050801561134c57506040513d601f19601f820116820180604052508101906113499190611a98565b60015b6113cf573d806000811461137c576040519150601f19603f3d011682016040523d82523d6000602084013e611381565b606091505b506000815114156113c7576040517f08c379a00000000000000000000000000000000000000000000000000000000081526004016113be906120a4565b60405180910390fd5b805181602001fd5b63150b7a0260e01b7bffffffffffffffffffffffffffffffffffffffffffffffffffffffff1916817bffffffffffffffffffffffffffffffffffffffffffffffffffffffff191614915050611424565b600190505b949350505050565b6060600082511415611440578190506115e3565b60007f4142434445464748494a4b4c4d4e4f505152535455565758595a616263646566905060007f6768696a6b6c6d6e6f707172737475767778797a303132333435363738392b2f9050600061149685516117c9565b67ffffffffffffffff8111156114d5577f4e487b7100000000000000000000000000000000000000000000000000000000600052604160045260246000fd5b6040519080825280601f01601f1916602001820160405280156115075781602001600182028036833780820191505090505b50905060008551905060208601602083015b60008311156115a957815160101c601e60f0601e861015611557578591508286601e0360031b1c925060066004870983811b9350808760031b019150505b818603955081850194505b60008111156115a15760068103905082603f821b16811c89601f82111561158d578990506020820391505b80821a808753600187019650505050611562565b505050611519565b6003885106600181146115c357600281146115d3576115d8565b603d8253603d82600101536115d8565b603d82535b505050819450505050505b919050565b600073ffffffffffffffffffffffffffffffffffffffff168273ffffffffffffffffffffffffffffffffffffffff161415611658576040517f08c379a000000000000000000000000000000000000000000000000000000000815260040161164f906121a4565b60405180910390fd5b61166181610c8a565b156116a1576040517f08c379a0000000000000000000000000000000000000000000000000000000008152600401611698906120c4565b60405180910390fd5b6116ad60008383611290565b6001600360008473ffffffffffffffffffffffffffffffffffffffff1673ffffffffffffffffffffffffffffffffffffffff16815260200190815260200160002060008282546116fd9190612323565b92505081905550816002600083815260200190815260200160002060006101000a81548173ffffffffffffffffffffffffffffffffffffffff021916908373ffffffffffffffffffffffffffffffffffffffff160217905550808273ffffffffffffffffffffffffffffffffffffffff16600073ffffffffffffffffffffffffffffffffffffffff167fddf252ad1be2c89b69c2b068fc378daa952ba7f163c4a11628f55a4df523b3ef60405160405180910390a45050565b600080823b905060008111915050919050565b6000600460036002846117dc9190612323565b6117e69190612379565b6117f091906123aa565b9050919050565b600061180a611805846122a4565b61227f565b90508281526020810184848401111561182257600080fd5b61182d8482856124ac565b509392505050565b60008135905061184481612b9b565b92915050565b60008135905061185981612bb2565b92915050565b60008135905061186e81612bc9565b92915050565b60008151905061188381612bc9565b92915050565b600082601f83011261189a57600080fd5b81356118aa8482602086016117f7565b91505092915050565b6000813590506118c281612be0565b92915050565b6000602082840312156118da57600080fd5b60006118e884828501611835565b91505092915050565b6000806040838503121561190457600080fd5b600061191285828601611835565b925050602061192385828601611835565b9150509250929050565b60008060006060848603121561194257600080fd5b600061195086828701611835565b935050602061196186828701611835565b9250506040611972868287016118b3565b9150509250925092565b6000806000806080858703121561199257600080fd5b60006119a087828801611835565b94505060206119b187828801611835565b93505060406119c2878288016118b3565b925050606085013567ffffffffffffffff8111156119df57600080fd5b6119eb87828801611889565b91505092959194509250565b60008060408385031215611a0a57600080fd5b6000611a1885828601611835565b9250506020611a298582860161184a565b9150509250929050565b60008060408385031215611a4657600080fd5b6000611a5485828601611835565b9250506020611a65858286016118b3565b9150509250929050565b600060208284031215611a8157600080fd5b6000611a8f8482850161185f565b91505092915050565b600060208284031215611aaa57600080fd5b6000611ab884828501611874565b91505092915050565b600060208284031215611ad357600080fd5b600082013567ffffffffffffffff811115611aed57600080fd5b611af984828501611889565b91505092915050565b600060208284031215611b1457600080fd5b6000611b22848285016118b3565b91505092915050565b611b3481612438565b82525050565b611b438161244a565b82525050565b6000611b54826122d5565b611b5e81856122eb565b9350611b6e8185602086016124bb565b611b778161260d565b840191505092915050565b6000611b8d826122e0565b611b978185612307565b9350611ba78185602086016124bb565b611bb08161260d565b840191505092915050565b6000611bc6826122e0565b611bd08185612318565b9350611be08185602086016124bb565b80840191505092915050565b6000611bf9601283612318565b9150611c048261261e565b601282019050919050565b6000611c1c601683612318565b9150611c2782612647565b601682019050919050565b6000611c3f603283612307565b9150611c4a82612670565b604082019050919050565b6000611c62601c83612307565b9150611c6d826126bf565b602082019050919050565b6000611c85600f83612318565b9150611c90826126e8565b600f82019050919050565b6000611ca8602483612307565b9150611cb382612711565b604082019050919050565b6000611ccb601983612307565b9150611cd682612760565b602082019050919050565b6000611cee601183612318565b9150611cf982612789565b601182019050919050565b6000611d11600283612318565b9150611d1c826127b2565b600282019050919050565b6000611d34602c83612307565b9150611d3f826127db565b604082019050919050565b6000611d57600a83612318565b9150611d628261282a565b600a82019050919050565b6000611d7a603883612307565b9150611d8582612853565b604082019050919050565b6000611d9d602a83612307565b9150611da8826128a2565b604082019050919050565b6000611dc0602983612307565b9150611dcb826128f1565b604082019050919050565b6000611de3600283612318565b9150611dee82612940565b600282019050919050565b6000611e06602083612307565b9150611e1182612969565b602082019050919050565b6000611e29602c83612307565b9150611e3482612992565b604082019050919050565b6000611e4c602983612307565b9150611e57826129e1565b604082019050919050565b6000611e6f602183612307565b9150611e7a82612a30565b604082019050919050565b6000611e926000836122fc565b9150611e9d82612a7f565b600082019050919050565b6000611eb5603183612307565b9150611ec082612a82565b604082019050919050565b6000611ed8602283612318565b9150611ee382612ad1565b602282019050919050565b6000611efb601683612318565b9150611f0682612b20565b601682019050919050565b6000611f1e601383612307565b9150611f2982612b49565b602082019050919050565b6000611f41600683612318565b9150611f4c82612b72565b600682019050919050565b611f60816124a2565b82525050565b6000611f7182611e85565b9150819050919050565b6000611f8682611ecb565b9150611f9182611ce1565b9150611f9c82611f34565b9150611fa782611bec565b9150611fb282611c0f565b9150611fbd82611c78565b9150611fc882611d04565b9150611fd382611d4a565b9150611fde82611eee565b9150611fea8284611bbb565b9150611ff582611dd6565b915081905092915050565b60006020820190506120156000830184611b2b565b92915050565b60006080820190506120306000830187611b2b565b61203d6020830186611b2b565b61204a6040830185611f57565b818103606083015261205c8184611b49565b905095945050505050565b600060208201905061207c6000830184611b3a565b92915050565b6000602082019050818103600083015261209c8184611b82565b905092915050565b600060208201905081810360008301526120bd81611c32565b9050919050565b600060208201905081810360008301526120dd81611c55565b9050919050565b600060208201905081810360008301526120fd81611c9b565b9050919050565b6000602082019050818103600083015261211d81611cbe565b9050919050565b6000602082019050818103600083015261213d81611d27565b9050919050565b6000602082019050818103600083015261215d81611d6d565b9050919050565b6000602082019050818103600083015261217d81611d90565b9050919050565b6000602082019050818103600083015261219d81611db3565b9050919050565b600060208201905081810360008301526121bd81611df9565b9050919050565b600060208201905081810360008301526121dd81611e1c565b9050919050565b600060208201905081810360008301526121fd81611e3f565b9050919050565b6000602082019050818103600083015261221d81611e62565b9050919050565b6000602082019050818103600083015261223d81611ea8565b9050919050565b6000602082019050818103600083015261225d81611f11565b9050919050565b60006020820190506122796000830184611f57565b92915050565b600061228961229a565b90506122958282612520565b919050565b6000604051905090565b600067ffffffffffffffff8211156122bf576122be6125de565b5b6122c88261260d565b9050602081019050919050565b600081519050919050565b600081519050919050565b600082825260208201905092915050565b600081905092915050565b600082825260208201905092915050565b600081905092915050565b600061232e826124a2565b9150612339836124a2565b9250827fffffffffffffffffffffffffffffffffffffffffffffffffffffffffffffffff0382111561236e5761236d612551565b5b828201905092915050565b6000612384826124a2565b915061238f836124a2565b92508261239f5761239e612580565b5b828204905092915050565b60006123b5826124a2565b91506123c0836124a2565b9250817fffffffffffffffffffffffffffffffffffffffffffffffffffffffffffffffff04831182151516156123f9576123f8612551565b5b828202905092915050565b600061240f826124a2565b915061241a836124a2565b92508282101561242d5761242c612551565b5b828203905092915050565b600061244382612482565b9050919050565b60008115159050919050565b60007fffffffff0000000000000000000000000000000000000000000000000000000082169050919050565b600073ffffffffffffffffffffffffffffffffffffffff82169050919050565b6000819050919050565b82818337600083830152505050565b60005b838110156124d95780820151818401526020810190506124be565b838111156124e8576000848401525b50505050565b6000600282049050600182168061250657607f821691505b6020821081141561251a576125196125af565b5b50919050565b6125298261260d565b810181811067ffffffffffffffff82111715612548576125476125de565b5b80604052505050565b7f4e487b7100000000000000000000000000000000000000000000000000000000600052601160045260246000fd5b7f4e487b7100000000000000000000000000000000000000000000000000000000600052601260045260246000fd5b7f4e487b7100000000000000000000000000000000000000000000000000000000600052602260045260246000fd5b7f4e487b7100000000000000000000000000000000000000000000000000000000600052604160045260246000fd5b6000601f19601f8301169050919050565b7f222c2265787465726e616c5f75726c223a220000000000000000000000000000600082015250565b7f68747470733a2f2f64626e66742e696f2f6e66742f3000000000000000000000600082015250565b7f4552433732313a207472616e7366657220746f206e6f6e20455243373231526560008201527f63656976657220696d706c656d656e7465720000000000000000000000000000602082015250565b7f4552433732313a20746f6b656e20616c7265616479206d696e74656400000000600082015250565b7f222c2261747472696275746573223a0000000000000000000000000000000000600082015250565b7f4552433732313a207472616e7366657220746f20746865207a65726f2061646460008201527f7265737300000000000000000000000000000000000000000000000000000000602082015250565b7f4552433732313a20617070726f766520746f2063616c6c657200000000000000600082015250565b7f222c226465736372697074696f6e223a22000000000000000000000000000000600082015250565b7f5b5d000000000000000000000000000000000000000000000000000000000000600082015250565b7f4552433732313a206f70657261746f7220717565727920666f72206e6f6e657860008201527f697374656e7420746f6b656e0000000000000000000000000000000000000000602082015250565b7f2c22696d616765223a2200000000000000000000000000000000000000000000600082015250565b7f4552433732313a20617070726f76652063616c6c6572206973206e6f74206f7760008201527f6e6572206e6f7220617070726f76656420666f7220616c6c0000000000000000602082015250565b7f4552433732313a2062616c616e636520717565727920666f7220746865207a6560008201527f726f206164647265737300000000000000000000000000000000000000000000602082015250565b7f4552433732313a206f776e657220717565727920666f72206e6f6e657869737460008201527f656e7420746f6b656e0000000000000000000000000000000000000000000000602082015250565b7f227d000000000000000000000000000000000000000000000000000000000000600082015250565b7f4552433732313a206d696e7420746f20746865207a65726f2061646472657373600082015250565b7f4552433732313a20617070726f76656420717565727920666f72206e6f6e657860008201527f697374656e7420746f6b656e0000000000000000000000000000000000000000602082015250565b7f4552433732313a207472616e73666572206f6620746f6b656e2074686174206960008201527f73206e6f74206f776e0000000000000000000000000000000000000000000000602082015250565b7f4552433732313a20617070726f76616c20746f2063757272656e74206f776e6560008201527f7200000000000000000000000000000000000000000000000000000000000000602082015250565b50565b7f4552433732313a207472616e736665722063616c6c6572206973206e6f74206f60008201527f776e6572206e6f7220617070726f766564000000000000000000000000000000602082015250565b7f646174613a6170706c69636174696f6e2f6a736f6e2c7b226e616d65223a224560008201527f7468000000000000000000000000000000000000000000000000000000000000602082015250565b7f646174613a696d6167652f626d703b6261736536342c00000000000000000000600082015250565b7f6661696c7572652072656e6465722063616c6c00000000000000000000000000600082015250565b7f44424e4654300000000000000000000000000000000000000000000000000000600082015250565b612ba481612438565b8114612baf57600080fd5b50565b612bbb8161244a565b8114612bc657600080fd5b50565b612bd281612456565b8114612bdd57600080fd5b50565b612be9816124a2565b8114612bf457600080fd5b5056fea26469706673582212204c6e8d328caf843d4628863009fafd4594a2d900210ab34d0e4f2d517637388164736f6c63430008040033",
  "linkReferences": {},
  "deployedLinkReferences": {}
}