{
  "_format": "hh-sol-artifact-1",
  "contractName": "DBNCoordinator",
  "sourceName": "contracts/DBNCoordinator.sol",
  "abi": [
    {
      "inputs": [
        {
          "internalType": "string",
          "name": "baseExternalURI",
          "type": "string"
        }
      ],
      "stateMutability": "nonpayable",
      "type": "constructor"
    },
    {
      "anonymous": false,
      "inputs": [
        {
          "indexed": true,
          "internalType": "address",
          "name": "owner",
          "type": "address"
        },
        {
          "indexed": true,
          "internalType": "address",
          "name": "approved",
          "type": "address"
        },
        {
          "indexed": true,
          "internalType": "uint256",
          "name": "tokenId",
          "type": "uint256"
        }
      ],
      "name": "Approval",
      "type": "event"
    },
    {
      "anonymous": false,
      "inputs": [
        {
          "indexed": true,
          "internalType": "address",
          "name": "owner",
          "type": "address"
        },
        {
          "indexed": true,
          "internalType": "address",
          "name": "operator",
          "type": "address"
        },
        {
          "indexed": false,
          "internalType": "bool",
          "name": "approved",
          "type": "bool"
        }
      ],
      "name": "ApprovalForAll",
      "type": "event"
    },
    {
      "anonymous": false,
      "inputs": [
        {
          "indexed": false,
          "internalType": "uint256",
          "name": "tokenId",
          "type": "uint256"
        },
        {
          "indexed": false,
          "internalType": "address",
          "name": "addr",
          "type": "address"
        },
        {
          "indexed": false,
          "internalType": "string",
          "name": "externalURL",
          "type": "string"
        }
      ],
      "name": "DrawingDeployed",
      "type": "event"
    },
    {
      "anonymous": false,
      "inputs": [
        {
          "indexed": true,
          "internalType": "address",
          "name": "previousOwner",
          "type": "address"
        },
        {
          "indexed": true,
          "internalType": "address",
          "name": "newOwner",
          "type": "address"
        }
      ],
      "name": "OwnershipTransferred",
      "type": "event"
    },
    {
      "anonymous": false,
      "inputs": [
        {
          "indexed": true,
          "internalType": "address",
          "name": "from",
          "type": "address"
        },
        {
          "indexed": true,
          "internalType": "address",
          "name": "to",
          "type": "address"
        },
        {
          "indexed": true,
          "internalType": "uint256",
          "name": "tokenId",
          "type": "uint256"
        }
      ],
      "name": "Transfer",
      "type": "event"
    },
    {
      "inputs": [],
      "name": "allTokens",
      "outputs": [
        {
          "internalType": "uint256[]",
          "name": "",
          "type": "uint256[]"
        }
      ],
      "stateMutability": "view",
      "type": "function"
    },
    {
      "inputs": [
        {
          "internalType": "address",
          "name": "to",
          "type": "address"
        },
        {
          "internalType": "uint256",
          "name": "tokenId",
          "type": "uint256"
        }
      ],
      "name": "approve",
      "outputs": [],
      "stateMutability": "nonpayable",
      "type": "function"
    },
    {
      "inputs": [
        {
          "internalType": "address",
          "name": "owner",
          "type": "address"
        }
      ],
      "name": "balanceOf",
      "outputs": [
        {
          "internalType": "uint256",
          "name": "",
          "type": "uint256"
        }
      ],
      "stateMutability": "view",
      "type": "function"
    },
    {
      "inputs": [
        {
          "internalType": "bytes",
          "name": "bytecode",
          "type": "bytes"
        }
      ],
      "name": "deploy",
      "outputs": [
        {
          "internalType": "address",
          "name": "",
          "type": "address"
        }
      ],
      "stateMutability": "nonpayable",
      "type": "function"
    },
    {
      "inputs": [
        {
          "internalType": "uint256",
          "name": "tokenId",
          "type": "uint256"
        }
      ],
      "name": "getApproved",
      "outputs": [
        {
          "internalType": "address",
          "name": "",
          "type": "address"
        }
      ],
      "stateMutability": "view",
      "type": "function"
    },
    {
      "inputs": [
        {
          "internalType": "address",
          "name": "owner",
          "type": "address"
        },
        {
          "internalType": "address",
          "name": "operator",
          "type": "address"
        }
      ],
      "name": "isApprovedForAll",
      "outputs": [
        {
          "internalType": "bool",
          "name": "",
          "type": "bool"
        }
      ],
      "stateMutability": "view",
      "type": "function"
    },
    {
      "inputs": [],
      "name": "name",
      "outputs": [
        {
          "internalType": "string",
          "name": "",
          "type": "string"
        }
      ],
      "stateMutability": "view",
      "type": "function"
    },
    {
      "inputs": [],
      "name": "owner",
      "outputs": [
        {
          "internalType": "address",
          "name": "",
          "type": "address"
        }
      ],
      "stateMutability": "view",
      "type": "function"
    },
    {
      "inputs": [
        {
          "internalType": "uint256",
          "name": "tokenId",
          "type": "uint256"
        }
      ],
      "name": "ownerOf",
      "outputs": [
        {
          "internalType": "address",
          "name": "",
          "type": "address"
        }
      ],
      "stateMutability": "view",
      "type": "function"
    },
    {
      "inputs": [],
      "name": "renounceOwnership",
      "outputs": [],
      "stateMutability": "nonpayable",
      "type": "function"
    },
    {
      "inputs": [
        {
          "internalType": "address",
          "name": "from",
          "type": "address"
        },
        {
          "internalType": "address",
          "name": "to",
          "type": "address"
        },
        {
          "internalType": "uint256",
          "name": "tokenId",
          "type": "uint256"
        }
      ],
      "name": "safeTransferFrom",
      "outputs": [],
      "stateMutability": "nonpayable",
      "type": "function"
    },
    {
      "inputs": [
        {
          "internalType": "address",
          "name": "from",
          "type": "address"
        },
        {
          "internalType": "address",
          "name": "to",
          "type": "address"
        },
        {
          "internalType": "uint256",
          "name": "tokenId",
          "type": "uint256"
        },
        {
          "internalType": "bytes",
          "name": "_data",
          "type": "bytes"
        }
      ],
      "name": "safeTransferFrom",
      "outputs": [],
      "stateMutability": "nonpayable",
      "type": "function"
    },
    {
      "inputs": [
        {
          "internalType": "address",
          "name": "operator",
          "type": "address"
        },
        {
          "internalType": "bool",
          "name": "approved",
          "type": "bool"
        }
      ],
      "name": "setApprovalForAll",
      "outputs": [],
      "stateMutability": "nonpayable",
      "type": "function"
    },
    {
      "inputs": [
        {
          "internalType": "bytes4",
          "name": "interfaceId",
          "type": "bytes4"
        }
      ],
      "name": "supportsInterface",
      "outputs": [
        {
          "internalType": "bool",
          "name": "",
          "type": "bool"
        }
      ],
      "stateMutability": "view",
      "type": "function"
    },
    {
      "inputs": [],
      "name": "symbol",
      "outputs": [
        {
          "internalType": "string",
          "name": "",
          "type": "string"
        }
      ],
      "stateMutability": "view",
      "type": "function"
    },
    {
      "inputs": [
        {
          "internalType": "uint256",
          "name": "index",
          "type": "uint256"
        }
      ],
      "name": "tokenByIndex",
      "outputs": [
        {
          "internalType": "uint256",
          "name": "",
          "type": "uint256"
        }
      ],
      "stateMutability": "view",
      "type": "function"
    },
    {
      "inputs": [
        {
          "internalType": "uint256",
          "name": "tokenId",
          "type": "uint256"
        }
      ],
      "name": "tokenCode",
      "outputs": [
        {
          "internalType": "bytes",
          "name": "",
          "type": "bytes"
        }
      ],
      "stateMutability": "view",
      "type": "function"
    },
    {
      "inputs": [
        {
          "internalType": "uint256",
          "name": "tokenId",
          "type": "uint256"
        }
      ],
      "name": "tokenMetadata",
      "outputs": [
        {
          "internalType": "string",
          "name": "",
          "type": "string"
        }
      ],
      "stateMutability": "view",
      "type": "function"
    },
    {
      "inputs": [
        {
          "internalType": "address",
          "name": "owner",
          "type": "address"
        },
        {
          "internalType": "uint256",
          "name": "index",
          "type": "uint256"
        }
      ],
      "name": "tokenOfOwnerByIndex",
      "outputs": [
        {
          "internalType": "uint256",
          "name": "",
          "type": "uint256"
        }
      ],
      "stateMutability": "view",
      "type": "function"
    },
    {
      "inputs": [
        {
          "internalType": "uint256",
          "name": "tokenId",
          "type": "uint256"
        }
      ],
      "name": "tokenURI",
      "outputs": [
        {
          "internalType": "string",
          "name": "",
          "type": "string"
        }
      ],
      "stateMutability": "view",
      "type": "function"
    },
    {
      "inputs": [],
      "name": "totalSupply",
      "outputs": [
        {
          "internalType": "uint256",
          "name": "",
          "type": "uint256"
        }
      ],
      "stateMutability": "view",
      "type": "function"
    },
    {
      "inputs": [
        {
          "internalType": "address",
          "name": "from",
          "type": "address"
        },
        {
          "internalType": "address",
          "name": "to",
          "type": "address"
        },
        {
          "internalType": "uint256",
          "name": "tokenId",
          "type": "uint256"
        }
      ],
      "name": "transferFrom",
      "outputs": [],
      "stateMutability": "nonpayable",
      "type": "function"
    },
    {
      "inputs": [
        {
          "internalType": "address",
          "name": "newOwner",
          "type": "address"
        }
      ],
      "name": "transferOwnership",
      "outputs": [],
      "stateMutability": "nonpayable",
      "type": "function"
    }
  ],
  "bytecode": "0x60806040523480156200001157600080fd5b5060405162004a9738038062004a97833981810160405281019062000037919062000307565b6040518060400160405280601581526020017f44657369676e204279204e756d62657273204e465400000000000000000000008152506040518060400160405280600581526020017f44424e46540000000000000000000000000000000000000000000000000000008152508160009080519060200190620000bb929190620001e5565b508060019080519060200190620000d4929190620001e5565b505050620000f7620000eb6200011760201b60201c565b6200011f60201b60201c565b80600c90805190602001906200010f929190620001e5565b5050620004bc565b600033905090565b6000600660009054906101000a900473ffffffffffffffffffffffffffffffffffffffff16905081600660006101000a81548173ffffffffffffffffffffffffffffffffffffffff021916908373ffffffffffffffffffffffffffffffffffffffff1602179055508173ffffffffffffffffffffffffffffffffffffffff168173ffffffffffffffffffffffffffffffffffffffff167f8be0079c531659141344cd1fd0a4f28419497f9722a3daafe3b4186f6b6457e060405160405180910390a35050565b828054620001f390620003e1565b90600052602060002090601f01602090048101928262000217576000855562000263565b82601f106200023257805160ff191683800117855562000263565b8280016001018555821562000263579182015b828111156200026257825182559160200191906001019062000245565b5b50905062000272919062000276565b5090565b5b808211156200029157600081600090555060010162000277565b5090565b6000620002ac620002a68462000375565b6200034c565b905082815260208101848484011115620002c557600080fd5b620002d2848285620003ab565b509392505050565b600082601f830112620002ec57600080fd5b8151620002fe84826020860162000295565b91505092915050565b6000602082840312156200031a57600080fd5b600082015167ffffffffffffffff8111156200033557600080fd5b6200034384828501620002da565b91505092915050565b6000620003586200036b565b905062000366828262000417565b919050565b6000604051905090565b600067ffffffffffffffff8211156200039357620003926200047c565b5b6200039e82620004ab565b9050602081019050919050565b60005b83811015620003cb578082015181840152602081019050620003ae565b83811115620003db576000848401525b50505050565b60006002820490506001821680620003fa57607f821691505b602082108114156200041157620004106200044d565b5b50919050565b6200042282620004ab565b810181811067ffffffffffffffff821117156200044457620004436200047c565b5b80604052505050565b7f4e487b7100000000000000000000000000000000000000000000000000000000600052602260045260246000fd5b7f4e487b7100000000000000000000000000000000000000000000000000000000600052604160045260246000fd5b6000601f19601f8301169050919050565b6145cb80620004cc6000396000f3fe608060405234801561001057600080fd5b506004361061014c5760003560e01c80636352211e116100c357806395d89b411161007c57806395d89b41146103d7578063a22cb465146103f5578063b88d4fde14610411578063c87b56dd1461042d578063e985e9c51461045d578063f2fde38b1461048d5761014c565b80636352211e146103015780636914db60146103315780636ff97f1d1461036157806370a082311461037f578063715018a6146103af5780638da5cb5b146103b95761014c565b806318160ddd1161011557806318160ddd1461021b57806323b872dd146102395780632f745c591461025557806342842e0e146102855780634f6ccce7146102a15780635dca47b7146102d15761014c565b80627743601461015157806301ffc9a71461018157806306fdde03146101b1578063081812fc146101cf578063095ea7b3146101ff575b600080fd5b61016b60048036038101906101669190612d5d565b6104a9565b604051610178919061356a565b60405180910390f35b61019b60048036038101906101969190612d0b565b610659565b6040516101a891906135f3565b60405180910390f35b6101b96106d3565b6040516101c69190613630565b60405180910390f35b6101e960048036038101906101e49190612d9e565b610765565b6040516101f6919061356a565b60405180910390f35b61021960048036038101906102149190612ccf565b6107ea565b005b610223610902565b60405161023091906138f2565b60405180910390f35b610253600480360381019061024e9190612bc9565b61090f565b005b61026f600480360381019061026a9190612ccf565b61096f565b60405161027c91906138f2565b60405180910390f35b61029f600480360381019061029a9190612bc9565b610a14565b005b6102bb60048036038101906102b69190612d9e565b610a34565b6040516102c891906138f2565b60405180910390f35b6102eb60048036038101906102e69190612d9e565b610acb565b6040516102f8919061360e565b60405180910390f35b61031b60048036038101906103169190612d9e565b610b15565b604051610328919061356a565b60405180910390f35b61034b60048036038101906103469190612d9e565b610bc7565b6040516103589190613630565b60405180910390f35b610369610bf6565b60405161037691906135d1565b60405180910390f35b61039960048036038101906103949190612b64565b610c4e565b6040516103a691906138f2565b60405180910390f35b6103b7610d06565b005b6103c1610d8e565b6040516103ce919061356a565b60405180910390f35b6103df610db8565b6040516103ec9190613630565b60405180910390f35b61040f600480360381019061040a9190612c93565b610e4a565b005b61042b60048036038101906104269190612c18565b610fcb565b005b61044760048036038101906104429190612d9e565b61102d565b6040516104549190613630565b60405180910390f35b61047760048036038101906104729190612b8d565b61106b565b60405161048491906135f3565b60405180910390f35b6104a760048036038101906104a29190612b64565b6110ff565b005b60006104b36111f7565b73ffffffffffffffffffffffffffffffffffffffff166104d1610d8e565b73ffffffffffffffffffffffffffffffffffffffff1614610527576040517f08c379a000000000000000000000000000000000000000000000000000000000815260040161051e90613812565b60405180910390fd5b60008251602084016000f09050600073ffffffffffffffffffffffffffffffffffffffff168173ffffffffffffffffffffffffffffffffffffffff161415610598577f4e487b7100000000000000000000000000000000000000000000000000000000600052600160045260246000fd5b60006105a460076111ff565b90506105b0600761120d565b81600b600083815260200190815260200160002060006101000a81548173ffffffffffffffffffffffffffffffffffffffff021916908373ffffffffffffffffffffffffffffffffffffffff16021790555061060c3382611223565b7ff3a49663583623b9938240e94c937038afc982b749f42e8c4754206ecb514bae818361063884611241565b6040516106479392919061390d565b60405180910390a18192505050919050565b60007f780e9d63000000000000000000000000000000000000000000000000000000007bffffffffffffffffffffffffffffffffffffffffffffffffffffffff1916827bffffffffffffffffffffffffffffffffffffffffffffffffffffffff191614806106cc57506106cb82611275565b5b9050919050565b6060600080546106e290613c32565b80601f016020809104026020016040519081016040528092919081815260200182805461070e90613c32565b801561075b5780601f106107305761010080835404028352916020019161075b565b820191906000526020600020905b81548152906001019060200180831161073e57829003601f168201915b5050505050905090565b600061077082611357565b6107af576040517f08c379a00000000000000000000000000000000000000000000000000000000081526004016107a6906137f2565b60405180910390fd5b6004600083815260200190815260200160002060009054906101000a900473ffffffffffffffffffffffffffffffffffffffff169050919050565b60006107f582610b15565b90508073ffffffffffffffffffffffffffffffffffffffff168373ffffffffffffffffffffffffffffffffffffffff161415610866576040517f08c379a000000000000000000000000000000000000000000000000000000000815260040161085d90613852565b60405180910390fd5b8073ffffffffffffffffffffffffffffffffffffffff166108856111f7565b73ffffffffffffffffffffffffffffffffffffffff1614806108b457506108b3816108ae6111f7565b61106b565b5b6108f3576040517f08c379a00000000000000000000000000000000000000000000000000000000081526004016108ea90613772565b60405180910390fd5b6108fd83836113c3565b505050565b6000600880549050905090565b61092061091a6111f7565b8261147c565b61095f576040517f08c379a000000000000000000000000000000000000000000000000000000000815260040161095690613892565b60405180910390fd5b61096a83838361155a565b505050565b600061097a83610c4e565b82106109bb576040517f08c379a00000000000000000000000000000000000000000000000000000000081526004016109b290613872565b60405180910390fd5b600960008473ffffffffffffffffffffffffffffffffffffffff1673ffffffffffffffffffffffffffffffffffffffff168152602001908152602001600020600083815260200190815260200160002054905092915050565b610a2f83838360405180602001604052806000815250610fcb565b505050565b6000610a3e610902565b8210610a7f576040517f08c379a0000000000000000000000000000000000000000000000000000000008152600401610a76906136f2565b60405180910390fd5b60088281548110610ab9577f4e487b7100000000000000000000000000000000000000000000000000000000600052603260045260246000fd5b90600052602060002001549050919050565b60606000610ad8836117b6565b90508073ffffffffffffffffffffffffffffffffffffffff16803b806020016040519081016040528181526000908060200190933c915050919050565b6000806002600084815260200190815260200160002060009054906101000a900473ffffffffffffffffffffffffffffffffffffffff169050600073ffffffffffffffffffffffffffffffffffffffff168173ffffffffffffffffffffffffffffffffffffffff161415610bbe576040517f08c379a0000000000000000000000000000000000000000000000000000000008152600401610bb5906137b2565b60405180910390fd5b80915050919050565b60606000610bd4836117b6565b90506000610be28483611868565b9050610bed81611999565b92505050919050565b60606008805480602002602001604051908101604052809291908181526020018280548015610c4457602002820191906000526020600020905b815481526020019060010190808311610c30575b5050505050905090565b60008073ffffffffffffffffffffffffffffffffffffffff168273ffffffffffffffffffffffffffffffffffffffff161415610cbf576040517f08c379a0000000000000000000000000000000000000000000000000000000008152600401610cb690613792565b60405180910390fd5b600360008373ffffffffffffffffffffffffffffffffffffffff1673ffffffffffffffffffffffffffffffffffffffff168152602001908152602001600020549050919050565b610d0e6111f7565b73ffffffffffffffffffffffffffffffffffffffff16610d2c610d8e565b73ffffffffffffffffffffffffffffffffffffffff1614610d82576040517f08c379a0000000000000000000000000000000000000000000000000000000008152600401610d7990613812565b60405180910390fd5b610d8c60006119d0565b565b6000600660009054906101000a900473ffffffffffffffffffffffffffffffffffffffff16905090565b606060018054610dc790613c32565b80601f0160208091040260200160405190810160405280929190818152602001828054610df390613c32565b8015610e405780601f10610e1557610100808354040283529160200191610e40565b820191906000526020600020905b815481529060010190602001808311610e2357829003601f168201915b5050505050905090565b610e526111f7565b73ffffffffffffffffffffffffffffffffffffffff168273ffffffffffffffffffffffffffffffffffffffff161415610ec0576040517f08c379a0000000000000000000000000000000000000000000000000000000008152600401610eb790613732565b60405180910390fd5b8060056000610ecd6111f7565b73ffffffffffffffffffffffffffffffffffffffff1673ffffffffffffffffffffffffffffffffffffffff16815260200190815260200160002060008473ffffffffffffffffffffffffffffffffffffffff1673ffffffffffffffffffffffffffffffffffffffff16815260200190815260200160002060006101000a81548160ff0219169083151502179055508173ffffffffffffffffffffffffffffffffffffffff16610f7a6111f7565b73ffffffffffffffffffffffffffffffffffffffff167f17307eab39ab6107e8899845ad3d59bd9653f200f220920489ca2b5937696c3183604051610fbf91906135f3565b60405180910390a35050565b610fdc610fd66111f7565b8361147c565b61101b576040517f08c379a000000000000000000000000000000000000000000000000000000000815260040161101290613892565b60405180910390fd5b61102784848484611a96565b50505050565b6060600061103a836117b6565b9050600061104782611af2565b905060006110558584611868565b90506110618282611ba9565b9350505050919050565b6000600560008473ffffffffffffffffffffffffffffffffffffffff1673ffffffffffffffffffffffffffffffffffffffff16815260200190815260200160002060008373ffffffffffffffffffffffffffffffffffffffff1673ffffffffffffffffffffffffffffffffffffffff16815260200190815260200160002060009054906101000a900460ff16905092915050565b6111076111f7565b73ffffffffffffffffffffffffffffffffffffffff16611125610d8e565b73ffffffffffffffffffffffffffffffffffffffff161461117b576040517f08c379a000000000000000000000000000000000000000000000000000000000815260040161117290613812565b60405180910390fd5b600073ffffffffffffffffffffffffffffffffffffffff168173ffffffffffffffffffffffffffffffffffffffff1614156111eb576040517f08c379a00000000000000000000000000000000000000000000000000000000081526004016111e290613692565b60405180910390fd5b6111f4816119d0565b50565b600033905090565b600081600001549050919050565b6001816000016000828254019250508190555050565b61123d828260405180602001604052806000815250611beb565b5050565b6060600c61124e83611c46565b60405160200161125f929190613440565b6040516020818303038152906040529050919050565b60007f80ac58cd000000000000000000000000000000000000000000000000000000007bffffffffffffffffffffffffffffffffffffffffffffffffffffffff1916827bffffffffffffffffffffffffffffffffffffffffffffffffffffffff1916148061134057507f5b5e139f000000000000000000000000000000000000000000000000000000007bffffffffffffffffffffffffffffffffffffffffffffffffffffffff1916827bffffffffffffffffffffffffffffffffffffffffffffffffffffffff1916145b80611350575061134f82611df3565b5b9050919050565b60008073ffffffffffffffffffffffffffffffffffffffff166002600084815260200190815260200160002060009054906101000a900473ffffffffffffffffffffffffffffffffffffffff1673ffffffffffffffffffffffffffffffffffffffff1614159050919050565b816004600083815260200190815260200160002060006101000a81548173ffffffffffffffffffffffffffffffffffffffff021916908373ffffffffffffffffffffffffffffffffffffffff160217905550808273ffffffffffffffffffffffffffffffffffffffff1661143683610b15565b73ffffffffffffffffffffffffffffffffffffffff167f8c5be1e5ebec7d5bd14f71427d1e84f3dd0314c0f7b2291e5b200ac8c7c3b92560405160405180910390a45050565b600061148782611357565b6114c6576040517f08c379a00000000000000000000000000000000000000000000000000000000081526004016114bd90613752565b60405180910390fd5b60006114d183610b15565b90508073ffffffffffffffffffffffffffffffffffffffff168473ffffffffffffffffffffffffffffffffffffffff16148061154057508373ffffffffffffffffffffffffffffffffffffffff1661152884610765565b73ffffffffffffffffffffffffffffffffffffffff16145b806115515750611550818561106b565b5b91505092915050565b8273ffffffffffffffffffffffffffffffffffffffff1661157a82610b15565b73ffffffffffffffffffffffffffffffffffffffff16146115d0576040517f08c379a00000000000000000000000000000000000000000000000000000000081526004016115c790613832565b60405180910390fd5b600073ffffffffffffffffffffffffffffffffffffffff168273ffffffffffffffffffffffffffffffffffffffff161415611640576040517f08c379a000000000000000000000000000000000000000000000000000000000815260040161163790613712565b60405180910390fd5b61164b838383611e5d565b6116566000826113c3565b6001600360008573ffffffffffffffffffffffffffffffffffffffff1673ffffffffffffffffffffffffffffffffffffffff16815260200190815260200160002060008282546116a69190613b1e565b925050819055506001600360008473ffffffffffffffffffffffffffffffffffffffff1673ffffffffffffffffffffffffffffffffffffffff16815260200190815260200160002060008282546116fd9190613a3d565b92505081905550816002600083815260200190815260200160002060006101000a81548173ffffffffffffffffffffffffffffffffffffffff021916908373ffffffffffffffffffffffffffffffffffffffff160217905550808273ffffffffffffffffffffffffffffffffffffffff168473ffffffffffffffffffffffffffffffffffffffff167fddf252ad1be2c89b69c2b068fc378daa952ba7f163c4a11628f55a4df523b3ef60405160405180910390a4505050565b600080600b600084815260200190815260200160002060009054906101000a900473ffffffffffffffffffffffffffffffffffffffff169050600073ffffffffffffffffffffffffffffffffffffffff168173ffffffffffffffffffffffffffffffffffffffff16141561185f576040517f08c379a0000000000000000000000000000000000000000000000000000000008152600401611856906136d2565b60405180910390fd5b80915050919050565b611870612a6b565b6000808373ffffffffffffffffffffffffffffffffffffffff16604051611896906134ce565b600060405180830381855afa9150503d80600081146118d1576040519150601f19603f3d011682016040523d82523d6000602084013e6118d6565b606091505b50915091508161191b576040517f08c379a0000000000000000000000000000000000000000000000000000000008152600401611912906138b2565b60405180910390fd5b600061192686611c46565b905060405180608001604052808260405160200161194491906134e3565b604051602081830303815290604052815260200183815260200161196788611241565b815260200161198b8773ffffffffffffffffffffffffffffffffffffffff16611f2d565b815250935050505092915050565b606060006119a683611fb3565b9050806040516020016119b9919061341e565b604051602081830303815290604052915050919050565b6000600660009054906101000a900473ffffffffffffffffffffffffffffffffffffffff16905081600660006101000a81548173ffffffffffffffffffffffffffffffffffffffff021916908373ffffffffffffffffffffffffffffffffffffffff1602179055508173ffffffffffffffffffffffffffffffffffffffff168173ffffffffffffffffffffffffffffffffffffffff167f8be0079c531659141344cd1fd0a4f28419497f9722a3daafe3b4186f6b6457e060405160405180910390a35050565b611aa184848461155a565b611aad84848484611ff2565b611aec576040517f08c379a0000000000000000000000000000000000000000000000000000000008152600401611ae390613672565b60405180910390fd5b50505050565b60606000808373ffffffffffffffffffffffffffffffffffffffff16604051611b1a90613505565b600060405180830381855afa9150503d8060008114611b55576040519150601f19603f3d011682016040523d82523d6000602084013e611b5a565b606091505b509150915081611b9f576040517f08c379a0000000000000000000000000000000000000000000000000000000008152600401611b96906138d2565b60405180910390fd5b8092505050919050565b60606000611bb683611fb3565b905080611bc285612189565b604051602001611bd392919061351a565b60405160208183030381529060405291505092915050565b611bf58383612345565b611c026000848484611ff2565b611c41576040517f08c379a0000000000000000000000000000000000000000000000000000000008152600401611c3890613672565b60405180910390fd5b505050565b60606000821415611c8e576040518060400160405280600181526020017f30000000000000000000000000000000000000000000000000000000000000008152509050611dee565b600082905060005b60008214611cc0578080611ca990613c95565b915050600a82611cb99190613a93565b9150611c96565b60008167ffffffffffffffff811115611d02577f4e487b7100000000000000000000000000000000000000000000000000000000600052604160045260246000fd5b6040519080825280601f01601f191660200182016040528015611d345781602001600182028036833780820191505090505b5090505b60008514611de757600182611d4d9190613b1e565b9150600a85611d5c9190613cde565b6030611d689190613a3d565b60f81b818381518110611da4577f4e487b7100000000000000000000000000000000000000000000000000000000600052603260045260246000fd5b60200101907effffffffffffffffffffffffffffffffffffffffffffffffffffffffffffff1916908160001a905350600a85611de09190613a93565b9450611d38565b8093505050505b919050565b60007f01ffc9a7000000000000000000000000000000000000000000000000000000007bffffffffffffffffffffffffffffffffffffffffffffffffffffffff1916827bffffffffffffffffffffffffffffffffffffffffffffffffffffffff1916149050919050565b611e68838383612513565b600073ffffffffffffffffffffffffffffffffffffffff168373ffffffffffffffffffffffffffffffffffffffff161415611eab57611ea681612518565b611eea565b8173ffffffffffffffffffffffffffffffffffffffff168373ffffffffffffffffffffffffffffffffffffffff1614611ee957611ee88382612544565b5b5b8273ffffffffffffffffffffffffffffffffffffffff168273ffffffffffffffffffffffffffffffffffffffff1614611f2857611f2782826126b1565b5b505050565b60606000821415611f75576040518060400160405280600481526020017f30783030000000000000000000000000000000000000000000000000000000008152509050611fae565b600082905060005b60008214611f9f578080611f9090613c95565b915050600882901c9150611f7d565b611fa98482612730565b925050505b919050565b60608160000151826020015183604001518460600151604051602001611fdc9493929190613464565b6040516020818303038152906040529050919050565b60006120138473ffffffffffffffffffffffffffffffffffffffff16612a2a565b1561217c578373ffffffffffffffffffffffffffffffffffffffff1663150b7a0261203c6111f7565b8786866040518563ffffffff1660e01b815260040161205e9493929190613585565b602060405180830381600087803b15801561207857600080fd5b505af19250505080156120a957506040513d601f19601f820116820180604052508101906120a69190612d34565b60015b61212c573d80600081146120d9576040519150601f19603f3d011682016040523d82523d6000602084013e6120de565b606091505b50600081511415612124576040517f08c379a000000000000000000000000000000000000000000000000000000000815260040161211b90613672565b60405180910390fd5b805181602001fd5b63150b7a0260e01b7bffffffffffffffffffffffffffffffffffffffffffffffffffffffff1916817bffffffffffffffffffffffffffffffffffffffffffffffffffffffff191614915050612181565b600190505b949350505050565b606060008251141561219d57819050612340565b60007f4142434445464748494a4b4c4d4e4f505152535455565758595a616263646566905060007f6768696a6b6c6d6e6f707172737475767778797a303132333435363738392b2f905060006121f38551612a3d565b67ffffffffffffffff811115612232577f4e487b7100000000000000000000000000000000000000000000000000000000600052604160045260246000fd5b6040519080825280601f01601f1916602001820160405280156122645781602001600182028036833780820191505090505b50905060008551905060208601602083015b600083111561230657815160101c601e60f0601e8610156122b4578591508286601e0360031b1c925060066004870983811b9350808760031b019150505b818603955081850194505b60008111156122fe5760068103905082603f821b16811c89601f8211156122ea578990506020820391505b80821a8087536001870196505050506122bf565b505050612276565b600388510660018114612320576002811461233057612335565b603d8253603d8260010153612335565b603d82535b505050819450505050505b919050565b600073ffffffffffffffffffffffffffffffffffffffff168273ffffffffffffffffffffffffffffffffffffffff1614156123b5576040517f08c379a00000000000000000000000000000000000000000000000000000000081526004016123ac906137d2565b60405180910390fd5b6123be81611357565b156123fe576040517f08c379a00000000000000000000000000000000000000000000000000000000081526004016123f5906136b2565b60405180910390fd5b61240a60008383611e5d565b6001600360008473ffffffffffffffffffffffffffffffffffffffff1673ffffffffffffffffffffffffffffffffffffffff168152602001908152602001600020600082825461245a9190613a3d565b92505081905550816002600083815260200190815260200160002060006101000a81548173ffffffffffffffffffffffffffffffffffffffff021916908373ffffffffffffffffffffffffffffffffffffffff160217905550808273ffffffffffffffffffffffffffffffffffffffff16600073ffffffffffffffffffffffffffffffffffffffff167fddf252ad1be2c89b69c2b068fc378daa952ba7f163c4a11628f55a4df523b3ef60405160405180910390a45050565b505050565b600881908060018154018082558091505060019003906000526020600020016000909190919091505550565b6000600161255184610c4e565b61255b9190613b1e565b90506000600a6000848152602001908152602001600020549050818114612640576000600960008673ffffffffffffffffffffffffffffffffffffffff1673ffffffffffffffffffffffffffffffffffffffff168152602001908152602001600020600084815260200190815260200160002054905080600960008773ffffffffffffffffffffffffffffffffffffffff1673ffffffffffffffffffffffffffffffffffffffff16815260200190815260200160002060008481526020019081526020016000208190555081600a600083815260200190815260200160002081905550505b600a600084815260200190815260200160002060009055600960008573ffffffffffffffffffffffffffffffffffffffff1673ffffffffffffffffffffffffffffffffffffffff16815260200190815260200160002060008381526020019081526020016000206000905550505050565b60006126bc83610c4e565b905081600960008573ffffffffffffffffffffffffffffffffffffffff1673ffffffffffffffffffffffffffffffffffffffff16815260200190815260200160002060008381526020019081526020016000208190555080600a600084815260200190815260200160002081905550505050565b6060600060028360026127439190613ac4565b61274d9190613a3d565b67ffffffffffffffff81111561278c577f4e487b7100000000000000000000000000000000000000000000000000000000600052604160045260246000fd5b6040519080825280601f01601f1916602001820160405280156127be5781602001600182028036833780820191505090505b5090507f30000000000000000000000000000000000000000000000000000000000000008160008151811061281c577f4e487b7100000000000000000000000000000000000000000000000000000000600052603260045260246000fd5b60200101907effffffffffffffffffffffffffffffffffffffffffffffffffffffffffffff1916908160001a9053507f7800000000000000000000000000000000000000000000000000000000000000816001815181106128a6577f4e487b7100000000000000000000000000000000000000000000000000000000600052603260045260246000fd5b60200101907effffffffffffffffffffffffffffffffffffffffffffffffffffffffffffff1916908160001a905350600060018460026128e69190613ac4565b6128f09190613a3d565b90505b60018111156129dc577f3031323334353637383961626364656600000000000000000000000000000000600f861660108110612958577f4e487b7100000000000000000000000000000000000000000000000000000000600052603260045260246000fd5b1a60f81b828281518110612995577f4e487b7100000000000000000000000000000000000000000000000000000000600052603260045260246000fd5b60200101907effffffffffffffffffffffffffffffffffffffffffffffffffffffffffffff1916908160001a905350600485901c9450806129d590613c08565b90506128f3565b5060008414612a20576040517f08c379a0000000000000000000000000000000000000000000000000000000008152600401612a1790613652565b60405180910390fd5b8091505092915050565b600080823b905060008111915050919050565b600060046003600284612a509190613a3d565b612a5a9190613a93565b612a649190613ac4565b9050919050565b6040518060800160405280606081526020016060815260200160608152602001606081525090565b6000612aa6612aa184613970565b61394b565b905082815260208101848484011115612abe57600080fd5b612ac9848285613bc6565b509392505050565b600081359050612ae081614539565b92915050565b600081359050612af581614550565b92915050565b600081359050612b0a81614567565b92915050565b600081519050612b1f81614567565b92915050565b600082601f830112612b3657600080fd5b8135612b46848260208601612a93565b91505092915050565b600081359050612b5e8161457e565b92915050565b600060208284031215612b7657600080fd5b6000612b8484828501612ad1565b91505092915050565b60008060408385031215612ba057600080fd5b6000612bae85828601612ad1565b9250506020612bbf85828601612ad1565b9150509250929050565b600080600060608486031215612bde57600080fd5b6000612bec86828701612ad1565b9350506020612bfd86828701612ad1565b9250506040612c0e86828701612b4f565b9150509250925092565b60008060008060808587031215612c2e57600080fd5b6000612c3c87828801612ad1565b9450506020612c4d87828801612ad1565b9350506040612c5e87828801612b4f565b925050606085013567ffffffffffffffff811115612c7b57600080fd5b612c8787828801612b25565b91505092959194509250565b60008060408385031215612ca657600080fd5b6000612cb485828601612ad1565b9250506020612cc585828601612ae6565b9150509250929050565b60008060408385031215612ce257600080fd5b6000612cf085828601612ad1565b9250506020612d0185828601612b4f565b9150509250929050565b600060208284031215612d1d57600080fd5b6000612d2b84828501612afb565b91505092915050565b600060208284031215612d4657600080fd5b6000612d5484828501612b10565b91505092915050565b600060208284031215612d6f57600080fd5b600082013567ffffffffffffffff811115612d8957600080fd5b612d9584828501612b25565b91505092915050565b600060208284031215612db057600080fd5b6000612dbe84828501612b4f565b91505092915050565b6000612dd38383613400565b60208301905092915050565b612de881613b52565b82525050565b6000612df9826139c6565b612e0381856139f4565b9350612e0e836139a1565b8060005b83811015612e3f578151612e268882612dc7565b9750612e31836139e7565b925050600181019050612e12565b5085935050505092915050565b612e5581613b64565b82525050565b6000612e66826139d1565b612e708185613a05565b9350612e80818560208601613bd5565b612e8981613dcb565b840191505092915050565b6000612e9f826139dc565b612ea98185613a21565b9350612eb9818560208601613bd5565b612ec281613dcb565b840191505092915050565b6000612ed8826139dc565b612ee28185613a32565b9350612ef2818560208601613bd5565b80840191505092915050565b60008154612f0b81613c32565b612f158186613a32565b94506001821660008114612f305760018114612f4157612f74565b60ff19831686528186019350612f74565b612f4a856139b1565b60005b83811015612f6c57815481890152600182019150602081019050612f4d565b838801955050505b50505092915050565b6000612f8a601083613a32565b9150612f9582613ddc565b601082019050919050565b6000612fad602083613a21565b9150612fb882613e05565b602082019050919050565b6000612fd0600983613a32565b9150612fdb82613e2e565b600982019050919050565b6000612ff3601283613a32565b9150612ffe82613e57565b601282019050919050565b6000613016603283613a21565b915061302182613e80565b604082019050919050565b6000613039602683613a21565b915061304482613ecf565b604082019050919050565b600061305c601c83613a21565b915061306782613f1e565b602082019050919050565b600061307f600a83613a21565b915061308a82613f47565b602082019050919050565b60006130a2601a83613a21565b91506130ad82613f70565b602082019050919050565b60006130c560a083613a32565b91506130d082613f99565b60a082019050919050565b60006130e8602483613a21565b91506130f38261405a565b604082019050919050565b600061310b601983613a21565b9150613116826140a9565b602082019050919050565b600061312e601183613a32565b9150613139826140d2565b601182019050919050565b6000613151602c83613a21565b915061315c826140fb565b604082019050919050565b6000613174601583613a32565b915061317f8261414a565b601582019050919050565b6000613197600b83613a32565b91506131a282614173565b600b82019050919050565b60006131ba603883613a21565b91506131c58261419c565b604082019050919050565b60006131dd602a83613a21565b91506131e8826141eb565b604082019050919050565b6000613200602983613a21565b915061320b8261423a565b604082019050919050565b6000613223600283613a32565b915061322e82614289565b600282019050919050565b6000613246602083613a21565b9150613251826142b2565b602082019050919050565b6000613269602c83613a21565b9150613274826142db565b604082019050919050565b600061328c602083613a21565b91506132978261432a565b602082019050919050565b60006132af602983613a21565b91506132ba82614353565b604082019050919050565b60006132d2600183613a16565b91506132dd826143a2565b600182019050919050565b60006132f5602183613a21565b9150613300826143cb565b604082019050919050565b6000613318600783613a32565b91506133238261441a565b600782019050919050565b600061333b601983613a21565b915061334682614443565b602082019050919050565b600061335e600083613a16565b91506133698261446c565b600082019050919050565b6000613381603183613a21565b915061338c8261446f565b604082019050919050565b60006133a4601083613a21565b91506133af826144be565b602082019050919050565b60006133c7601383613a21565b91506133d2826144e7565b602082019050919050565b60006133ea601683613a32565b91506133f582614510565b601682019050919050565b61340981613bbc565b82525050565b61341881613bbc565b82525050565b600061342a8284612ecd565b915061343582613216565b915081905092915050565b600061344c8285612efe565b91506134588284612ecd565b91508190509392505050565b600061346f82612fc3565b915061347b8287612ecd565b915061348682613121565b91506134928286612ecd565b915061349d82612fe6565b91506134a98285612ecd565b91506134b482613167565b91506134c08284612ecd565b915081905095945050505050565b60006134d9826132c5565b9150819050919050565b60006134ee8261330b565b91506134fa8284612ecd565b915081905092915050565b600061351082613351565b9150819050919050565b6000613525826133dd565b91506135318285612ecd565b915061353c82612f7d565b9150613547826130b8565b91506135538284612ecd565b915061355e8261318a565b91508190509392505050565b600060208201905061357f6000830184612ddf565b92915050565b600060808201905061359a6000830187612ddf565b6135a76020830186612ddf565b6135b4604083018561340f565b81810360608301526135c68184612e5b565b905095945050505050565b600060208201905081810360008301526135eb8184612dee565b905092915050565b60006020820190506136086000830184612e4c565b92915050565b600060208201905081810360008301526136288184612e5b565b905092915050565b6000602082019050818103600083015261364a8184612e94565b905092915050565b6000602082019050818103600083015261366b81612fa0565b9050919050565b6000602082019050818103600083015261368b81613009565b9050919050565b600060208201905081810360008301526136ab8161302c565b9050919050565b600060208201905081810360008301526136cb8161304f565b9050919050565b600060208201905081810360008301526136eb81613072565b9050919050565b6000602082019050818103600083015261370b81613095565b9050919050565b6000602082019050818103600083015261372b816130db565b9050919050565b6000602082019050818103600083015261374b816130fe565b9050919050565b6000602082019050818103600083015261376b81613144565b9050919050565b6000602082019050818103600083015261378b816131ad565b9050919050565b600060208201905081810360008301526137ab816131d0565b9050919050565b600060208201905081810360008301526137cb816131f3565b9050919050565b600060208201905081810360008301526137eb81613239565b9050919050565b6000602082019050818103600083015261380b8161325c565b9050919050565b6000602082019050818103600083015261382b8161327f565b9050919050565b6000602082019050818103600083015261384b816132a2565b9050919050565b6000602082019050818103600083015261386b816132e8565b9050919050565b6000602082019050818103600083015261388b8161332e565b9050919050565b600060208201905081810360008301526138ab81613374565b9050919050565b600060208201905081810360008301526138cb81613397565b9050919050565b600060208201905081810360008301526138eb816133ba565b9050919050565b6000602082019050613907600083018461340f565b92915050565b6000606082019050613922600083018661340f565b61392f6020830185612ddf565b81810360408301526139418184612e94565b9050949350505050565b6000613955613966565b90506139618282613c64565b919050565b6000604051905090565b600067ffffffffffffffff82111561398b5761398a613d9c565b5b61399482613dcb565b9050602081019050919050565b6000819050602082019050919050565b60008190508160005260206000209050919050565b600081519050919050565b600081519050919050565b600081519050919050565b6000602082019050919050565b600082825260208201905092915050565b600082825260208201905092915050565b600081905092915050565b600082825260208201905092915050565b600081905092915050565b6000613a4882613bbc565b9150613a5383613bbc565b9250827fffffffffffffffffffffffffffffffffffffffffffffffffffffffffffffffff03821115613a8857613a87613d0f565b5b828201905092915050565b6000613a9e82613bbc565b9150613aa983613bbc565b925082613ab957613ab8613d3e565b5b828204905092915050565b6000613acf82613bbc565b9150613ada83613bbc565b9250817fffffffffffffffffffffffffffffffffffffffffffffffffffffffffffffffff0483118215151615613b1357613b12613d0f565b5b828202905092915050565b6000613b2982613bbc565b9150613b3483613bbc565b925082821015613b4757613b46613d0f565b5b828203905092915050565b6000613b5d82613b9c565b9050919050565b60008115159050919050565b60007fffffffff0000000000000000000000000000000000000000000000000000000082169050919050565b600073ffffffffffffffffffffffffffffffffffffffff82169050919050565b6000819050919050565b82818337600083830152505050565b60005b83811015613bf3578082015181840152602081019050613bd8565b83811115613c02576000848401525b50505050565b6000613c1382613bbc565b91506000821415613c2757613c26613d0f565b5b600182039050919050565b60006002820490506001821680613c4a57607f821691505b60208210811415613c5e57613c5d613d6d565b5b50919050565b613c6d82613dcb565b810181811067ffffffffffffffff82111715613c8c57613c8b613d9c565b5b80604052505050565b6000613ca082613bbc565b91507fffffffffffffffffffffffffffffffffffffffffffffffffffffffffffffffff821415613cd357613cd2613d0f565b5b600182019050919050565b6000613ce982613bbc565b9150613cf483613bbc565b925082613d0457613d03613d3e565b5b828206905092915050565b7f4e487b7100000000000000000000000000000000000000000000000000000000600052601160045260246000fd5b7f4e487b7100000000000000000000000000000000000000000000000000000000600052601260045260246000fd5b7f4e487b7100000000000000000000000000000000000000000000000000000000600052602260045260246000fd5b7f4e487b7100000000000000000000000000000000000000000000000000000000600052604160045260246000fd5b6000601f19601f8301169050919050565b7f222c22696d6167655f64617461223a2200000000000000000000000000000000600082015250565b7f537472696e67733a20686578206c656e67746820696e73756666696369656e74600082015250565b7f7b226e616d65223a220000000000000000000000000000000000000000000000600082015250565b7f222c2265787465726e616c5f75726c223a220000000000000000000000000000600082015250565b7f4552433732313a207472616e7366657220746f206e6f6e20455243373231526560008201527f63656976657220696d706c656d656e7465720000000000000000000000000000602082015250565b7f4f776e61626c653a206e6577206f776e657220697320746865207a65726f206160008201527f6464726573730000000000000000000000000000000000000000000000000000602082015250565b7f4552433732313a20746f6b656e20616c7265616479206d696e74656400000000600082015250565b7f554e4b4e4f574e5f494400000000000000000000000000000000000000000000600082015250565b7f676c6f62616c20696e646578206f7574206f6620626f756e6473000000000000600082015250565b7f3c73766720786d6c6e733d27687474703a2f2f7777772e77332e6f72672f323060008201527f30302f737667272077696474683d2733303327206865696768743d273330332760208201527f3e3c696d6167652077696474683d2733303327206865696768743d273330332760408201527f207374796c653d27696d6167652d72656e646572696e673a20706978656c617460608201527f65642720687265663d27646174613a696d6167652f626d703b6261736536342c608082015250565b7f4552433732313a207472616e7366657220746f20746865207a65726f2061646460008201527f7265737300000000000000000000000000000000000000000000000000000000602082015250565b7f4552433732313a20617070726f766520746f2063616c6c657200000000000000600082015250565b7f222c226465736372697074696f6e223a22000000000000000000000000000000600082015250565b7f4552433732313a206f70657261746f7220717565727920666f72206e6f6e657860008201527f697374656e7420746f6b656e0000000000000000000000000000000000000000602082015250565b7f222c2264726177696e675f61646472657373223a220000000000000000000000600082015250565b7f272f3e3c2f7376673e227d000000000000000000000000000000000000000000600082015250565b7f4552433732313a20617070726f76652063616c6c6572206973206e6f74206f7760008201527f6e6572206e6f7220617070726f76656420666f7220616c6c0000000000000000602082015250565b7f4552433732313a2062616c616e636520717565727920666f7220746865207a6560008201527f726f206164647265737300000000000000000000000000000000000000000000602082015250565b7f4552433732313a206f776e657220717565727920666f72206e6f6e657869737460008201527f656e7420746f6b656e0000000000000000000000000000000000000000000000602082015250565b7f227d000000000000000000000000000000000000000000000000000000000000600082015250565b7f4552433732313a206d696e7420746f20746865207a65726f2061646472657373600082015250565b7f4552433732313a20617070726f76656420717565727920666f72206e6f6e657860008201527f697374656e7420746f6b656e0000000000000000000000000000000000000000602082015250565b7f4f776e61626c653a2063616c6c6572206973206e6f7420746865206f776e6572600082015250565b7f4552433732313a207472616e73666572206f6620746f6b656e2074686174206960008201527f73206e6f74206f776e0000000000000000000000000000000000000000000000602082015250565b7fde00000000000000000000000000000000000000000000000000000000000000600082015250565b7f4552433732313a20617070726f76616c20746f2063757272656e74206f776e6560008201527f7200000000000000000000000000000000000000000000000000000000000000602082015250565b7f44424e4654202300000000000000000000000000000000000000000000000000600082015250565b7f6f776e657220696e646578206f7574206f6620626f756e647300000000000000600082015250565b50565b7f4552433732313a207472616e736665722063616c6c6572206973206e6f74206f60008201527f776e6572206e6f7220617070726f766564000000000000000000000000000000602082015250565b7f4445534352495054494f4e5f4641494c00000000000000000000000000000000600082015250565b7f6661696c7572652072656e6465722063616c6c00000000000000000000000000600082015250565b7f646174613a6170706c69636174696f6e2f6a736f6e2c00000000000000000000600082015250565b61454281613b52565b811461454d57600080fd5b50565b61455981613b64565b811461456457600080fd5b50565b61457081613b70565b811461457b57600080fd5b50565b61458781613bbc565b811461459257600080fd5b5056fea2646970667358221220d14431cfe395ad95fcb0cd9e10b9275e2d9dc7cd7c75269b170ee94ab3cf3a3164736f6c63430008040033",
  "linkReferences": {},
  "deployedLinkReferences": {}
}