{
  "_format": "hh-sol-artifact-1",
  "contractName": "DBNCoordinator",
  "sourceName": "contracts/DBNCoordinator.sol",
  "abi": [
    {
      "inputs": [
        {
          "internalType": "string",
          "name": "baseExternalURI",
          "type": "string"
        }
      ],
      "stateMutability": "nonpayable",
      "type": "constructor"
    },
    {
      "anonymous": false,
      "inputs": [
        {
          "indexed": true,
          "internalType": "address",
          "name": "owner",
          "type": "address"
        },
        {
          "indexed": true,
          "internalType": "address",
          "name": "approved",
          "type": "address"
        },
        {
          "indexed": true,
          "internalType": "uint256",
          "name": "tokenId",
          "type": "uint256"
        }
      ],
      "name": "Approval",
      "type": "event"
    },
    {
      "anonymous": false,
      "inputs": [
        {
          "indexed": true,
          "internalType": "address",
          "name": "owner",
          "type": "address"
        },
        {
          "indexed": true,
          "internalType": "address",
          "name": "operator",
          "type": "address"
        },
        {
          "indexed": false,
          "internalType": "bool",
          "name": "approved",
          "type": "bool"
        }
      ],
      "name": "ApprovalForAll",
      "type": "event"
    },
    {
      "anonymous": false,
      "inputs": [
        {
          "indexed": false,
          "internalType": "uint256",
          "name": "tokenId",
          "type": "uint256"
        },
        {
          "indexed": false,
          "internalType": "address",
          "name": "addr",
          "type": "address"
        }
      ],
      "name": "DrawingDeployed",
      "type": "event"
    },
    {
      "anonymous": false,
      "inputs": [
        {
          "indexed": true,
          "internalType": "address",
          "name": "from",
          "type": "address"
        },
        {
          "indexed": true,
          "internalType": "address",
          "name": "to",
          "type": "address"
        },
        {
          "indexed": true,
          "internalType": "uint256",
          "name": "tokenId",
          "type": "uint256"
        }
      ],
      "name": "Transfer",
      "type": "event"
    },
    {
      "inputs": [
        {
          "internalType": "address",
          "name": "to",
          "type": "address"
        },
        {
          "internalType": "uint256",
          "name": "tokenId",
          "type": "uint256"
        }
      ],
      "name": "approve",
      "outputs": [],
      "stateMutability": "nonpayable",
      "type": "function"
    },
    {
      "inputs": [
        {
          "internalType": "address",
          "name": "owner",
          "type": "address"
        }
      ],
      "name": "balanceOf",
      "outputs": [
        {
          "internalType": "uint256",
          "name": "",
          "type": "uint256"
        }
      ],
      "stateMutability": "view",
      "type": "function"
    },
    {
      "inputs": [
        {
          "internalType": "bytes",
          "name": "bytecode",
          "type": "bytes"
        }
      ],
      "name": "deploy",
      "outputs": [
        {
          "internalType": "address",
          "name": "",
          "type": "address"
        }
      ],
      "stateMutability": "nonpayable",
      "type": "function"
    },
    {
      "inputs": [
        {
          "internalType": "uint256",
          "name": "tokenId",
          "type": "uint256"
        }
      ],
      "name": "getApproved",
      "outputs": [
        {
          "internalType": "address",
          "name": "",
          "type": "address"
        }
      ],
      "stateMutability": "view",
      "type": "function"
    },
    {
      "inputs": [
        {
          "internalType": "address",
          "name": "owner",
          "type": "address"
        },
        {
          "internalType": "address",
          "name": "operator",
          "type": "address"
        }
      ],
      "name": "isApprovedForAll",
      "outputs": [
        {
          "internalType": "bool",
          "name": "",
          "type": "bool"
        }
      ],
      "stateMutability": "view",
      "type": "function"
    },
    {
      "inputs": [],
      "name": "name",
      "outputs": [
        {
          "internalType": "string",
          "name": "",
          "type": "string"
        }
      ],
      "stateMutability": "view",
      "type": "function"
    },
    {
      "inputs": [
        {
          "internalType": "uint256",
          "name": "tokenId",
          "type": "uint256"
        }
      ],
      "name": "ownerOf",
      "outputs": [
        {
          "internalType": "address",
          "name": "",
          "type": "address"
        }
      ],
      "stateMutability": "view",
      "type": "function"
    },
    {
      "inputs": [
        {
          "internalType": "address",
          "name": "from",
          "type": "address"
        },
        {
          "internalType": "address",
          "name": "to",
          "type": "address"
        },
        {
          "internalType": "uint256",
          "name": "tokenId",
          "type": "uint256"
        }
      ],
      "name": "safeTransferFrom",
      "outputs": [],
      "stateMutability": "nonpayable",
      "type": "function"
    },
    {
      "inputs": [
        {
          "internalType": "address",
          "name": "from",
          "type": "address"
        },
        {
          "internalType": "address",
          "name": "to",
          "type": "address"
        },
        {
          "internalType": "uint256",
          "name": "tokenId",
          "type": "uint256"
        },
        {
          "internalType": "bytes",
          "name": "_data",
          "type": "bytes"
        }
      ],
      "name": "safeTransferFrom",
      "outputs": [],
      "stateMutability": "nonpayable",
      "type": "function"
    },
    {
      "inputs": [
        {
          "internalType": "address",
          "name": "operator",
          "type": "address"
        },
        {
          "internalType": "bool",
          "name": "approved",
          "type": "bool"
        }
      ],
      "name": "setApprovalForAll",
      "outputs": [],
      "stateMutability": "nonpayable",
      "type": "function"
    },
    {
      "inputs": [
        {
          "internalType": "bytes4",
          "name": "interfaceId",
          "type": "bytes4"
        }
      ],
      "name": "supportsInterface",
      "outputs": [
        {
          "internalType": "bool",
          "name": "",
          "type": "bool"
        }
      ],
      "stateMutability": "view",
      "type": "function"
    },
    {
      "inputs": [],
      "name": "symbol",
      "outputs": [
        {
          "internalType": "string",
          "name": "",
          "type": "string"
        }
      ],
      "stateMutability": "view",
      "type": "function"
    },
    {
      "inputs": [
        {
          "internalType": "uint256",
          "name": "tokenId",
          "type": "uint256"
        }
      ],
      "name": "tokenURI",
      "outputs": [
        {
          "internalType": "string",
          "name": "",
          "type": "string"
        }
      ],
      "stateMutability": "view",
      "type": "function"
    },
    {
      "inputs": [
        {
          "internalType": "address",
          "name": "from",
          "type": "address"
        },
        {
          "internalType": "address",
          "name": "to",
          "type": "address"
        },
        {
          "internalType": "uint256",
          "name": "tokenId",
          "type": "uint256"
        }
      ],
      "name": "transferFrom",
      "outputs": [],
      "stateMutability": "nonpayable",
      "type": "function"
    }
  ],
  "bytecode": "0x60806040523480156200001157600080fd5b506040516200392838038062003928833981810160405281019062000037919062000219565b6040518060400160405280601581526020017f44657369676e204279204e756d62657273204e465400000000000000000000008152506040518060400160405280600581526020017f44424e46540000000000000000000000000000000000000000000000000000008152508160009080519060200190620000bb929190620000f7565b508060019080519060200190620000d4929190620000f7565b5050508060089080519060200190620000ef929190620000f7565b5050620003ce565b8280546200010590620002f3565b90600052602060002090601f01602090048101928262000129576000855562000175565b82601f106200014457805160ff191683800117855562000175565b8280016001018555821562000175579182015b828111156200017457825182559160200191906001019062000157565b5b50905062000184919062000188565b5090565b5b80821115620001a357600081600090555060010162000189565b5090565b6000620001be620001b88462000287565b6200025e565b905082815260208101848484011115620001d757600080fd5b620001e4848285620002bd565b509392505050565b600082601f830112620001fe57600080fd5b815162000210848260208601620001a7565b91505092915050565b6000602082840312156200022c57600080fd5b600082015167ffffffffffffffff8111156200024757600080fd5b6200025584828501620001ec565b91505092915050565b60006200026a6200027d565b905062000278828262000329565b919050565b6000604051905090565b600067ffffffffffffffff821115620002a557620002a46200038e565b5b620002b082620003bd565b9050602081019050919050565b60005b83811015620002dd578082015181840152602081019050620002c0565b83811115620002ed576000848401525b50505050565b600060028204905060018216806200030c57607f821691505b602082108114156200032357620003226200035f565b5b50919050565b6200033482620003bd565b810181811067ffffffffffffffff821117156200035657620003556200038e565b5b80604052505050565b7f4e487b7100000000000000000000000000000000000000000000000000000000600052602260045260246000fd5b7f4e487b7100000000000000000000000000000000000000000000000000000000600052604160045260246000fd5b6000601f19601f8301169050919050565b61354a80620003de6000396000f3fe608060405234801561001057600080fd5b50600436106100e95760003560e01c80636352211e1161008c578063a22cb46511610066578063a22cb4651461026e578063b88d4fde1461028a578063c87b56dd146102a6578063e985e9c5146102d6576100e9565b80636352211e146101f057806370a082311461022057806395d89b4114610250576100e9565b8063081812fc116100c8578063081812fc1461016c578063095ea7b31461019c57806323b872dd146101b857806342842e0e146101d4576100e9565b8062774360146100ee57806301ffc9a71461011e57806306fdde031461014e575b600080fd5b6101086004803603810190610103919061220a565b610306565b6040516101159190612821565b60405180910390f35b610138600480360381019061013391906121b8565b61042f565b6040516101459190612888565b60405180910390f35b610156610511565b60405161016391906128a3565b60405180910390f35b6101866004803603810190610181919061224b565b6105a3565b6040516101939190612821565b60405180910390f35b6101b660048036038101906101b1919061217c565b610628565b005b6101d260048036038101906101cd9190612076565b610740565b005b6101ee60048036038101906101e99190612076565b6107a0565b005b61020a6004803603810190610205919061224b565b6107c0565b6040516102179190612821565b60405180910390f35b61023a60048036038101906102359190612011565b610872565b6040516102479190612ac5565b60405180910390f35b61025861092a565b60405161026591906128a3565b60405180910390f35b61028860048036038101906102839190612140565b6109bc565b005b6102a4600480360381019061029f91906120c5565b610b3d565b005b6102c060048036038101906102bb919061224b565b610b9f565b6040516102cd91906128a3565b60405180910390f35b6102f060048036038101906102eb919061203a565b610c78565b6040516102fd9190612888565b60405180910390f35b6000808251602084016000f09050600073ffffffffffffffffffffffffffffffffffffffff168173ffffffffffffffffffffffffffffffffffffffff161415610378577f4e487b7100000000000000000000000000000000000000000000000000000000600052600160045260246000fd5b60006103846006610d0c565b90506103906006610d1a565b816007600083815260200190815260200160002060006101000a81548173ffffffffffffffffffffffffffffffffffffffff021916908373ffffffffffffffffffffffffffffffffffffffff1602179055506103ec3382610d30565b7f21e0b8ae7b9adb30510daec00a316f870d63381fcd7b9163383c626783889989818360405161041d929190612ae0565b60405180910390a18192505050919050565b60007f80ac58cd000000000000000000000000000000000000000000000000000000007bffffffffffffffffffffffffffffffffffffffffffffffffffffffff1916827bffffffffffffffffffffffffffffffffffffffffffffffffffffffff191614806104fa57507f5b5e139f000000000000000000000000000000000000000000000000000000007bffffffffffffffffffffffffffffffffffffffffffffffffffffffff1916827bffffffffffffffffffffffffffffffffffffffffffffffffffffffff1916145b8061050a575061050982610d4e565b5b9050919050565b60606000805461052090612db7565b80601f016020809104026020016040519081016040528092919081815260200182805461054c90612db7565b80156105995780601f1061056e57610100808354040283529160200191610599565b820191906000526020600020905b81548152906001019060200180831161057c57829003601f168201915b5050505050905090565b60006105ae82610db8565b6105ed576040517f08c379a00000000000000000000000000000000000000000000000000000000081526004016105e490612a25565b60405180910390fd5b6004600083815260200190815260200160002060009054906101000a900473ffffffffffffffffffffffffffffffffffffffff169050919050565b6000610633826107c0565b90508073ffffffffffffffffffffffffffffffffffffffff168373ffffffffffffffffffffffffffffffffffffffff1614156106a4576040517f08c379a000000000000000000000000000000000000000000000000000000000815260040161069b90612a65565b60405180910390fd5b8073ffffffffffffffffffffffffffffffffffffffff166106c3610e24565b73ffffffffffffffffffffffffffffffffffffffff1614806106f257506106f1816106ec610e24565b610c78565b5b610731576040517f08c379a0000000000000000000000000000000000000000000000000000000008152600401610728906129a5565b60405180910390fd5b61073b8383610e2c565b505050565b61075161074b610e24565b82610ee5565b610790576040517f08c379a000000000000000000000000000000000000000000000000000000000815260040161078790612a85565b60405180910390fd5b61079b838383610fc3565b505050565b6107bb83838360405180602001604052806000815250610b3d565b505050565b6000806002600084815260200190815260200160002060009054906101000a900473ffffffffffffffffffffffffffffffffffffffff169050600073ffffffffffffffffffffffffffffffffffffffff168173ffffffffffffffffffffffffffffffffffffffff161415610869576040517f08c379a0000000000000000000000000000000000000000000000000000000008152600401610860906129e5565b60405180910390fd5b80915050919050565b60008073ffffffffffffffffffffffffffffffffffffffff168273ffffffffffffffffffffffffffffffffffffffff1614156108e3576040517f08c379a00000000000000000000000000000000000000000000000000000000081526004016108da906129c5565b60405180910390fd5b600360008373ffffffffffffffffffffffffffffffffffffffff1673ffffffffffffffffffffffffffffffffffffffff168152602001908152602001600020549050919050565b60606001805461093990612db7565b80601f016020809104026020016040519081016040528092919081815260200182805461096590612db7565b80156109b25780601f10610987576101008083540402835291602001916109b2565b820191906000526020600020905b81548152906001019060200180831161099557829003601f168201915b5050505050905090565b6109c4610e24565b73ffffffffffffffffffffffffffffffffffffffff168273ffffffffffffffffffffffffffffffffffffffff161415610a32576040517f08c379a0000000000000000000000000000000000000000000000000000000008152600401610a2990612965565b60405180910390fd5b8060056000610a3f610e24565b73ffffffffffffffffffffffffffffffffffffffff1673ffffffffffffffffffffffffffffffffffffffff16815260200190815260200160002060008473ffffffffffffffffffffffffffffffffffffffff1673ffffffffffffffffffffffffffffffffffffffff16815260200190815260200160002060006101000a81548160ff0219169083151502179055508173ffffffffffffffffffffffffffffffffffffffff16610aec610e24565b73ffffffffffffffffffffffffffffffffffffffff167f17307eab39ab6107e8899845ad3d59bd9653f200f220920489ca2b5937696c3183604051610b319190612888565b60405180910390a35050565b610b4e610b48610e24565b83610ee5565b610b8d576040517f08c379a0000000000000000000000000000000000000000000000000000000008152600401610b8490612a85565b60405180910390fd5b610b998484848461121f565b50505050565b606060006007600084815260200190815260200160002060009054906101000a900473ffffffffffffffffffffffffffffffffffffffff169050600073ffffffffffffffffffffffffffffffffffffffff168173ffffffffffffffffffffffffffffffffffffffff161415610c49576040517f08c379a0000000000000000000000000000000000000000000000000000000008152600401610c4090612925565b60405180910390fd5b6000610c548261127b565b90506000610c628584611332565b9050610c6e82826113df565b9350505050919050565b6000600560008473ffffffffffffffffffffffffffffffffffffffff1673ffffffffffffffffffffffffffffffffffffffff16815260200190815260200160002060008373ffffffffffffffffffffffffffffffffffffffff1673ffffffffffffffffffffffffffffffffffffffff16815260200190815260200160002060009054906101000a900460ff16905092915050565b600081600001549050919050565b6001816000016000828254019250508190555050565b610d4a828260405180602001604052806000815250611429565b5050565b60007f01ffc9a7000000000000000000000000000000000000000000000000000000007bffffffffffffffffffffffffffffffffffffffffffffffffffffffff1916827bffffffffffffffffffffffffffffffffffffffffffffffffffffffff1916149050919050565b60008073ffffffffffffffffffffffffffffffffffffffff166002600084815260200190815260200160002060009054906101000a900473ffffffffffffffffffffffffffffffffffffffff1673ffffffffffffffffffffffffffffffffffffffff1614159050919050565b600033905090565b816004600083815260200190815260200160002060006101000a81548173ffffffffffffffffffffffffffffffffffffffff021916908373ffffffffffffffffffffffffffffffffffffffff160217905550808273ffffffffffffffffffffffffffffffffffffffff16610e9f836107c0565b73ffffffffffffffffffffffffffffffffffffffff167f8c5be1e5ebec7d5bd14f71427d1e84f3dd0314c0f7b2291e5b200ac8c7c3b92560405160405180910390a45050565b6000610ef082610db8565b610f2f576040517f08c379a0000000000000000000000000000000000000000000000000000000008152600401610f2690612985565b60405180910390fd5b6000610f3a836107c0565b90508073ffffffffffffffffffffffffffffffffffffffff168473ffffffffffffffffffffffffffffffffffffffff161480610fa957508373ffffffffffffffffffffffffffffffffffffffff16610f91846105a3565b73ffffffffffffffffffffffffffffffffffffffff16145b80610fba5750610fb98185610c78565b5b91505092915050565b8273ffffffffffffffffffffffffffffffffffffffff16610fe3826107c0565b73ffffffffffffffffffffffffffffffffffffffff1614611039576040517f08c379a000000000000000000000000000000000000000000000000000000000815260040161103090612a45565b60405180910390fd5b600073ffffffffffffffffffffffffffffffffffffffff168273ffffffffffffffffffffffffffffffffffffffff1614156110a9576040517f08c379a00000000000000000000000000000000000000000000000000000000081526004016110a090612945565b60405180910390fd5b6110b4838383611484565b6110bf600082610e2c565b6001600360008573ffffffffffffffffffffffffffffffffffffffff1673ffffffffffffffffffffffffffffffffffffffff168152602001908152602001600020600082825461110f9190612ca3565b925050819055506001600360008473ffffffffffffffffffffffffffffffffffffffff1673ffffffffffffffffffffffffffffffffffffffff16815260200190815260200160002060008282546111669190612bc2565b92505081905550816002600083815260200190815260200160002060006101000a81548173ffffffffffffffffffffffffffffffffffffffff021916908373ffffffffffffffffffffffffffffffffffffffff160217905550808273ffffffffffffffffffffffffffffffffffffffff168473ffffffffffffffffffffffffffffffffffffffff167fddf252ad1be2c89b69c2b068fc378daa952ba7f163c4a11628f55a4df523b3ef60405160405180910390a4505050565b61122a848484610fc3565b61123684848484611489565b611275576040517f08c379a000000000000000000000000000000000000000000000000000000000815260040161126c906128e5565b60405180910390fd5b50505050565b60606000808373ffffffffffffffffffffffffffffffffffffffff166040516112a39061280c565b600060405180830381855afa9150503d80600081146112de576040519150601f19603f3d011682016040523d82523d6000602084013e6112e3565b606091505b509150915081611328576040517f08c379a000000000000000000000000000000000000000000000000000000000815260040161131f90612aa5565b60405180910390fd5b8092505050919050565b61133a611f18565b600061134584611620565b905060405180608001604052808260405160200161136391906127ea565b60405160208183030381529060405281526020016040518060200160405280600081525081526020016008836040516020016113a092919061272e565b60405160208183030381529060405281526020016113d38573ffffffffffffffffffffffffffffffffffffffff166117cd565b81525091505092915050565b606081600001518260200151836040015184606001516113fe87611853565b604051602001611412959493929190612752565b604051602081830303815290604052905092915050565b6114338383611a0f565b6114406000848484611489565b61147f576040517f08c379a0000000000000000000000000000000000000000000000000000000008152600401611476906128e5565b60405180910390fd5b505050565b505050565b60006114aa8473ffffffffffffffffffffffffffffffffffffffff16611bdd565b15611613578373ffffffffffffffffffffffffffffffffffffffff1663150b7a026114d3610e24565b8786866040518563ffffffff1660e01b81526004016114f5949392919061283c565b602060405180830381600087803b15801561150f57600080fd5b505af192505050801561154057506040513d601f19601f8201168201806040525081019061153d91906121e1565b60015b6115c3573d8060008114611570576040519150601f19603f3d011682016040523d82523d6000602084013e611575565b606091505b506000815114156115bb576040517f08c379a00000000000000000000000000000000000000000000000000000000081526004016115b2906128e5565b60405180910390fd5b805181602001fd5b63150b7a0260e01b7bffffffffffffffffffffffffffffffffffffffffffffffffffffffff1916817bffffffffffffffffffffffffffffffffffffffffffffffffffffffff191614915050611618565b600190505b949350505050565b60606000821415611668576040518060400160405280600181526020017f300000000000000000000000000000000000000000000000000000000000000081525090506117c8565b600082905060005b6000821461169a57808061168390612e1a565b915050600a826116939190612c18565b9150611670565b60008167ffffffffffffffff8111156116dc577f4e487b7100000000000000000000000000000000000000000000000000000000600052604160045260246000fd5b6040519080825280601f01601f19166020018201604052801561170e5781602001600182028036833780820191505090505b5090505b600085146117c1576001826117279190612ca3565b9150600a856117369190612e63565b60306117429190612bc2565b60f81b81838151811061177e577f4e487b7100000000000000000000000000000000000000000000000000000000600052603260045260246000fd5b60200101907effffffffffffffffffffffffffffffffffffffffffffffffffffffffffffff1916908160001a905350600a856117ba9190612c18565b9450611712565b8093505050505b919050565b60606000821415611815576040518060400160405280600481526020017f3078303000000000000000000000000000000000000000000000000000000000815250905061184e565b600082905060005b6000821461183f57808061183090612e1a565b915050600882901c915061181d565b6118498482611bf0565b925050505b919050565b606060008251141561186757819050611a0a565b60007f4142434445464748494a4b4c4d4e4f505152535455565758595a616263646566905060007f6768696a6b6c6d6e6f707172737475767778797a303132333435363738392b2f905060006118bd8551611eea565b67ffffffffffffffff8111156118fc577f4e487b7100000000000000000000000000000000000000000000000000000000600052604160045260246000fd5b6040519080825280601f01601f19166020018201604052801561192e5781602001600182028036833780820191505090505b50905060008551905060208601602083015b60008311156119d057815160101c601e60f0601e86101561197e578591508286601e0360031b1c925060066004870983811b9350808760031b019150505b818603955081850194505b60008111156119c85760068103905082603f821b16811c89601f8211156119b4578990506020820391505b80821a808753600187019650505050611989565b505050611940565b6003885106600181146119ea57600281146119fa576119ff565b603d8253603d82600101536119ff565b603d82535b505050819450505050505b919050565b600073ffffffffffffffffffffffffffffffffffffffff168273ffffffffffffffffffffffffffffffffffffffff161415611a7f576040517f08c379a0000000000000000000000000000000000000000000000000000000008152600401611a7690612a05565b60405180910390fd5b611a8881610db8565b15611ac8576040517f08c379a0000000000000000000000000000000000000000000000000000000008152600401611abf90612905565b60405180910390fd5b611ad460008383611484565b6001600360008473ffffffffffffffffffffffffffffffffffffffff1673ffffffffffffffffffffffffffffffffffffffff1681526020019081526020016000206000828254611b249190612bc2565b92505081905550816002600083815260200190815260200160002060006101000a81548173ffffffffffffffffffffffffffffffffffffffff021916908373ffffffffffffffffffffffffffffffffffffffff160217905550808273ffffffffffffffffffffffffffffffffffffffff16600073ffffffffffffffffffffffffffffffffffffffff167fddf252ad1be2c89b69c2b068fc378daa952ba7f163c4a11628f55a4df523b3ef60405160405180910390a45050565b600080823b905060008111915050919050565b606060006002836002611c039190612c49565b611c0d9190612bc2565b67ffffffffffffffff811115611c4c577f4e487b7100000000000000000000000000000000000000000000000000000000600052604160045260246000fd5b6040519080825280601f01601f191660200182016040528015611c7e5781602001600182028036833780820191505090505b5090507f300000000000000000000000000000000000000000000000000000000000000081600081518110611cdc577f4e487b7100000000000000000000000000000000000000000000000000000000600052603260045260246000fd5b60200101907effffffffffffffffffffffffffffffffffffffffffffffffffffffffffffff1916908160001a9053507f780000000000000000000000000000000000000000000000000000000000000081600181518110611d66577f4e487b7100000000000000000000000000000000000000000000000000000000600052603260045260246000fd5b60200101907effffffffffffffffffffffffffffffffffffffffffffffffffffffffffffff1916908160001a90535060006001846002611da69190612c49565b611db09190612bc2565b90505b6001811115611e9c577f3031323334353637383961626364656600000000000000000000000000000000600f861660108110611e18577f4e487b7100000000000000000000000000000000000000000000000000000000600052603260045260246000fd5b1a60f81b828281518110611e55577f4e487b7100000000000000000000000000000000000000000000000000000000600052603260045260246000fd5b60200101907effffffffffffffffffffffffffffffffffffffffffffffffffffffffffffff1916908160001a905350600485901c945080611e9590612d8d565b9050611db3565b5060008414611ee0576040517f08c379a0000000000000000000000000000000000000000000000000000000008152600401611ed7906128c5565b60405180910390fd5b8091505092915050565b600060046003600284611efd9190612bc2565b611f079190612c18565b611f119190612c49565b9050919050565b6040518060800160405280606081526020016060815260200160608152602001606081525090565b6000611f53611f4e84612b2e565b612b09565b905082815260208101848484011115611f6b57600080fd5b611f76848285612d4b565b509392505050565b600081359050611f8d816134b8565b92915050565b600081359050611fa2816134cf565b92915050565b600081359050611fb7816134e6565b92915050565b600081519050611fcc816134e6565b92915050565b600082601f830112611fe357600080fd5b8135611ff3848260208601611f40565b91505092915050565b60008135905061200b816134fd565b92915050565b60006020828403121561202357600080fd5b600061203184828501611f7e565b91505092915050565b6000806040838503121561204d57600080fd5b600061205b85828601611f7e565b925050602061206c85828601611f7e565b9150509250929050565b60008060006060848603121561208b57600080fd5b600061209986828701611f7e565b93505060206120aa86828701611f7e565b92505060406120bb86828701611ffc565b9150509250925092565b600080600080608085870312156120db57600080fd5b60006120e987828801611f7e565b94505060206120fa87828801611f7e565b935050604061210b87828801611ffc565b925050606085013567ffffffffffffffff81111561212857600080fd5b61213487828801611fd2565b91505092959194509250565b6000806040838503121561215357600080fd5b600061216185828601611f7e565b925050602061217285828601611f93565b9150509250929050565b6000806040838503121561218f57600080fd5b600061219d85828601611f7e565b92505060206121ae85828601611ffc565b9150509250929050565b6000602082840312156121ca57600080fd5b60006121d884828501611fa8565b91505092915050565b6000602082840312156121f357600080fd5b600061220184828501611fbd565b91505092915050565b60006020828403121561221c57600080fd5b600082013567ffffffffffffffff81111561223657600080fd5b61224284828501611fd2565b91505092915050565b60006020828403121561225d57600080fd5b600061226b84828501611ffc565b91505092915050565b61227d81612cd7565b82525050565b61228c81612ce9565b82525050565b600061229d82612b74565b6122a78185612b8a565b93506122b7818560208601612d5a565b6122c081612f50565b840191505092915050565b60006122d682612b7f565b6122e08185612ba6565b93506122f0818560208601612d5a565b6122f981612f50565b840191505092915050565b600061230f82612b7f565b6123198185612bb7565b9350612329818560208601612d5a565b80840191505092915050565b6000815461234281612db7565b61234c8186612bb7565b945060018216600081146123675760018114612378576123ab565b60ff198316865281860193506123ab565b61238185612b5f565b60005b838110156123a357815481890152600182019150602081019050612384565b838801955050505b50505092915050565b60006123c1602083612ba6565b91506123cc82612f61565b602082019050919050565b60006123e4601283612bb7565b91506123ef82612f8a565b601282019050919050565b6000612407603283612ba6565b915061241282612fb3565b604082019050919050565b600061242a601c83612ba6565b915061243582613002565b602082019050919050565b600061244d600a83612ba6565b91506124588261302b565b602082019050919050565b6000612470602483612ba6565b915061247b82613054565b604082019050919050565b6000612493601983612ba6565b915061249e826130a3565b602082019050919050565b60006124b6601183612bb7565b91506124c1826130cc565b601182019050919050565b60006124d9602c83612ba6565b91506124e4826130f5565b604082019050919050565b60006124fc600a83612bb7565b915061250782613144565b600a82019050919050565b600061251f601f83612bb7565b915061252a8261316d565b601f82019050919050565b6000612542601583612bb7565b915061254d82613196565b601582019050919050565b6000612565603883612ba6565b9150612570826131bf565b604082019050919050565b6000612588602a83612ba6565b91506125938261320e565b604082019050919050565b60006125ab602983612ba6565b91506125b68261325d565b604082019050919050565b60006125ce600283612bb7565b91506125d9826132ac565b600282019050919050565b60006125f1602083612ba6565b91506125fc826132d5565b602082019050919050565b6000612614602c83612ba6565b915061261f826132fe565b604082019050919050565b6000612637602983612ba6565b91506126428261334d565b604082019050919050565b600061265a602183612ba6565b91506126658261339c565b604082019050919050565b600061267d600783612bb7565b9150612688826133eb565b600782019050919050565b60006126a0600083612b9b565b91506126ab82613414565b600082019050919050565b60006126c3603183612ba6565b91506126ce82613417565b604082019050919050565b60006126e6601683612bb7565b91506126f182613466565b601682019050919050565b6000612709601383612ba6565b91506127148261348f565b602082019050919050565b61272881612d41565b82525050565b600061273a8285612335565b91506127468284612304565b91508190509392505050565b600061275d82612512565b91506127698288612304565b9150612774826124a9565b91506127808287612304565b915061278b826123d7565b91506127978286612304565b91506127a282612535565b91506127ae8285612304565b91506127b9826124ef565b91506127c4826126d9565b91506127d08284612304565b91506127db826125c1565b91508190509695505050505050565b60006127f582612670565b91506128018284612304565b915081905092915050565b600061281782612693565b9150819050919050565b60006020820190506128366000830184612274565b92915050565b60006080820190506128516000830187612274565b61285e6020830186612274565b61286b604083018561271f565b818103606083015261287d8184612292565b905095945050505050565b600060208201905061289d6000830184612283565b92915050565b600060208201905081810360008301526128bd81846122cb565b905092915050565b600060208201905081810360008301526128de816123b4565b9050919050565b600060208201905081810360008301526128fe816123fa565b9050919050565b6000602082019050818103600083015261291e8161241d565b9050919050565b6000602082019050818103600083015261293e81612440565b9050919050565b6000602082019050818103600083015261295e81612463565b9050919050565b6000602082019050818103600083015261297e81612486565b9050919050565b6000602082019050818103600083015261299e816124cc565b9050919050565b600060208201905081810360008301526129be81612558565b9050919050565b600060208201905081810360008301526129de8161257b565b9050919050565b600060208201905081810360008301526129fe8161259e565b9050919050565b60006020820190508181036000830152612a1e816125e4565b9050919050565b60006020820190508181036000830152612a3e81612607565b9050919050565b60006020820190508181036000830152612a5e8161262a565b9050919050565b60006020820190508181036000830152612a7e8161264d565b9050919050565b60006020820190508181036000830152612a9e816126b6565b9050919050565b60006020820190508181036000830152612abe816126fc565b9050919050565b6000602082019050612ada600083018461271f565b92915050565b6000604082019050612af5600083018561271f565b612b026020830184612274565b9392505050565b6000612b13612b24565b9050612b1f8282612de9565b919050565b6000604051905090565b600067ffffffffffffffff821115612b4957612b48612f21565b5b612b5282612f50565b9050602081019050919050565b60008190508160005260206000209050919050565b600081519050919050565b600081519050919050565b600082825260208201905092915050565b600081905092915050565b600082825260208201905092915050565b600081905092915050565b6000612bcd82612d41565b9150612bd883612d41565b9250827fffffffffffffffffffffffffffffffffffffffffffffffffffffffffffffffff03821115612c0d57612c0c612e94565b5b828201905092915050565b6000612c2382612d41565b9150612c2e83612d41565b925082612c3e57612c3d612ec3565b5b828204905092915050565b6000612c5482612d41565b9150612c5f83612d41565b9250817fffffffffffffffffffffffffffffffffffffffffffffffffffffffffffffffff0483118215151615612c9857612c97612e94565b5b828202905092915050565b6000612cae82612d41565b9150612cb983612d41565b925082821015612ccc57612ccb612e94565b5b828203905092915050565b6000612ce282612d21565b9050919050565b60008115159050919050565b60007fffffffff0000000000000000000000000000000000000000000000000000000082169050919050565b600073ffffffffffffffffffffffffffffffffffffffff82169050919050565b6000819050919050565b82818337600083830152505050565b60005b83811015612d78578082015181840152602081019050612d5d565b83811115612d87576000848401525b50505050565b6000612d9882612d41565b91506000821415612dac57612dab612e94565b5b600182039050919050565b60006002820490506001821680612dcf57607f821691505b60208210811415612de357612de2612ef2565b5b50919050565b612df282612f50565b810181811067ffffffffffffffff82111715612e1157612e10612f21565b5b80604052505050565b6000612e2582612d41565b91507fffffffffffffffffffffffffffffffffffffffffffffffffffffffffffffffff821415612e5857612e57612e94565b5b600182019050919050565b6000612e6e82612d41565b9150612e7983612d41565b925082612e8957612e88612ec3565b5b828206905092915050565b7f4e487b7100000000000000000000000000000000000000000000000000000000600052601160045260246000fd5b7f4e487b7100000000000000000000000000000000000000000000000000000000600052601260045260246000fd5b7f4e487b7100000000000000000000000000000000000000000000000000000000600052602260045260246000fd5b7f4e487b7100000000000000000000000000000000000000000000000000000000600052604160045260246000fd5b6000601f19601f8301169050919050565b7f537472696e67733a20686578206c656e67746820696e73756666696369656e74600082015250565b7f222c2265787465726e616c5f75726c223a220000000000000000000000000000600082015250565b7f4552433732313a207472616e7366657220746f206e6f6e20455243373231526560008201527f63656976657220696d706c656d656e7465720000000000000000000000000000602082015250565b7f4552433732313a20746f6b656e20616c7265616479206d696e74656400000000600082015250565b7f554e4b4e4f574e5f494400000000000000000000000000000000000000000000600082015250565b7f4552433732313a207472616e7366657220746f20746865207a65726f2061646460008201527f7265737300000000000000000000000000000000000000000000000000000000602082015250565b7f4552433732313a20617070726f766520746f2063616c6c657200000000000000600082015250565b7f222c226465736372697074696f6e223a22000000000000000000000000000000600082015250565b7f4552433732313a206f70657261746f7220717565727920666f72206e6f6e657860008201527f697374656e7420746f6b656e0000000000000000000000000000000000000000602082015250565b7f2c22696d616765223a2200000000000000000000000000000000000000000000600082015250565b7f646174613a6170706c69636174696f6e2f6a736f6e2c7b226e616d65223a2200600082015250565b7f222c2264726177696e675f61646472657373223a220000000000000000000000600082015250565b7f4552433732313a20617070726f76652063616c6c6572206973206e6f74206f7760008201527f6e6572206e6f7220617070726f76656420666f7220616c6c0000000000000000602082015250565b7f4552433732313a2062616c616e636520717565727920666f7220746865207a6560008201527f726f206164647265737300000000000000000000000000000000000000000000602082015250565b7f4552433732313a206f776e657220717565727920666f72206e6f6e657869737460008201527f656e7420746f6b656e0000000000000000000000000000000000000000000000602082015250565b7f227d000000000000000000000000000000000000000000000000000000000000600082015250565b7f4552433732313a206d696e7420746f20746865207a65726f2061646472657373600082015250565b7f4552433732313a20617070726f76656420717565727920666f72206e6f6e657860008201527f697374656e7420746f6b656e0000000000000000000000000000000000000000602082015250565b7f4552433732313a207472616e73666572206f6620746f6b656e2074686174206960008201527f73206e6f74206f776e0000000000000000000000000000000000000000000000602082015250565b7f4552433732313a20617070726f76616c20746f2063757272656e74206f776e6560008201527f7200000000000000000000000000000000000000000000000000000000000000602082015250565b7f44424e4654202300000000000000000000000000000000000000000000000000600082015250565b50565b7f4552433732313a207472616e736665722063616c6c6572206973206e6f74206f60008201527f776e6572206e6f7220617070726f766564000000000000000000000000000000602082015250565b7f646174613a696d6167652f626d703b6261736536342c00000000000000000000600082015250565b7f6661696c7572652072656e6465722063616c6c00000000000000000000000000600082015250565b6134c181612cd7565b81146134cc57600080fd5b50565b6134d881612ce9565b81146134e357600080fd5b50565b6134ef81612cf5565b81146134fa57600080fd5b50565b61350681612d41565b811461351157600080fd5b5056fea2646970667358221220e2e7a225ae42de79983a9de169c96e542e4c6d5db2613c5f9e78f897ac0d742e64736f6c63430008040033",
  "linkReferences": {},
  "deployedLinkReferences": {}
}