{
  "_format": "hh-sol-artifact-1",
  "contractName": "DBNCoordinator",
  "sourceName": "contracts/DBNCoordinator.sol",
  "abi": [
    {
      "inputs": [
        {
          "internalType": "string",
          "name": "baseExternalURI",
          "type": "string"
        }
      ],
      "stateMutability": "nonpayable",
      "type": "constructor"
    },
    {
      "anonymous": false,
      "inputs": [
        {
          "indexed": true,
          "internalType": "address",
          "name": "owner",
          "type": "address"
        },
        {
          "indexed": true,
          "internalType": "address",
          "name": "approved",
          "type": "address"
        },
        {
          "indexed": true,
          "internalType": "uint256",
          "name": "tokenId",
          "type": "uint256"
        }
      ],
      "name": "Approval",
      "type": "event"
    },
    {
      "anonymous": false,
      "inputs": [
        {
          "indexed": true,
          "internalType": "address",
          "name": "owner",
          "type": "address"
        },
        {
          "indexed": true,
          "internalType": "address",
          "name": "operator",
          "type": "address"
        },
        {
          "indexed": false,
          "internalType": "bool",
          "name": "approved",
          "type": "bool"
        }
      ],
      "name": "ApprovalForAll",
      "type": "event"
    },
    {
      "anonymous": false,
      "inputs": [
        {
          "indexed": false,
          "internalType": "uint256",
          "name": "tokenId",
          "type": "uint256"
        },
        {
          "indexed": false,
          "internalType": "address",
          "name": "addr",
          "type": "address"
        },
        {
          "indexed": false,
          "internalType": "string",
          "name": "externalURL",
          "type": "string"
        }
      ],
      "name": "DrawingDeployed",
      "type": "event"
    },
    {
      "anonymous": false,
      "inputs": [
        {
          "indexed": true,
          "internalType": "address",
          "name": "from",
          "type": "address"
        },
        {
          "indexed": true,
          "internalType": "address",
          "name": "to",
          "type": "address"
        },
        {
          "indexed": true,
          "internalType": "uint256",
          "name": "tokenId",
          "type": "uint256"
        }
      ],
      "name": "Transfer",
      "type": "event"
    },
    {
      "inputs": [
        {
          "internalType": "address",
          "name": "to",
          "type": "address"
        },
        {
          "internalType": "uint256",
          "name": "tokenId",
          "type": "uint256"
        }
      ],
      "name": "approve",
      "outputs": [],
      "stateMutability": "nonpayable",
      "type": "function"
    },
    {
      "inputs": [
        {
          "internalType": "address",
          "name": "owner",
          "type": "address"
        }
      ],
      "name": "balanceOf",
      "outputs": [
        {
          "internalType": "uint256",
          "name": "",
          "type": "uint256"
        }
      ],
      "stateMutability": "view",
      "type": "function"
    },
    {
      "inputs": [
        {
          "internalType": "bytes",
          "name": "bytecode",
          "type": "bytes"
        }
      ],
      "name": "deploy",
      "outputs": [
        {
          "internalType": "address",
          "name": "",
          "type": "address"
        }
      ],
      "stateMutability": "nonpayable",
      "type": "function"
    },
    {
      "inputs": [
        {
          "internalType": "uint256",
          "name": "tokenId",
          "type": "uint256"
        }
      ],
      "name": "getApproved",
      "outputs": [
        {
          "internalType": "address",
          "name": "",
          "type": "address"
        }
      ],
      "stateMutability": "view",
      "type": "function"
    },
    {
      "inputs": [
        {
          "internalType": "address",
          "name": "owner",
          "type": "address"
        },
        {
          "internalType": "address",
          "name": "operator",
          "type": "address"
        }
      ],
      "name": "isApprovedForAll",
      "outputs": [
        {
          "internalType": "bool",
          "name": "",
          "type": "bool"
        }
      ],
      "stateMutability": "view",
      "type": "function"
    },
    {
      "inputs": [],
      "name": "name",
      "outputs": [
        {
          "internalType": "string",
          "name": "",
          "type": "string"
        }
      ],
      "stateMutability": "view",
      "type": "function"
    },
    {
      "inputs": [
        {
          "internalType": "uint256",
          "name": "tokenId",
          "type": "uint256"
        }
      ],
      "name": "ownerOf",
      "outputs": [
        {
          "internalType": "address",
          "name": "",
          "type": "address"
        }
      ],
      "stateMutability": "view",
      "type": "function"
    },
    {
      "inputs": [
        {
          "internalType": "address",
          "name": "from",
          "type": "address"
        },
        {
          "internalType": "address",
          "name": "to",
          "type": "address"
        },
        {
          "internalType": "uint256",
          "name": "tokenId",
          "type": "uint256"
        }
      ],
      "name": "safeTransferFrom",
      "outputs": [],
      "stateMutability": "nonpayable",
      "type": "function"
    },
    {
      "inputs": [
        {
          "internalType": "address",
          "name": "from",
          "type": "address"
        },
        {
          "internalType": "address",
          "name": "to",
          "type": "address"
        },
        {
          "internalType": "uint256",
          "name": "tokenId",
          "type": "uint256"
        },
        {
          "internalType": "bytes",
          "name": "_data",
          "type": "bytes"
        }
      ],
      "name": "safeTransferFrom",
      "outputs": [],
      "stateMutability": "nonpayable",
      "type": "function"
    },
    {
      "inputs": [
        {
          "internalType": "address",
          "name": "operator",
          "type": "address"
        },
        {
          "internalType": "bool",
          "name": "approved",
          "type": "bool"
        }
      ],
      "name": "setApprovalForAll",
      "outputs": [],
      "stateMutability": "nonpayable",
      "type": "function"
    },
    {
      "inputs": [
        {
          "internalType": "bytes4",
          "name": "interfaceId",
          "type": "bytes4"
        }
      ],
      "name": "supportsInterface",
      "outputs": [
        {
          "internalType": "bool",
          "name": "",
          "type": "bool"
        }
      ],
      "stateMutability": "view",
      "type": "function"
    },
    {
      "inputs": [],
      "name": "symbol",
      "outputs": [
        {
          "internalType": "string",
          "name": "",
          "type": "string"
        }
      ],
      "stateMutability": "view",
      "type": "function"
    },
    {
      "inputs": [
        {
          "internalType": "uint256",
          "name": "tokenId",
          "type": "uint256"
        }
      ],
      "name": "tokenCode",
      "outputs": [
        {
          "internalType": "bytes",
          "name": "",
          "type": "bytes"
        }
      ],
      "stateMutability": "view",
      "type": "function"
    },
    {
      "inputs": [
        {
          "internalType": "uint256",
          "name": "tokenId",
          "type": "uint256"
        }
      ],
      "name": "tokenMetadata",
      "outputs": [
        {
          "internalType": "string",
          "name": "",
          "type": "string"
        }
      ],
      "stateMutability": "view",
      "type": "function"
    },
    {
      "inputs": [
        {
          "internalType": "uint256",
          "name": "tokenId",
          "type": "uint256"
        }
      ],
      "name": "tokenURI",
      "outputs": [
        {
          "internalType": "string",
          "name": "",
          "type": "string"
        }
      ],
      "stateMutability": "view",
      "type": "function"
    },
    {
      "inputs": [
        {
          "internalType": "address",
          "name": "from",
          "type": "address"
        },
        {
          "internalType": "address",
          "name": "to",
          "type": "address"
        },
        {
          "internalType": "uint256",
          "name": "tokenId",
          "type": "uint256"
        }
      ],
      "name": "transferFrom",
      "outputs": [],
      "stateMutability": "nonpayable",
      "type": "function"
    }
  ],
  "bytecode": "0x60806040523480156200001157600080fd5b5060405162003cf238038062003cf2833981810160405281019062000037919062000219565b6040518060400160405280601581526020017f44657369676e204279204e756d62657273204e465400000000000000000000008152506040518060400160405280600581526020017f44424e46540000000000000000000000000000000000000000000000000000008152508160009080519060200190620000bb929190620000f7565b508060019080519060200190620000d4929190620000f7565b5050508060089080519060200190620000ef929190620000f7565b5050620003ce565b8280546200010590620002f3565b90600052602060002090601f01602090048101928262000129576000855562000175565b82601f106200014457805160ff191683800117855562000175565b8280016001018555821562000175579182015b828111156200017457825182559160200191906001019062000157565b5b50905062000184919062000188565b5090565b5b80821115620001a357600081600090555060010162000189565b5090565b6000620001be620001b88462000287565b6200025e565b905082815260208101848484011115620001d757600080fd5b620001e4848285620002bd565b509392505050565b600082601f830112620001fe57600080fd5b815162000210848260208601620001a7565b91505092915050565b6000602082840312156200022c57600080fd5b600082015167ffffffffffffffff8111156200024757600080fd5b6200025584828501620001ec565b91505092915050565b60006200026a6200027d565b905062000278828262000329565b919050565b6000604051905090565b600067ffffffffffffffff821115620002a557620002a46200038e565b5b620002b082620003bd565b9050602081019050919050565b60005b83811015620002dd578082015181840152602081019050620002c0565b83811115620002ed576000848401525b50505050565b600060028204905060018216806200030c57607f821691505b602082108114156200032357620003226200035f565b5b50919050565b6200033482620003bd565b810181811067ffffffffffffffff821117156200035657620003556200038e565b5b80604052505050565b7f4e487b7100000000000000000000000000000000000000000000000000000000600052602260045260246000fd5b7f4e487b7100000000000000000000000000000000000000000000000000000000600052604160045260246000fd5b6000601f19601f8301169050919050565b61391480620003de6000396000f3fe608060405234801561001057600080fd5b50600436106100ff5760003560e01c80636352211e11610097578063a22cb46511610066578063a22cb465146102e4578063b88d4fde14610300578063c87b56dd1461031c578063e985e9c51461034c576100ff565b80636352211e146102365780636914db601461026657806370a082311461029657806395d89b41146102c6576100ff565b8063095ea7b3116100d3578063095ea7b3146101b257806323b872dd146101ce57806342842e0e146101ea5780635dca47b714610206576100ff565b80627743601461010457806301ffc9a71461013457806306fdde0314610164578063081812fc14610182575b600080fd5b61011e60048036038101906101199190612440565b61037c565b60405161012b9190612b19565b60405180910390f35b61014e600480360381019061014991906123ee565b6104af565b60405161015b9190612b80565b60405180910390f35b61016c610591565b6040516101799190612bbd565b60405180910390f35b61019c60048036038101906101979190612481565b610623565b6040516101a99190612b19565b60405180910390f35b6101cc60048036038101906101c791906123b2565b6106a8565b005b6101e860048036038101906101e391906122ac565b6107c0565b005b61020460048036038101906101ff91906122ac565b610820565b005b610220600480360381019061021b9190612481565b610840565b60405161022d9190612b9b565b60405180910390f35b610250600480360381019061024b9190612481565b61088a565b60405161025d9190612b19565b60405180910390f35b610280600480360381019061027b9190612481565b61093c565b60405161028d9190612bbd565b60405180910390f35b6102b060048036038101906102ab9190612247565b61096b565b6040516102bd9190612dff565b60405180910390f35b6102ce610a23565b6040516102db9190612bbd565b60405180910390f35b6102fe60048036038101906102f99190612376565b610ab5565b005b61031a600480360381019061031591906122fb565b610c36565b005b61033660048036038101906103319190612481565b610c98565b6040516103439190612bbd565b60405180910390f35b61036660048036038101906103619190612270565b610cd6565b6040516103739190612b80565b60405180910390f35b6000808251602084016000f09050600073ffffffffffffffffffffffffffffffffffffffff168173ffffffffffffffffffffffffffffffffffffffff1614156103ee577f4e487b7100000000000000000000000000000000000000000000000000000000600052600160045260246000fd5b60006103fa6006610d6a565b90506104066006610d78565b816007600083815260200190815260200160002060006101000a81548173ffffffffffffffffffffffffffffffffffffffff021916908373ffffffffffffffffffffffffffffffffffffffff1602179055506104623382610d8e565b7ff3a49663583623b9938240e94c937038afc982b749f42e8c4754206ecb514bae818361048e84610dac565b60405161049d93929190612e1a565b60405180910390a18192505050919050565b60007f80ac58cd000000000000000000000000000000000000000000000000000000007bffffffffffffffffffffffffffffffffffffffffffffffffffffffff1916827bffffffffffffffffffffffffffffffffffffffffffffffffffffffff1916148061057a57507f5b5e139f000000000000000000000000000000000000000000000000000000007bffffffffffffffffffffffffffffffffffffffffffffffffffffffff1916827bffffffffffffffffffffffffffffffffffffffffffffffffffffffff1916145b8061058a575061058982610de0565b5b9050919050565b6060600080546105a090613106565b80601f01602080910402602001604051908101604052809291908181526020018280546105cc90613106565b80156106195780601f106105ee57610100808354040283529160200191610619565b820191906000526020600020905b8154815290600101906020018083116105fc57829003601f168201915b5050505050905090565b600061062e82610e4a565b61066d576040517f08c379a000000000000000000000000000000000000000000000000000000000815260040161066490612d3f565b60405180910390fd5b6004600083815260200190815260200160002060009054906101000a900473ffffffffffffffffffffffffffffffffffffffff169050919050565b60006106b38261088a565b90508073ffffffffffffffffffffffffffffffffffffffff168373ffffffffffffffffffffffffffffffffffffffff161415610724576040517f08c379a000000000000000000000000000000000000000000000000000000000815260040161071b90612d7f565b60405180910390fd5b8073ffffffffffffffffffffffffffffffffffffffff16610743610eb6565b73ffffffffffffffffffffffffffffffffffffffff16148061077257506107718161076c610eb6565b610cd6565b5b6107b1576040517f08c379a00000000000000000000000000000000000000000000000000000000081526004016107a890612cbf565b60405180910390fd5b6107bb8383610ebe565b505050565b6107d16107cb610eb6565b82610f77565b610810576040517f08c379a000000000000000000000000000000000000000000000000000000000815260040161080790612d9f565b60405180910390fd5b61081b838383611055565b505050565b61083b83838360405180602001604052806000815250610c36565b505050565b6060600061084d836112b1565b90508073ffffffffffffffffffffffffffffffffffffffff16803b806020016040519081016040528181526000908060200190933c915050919050565b6000806002600084815260200190815260200160002060009054906101000a900473ffffffffffffffffffffffffffffffffffffffff169050600073ffffffffffffffffffffffffffffffffffffffff168173ffffffffffffffffffffffffffffffffffffffff161415610933576040517f08c379a000000000000000000000000000000000000000000000000000000000815260040161092a90612cff565b60405180910390fd5b80915050919050565b60606000610949836112b1565b905060006109578483611363565b905061096281611494565b92505050919050565b60008073ffffffffffffffffffffffffffffffffffffffff168273ffffffffffffffffffffffffffffffffffffffff1614156109dc576040517f08c379a00000000000000000000000000000000000000000000000000000000081526004016109d390612cdf565b60405180910390fd5b600360008373ffffffffffffffffffffffffffffffffffffffff1673ffffffffffffffffffffffffffffffffffffffff168152602001908152602001600020549050919050565b606060018054610a3290613106565b80601f0160208091040260200160405190810160405280929190818152602001828054610a5e90613106565b8015610aab5780601f10610a8057610100808354040283529160200191610aab565b820191906000526020600020905b815481529060010190602001808311610a8e57829003601f168201915b5050505050905090565b610abd610eb6565b73ffffffffffffffffffffffffffffffffffffffff168273ffffffffffffffffffffffffffffffffffffffff161415610b2b576040517f08c379a0000000000000000000000000000000000000000000000000000000008152600401610b2290612c7f565b60405180910390fd5b8060056000610b38610eb6565b73ffffffffffffffffffffffffffffffffffffffff1673ffffffffffffffffffffffffffffffffffffffff16815260200190815260200160002060008473ffffffffffffffffffffffffffffffffffffffff1673ffffffffffffffffffffffffffffffffffffffff16815260200190815260200160002060006101000a81548160ff0219169083151502179055508173ffffffffffffffffffffffffffffffffffffffff16610be5610eb6565b73ffffffffffffffffffffffffffffffffffffffff167f17307eab39ab6107e8899845ad3d59bd9653f200f220920489ca2b5937696c3183604051610c2a9190612b80565b60405180910390a35050565b610c47610c41610eb6565b83610f77565b610c86576040517f08c379a0000000000000000000000000000000000000000000000000000000008152600401610c7d90612d9f565b60405180910390fd5b610c92848484846114cb565b50505050565b60606000610ca5836112b1565b90506000610cb282611527565b90506000610cc08584611363565b9050610ccc82826115de565b9350505050919050565b6000600560008473ffffffffffffffffffffffffffffffffffffffff1673ffffffffffffffffffffffffffffffffffffffff16815260200190815260200160002060008373ffffffffffffffffffffffffffffffffffffffff1673ffffffffffffffffffffffffffffffffffffffff16815260200190815260200160002060009054906101000a900460ff16905092915050565b600081600001549050919050565b6001816000016000828254019250508190555050565b610da8828260405180602001604052806000815250611620565b5050565b60606008610db98361167b565b604051602001610dca9291906129ef565b6040516020818303038152906040529050919050565b60007f01ffc9a7000000000000000000000000000000000000000000000000000000007bffffffffffffffffffffffffffffffffffffffffffffffffffffffff1916827bffffffffffffffffffffffffffffffffffffffffffffffffffffffff1916149050919050565b60008073ffffffffffffffffffffffffffffffffffffffff166002600084815260200190815260200160002060009054906101000a900473ffffffffffffffffffffffffffffffffffffffff1673ffffffffffffffffffffffffffffffffffffffff1614159050919050565b600033905090565b816004600083815260200190815260200160002060006101000a81548173ffffffffffffffffffffffffffffffffffffffff021916908373ffffffffffffffffffffffffffffffffffffffff160217905550808273ffffffffffffffffffffffffffffffffffffffff16610f318361088a565b73ffffffffffffffffffffffffffffffffffffffff167f8c5be1e5ebec7d5bd14f71427d1e84f3dd0314c0f7b2291e5b200ac8c7c3b92560405160405180910390a45050565b6000610f8282610e4a565b610fc1576040517f08c379a0000000000000000000000000000000000000000000000000000000008152600401610fb890612c9f565b60405180910390fd5b6000610fcc8361088a565b90508073ffffffffffffffffffffffffffffffffffffffff168473ffffffffffffffffffffffffffffffffffffffff16148061103b57508373ffffffffffffffffffffffffffffffffffffffff1661102384610623565b73ffffffffffffffffffffffffffffffffffffffff16145b8061104c575061104b8185610cd6565b5b91505092915050565b8273ffffffffffffffffffffffffffffffffffffffff166110758261088a565b73ffffffffffffffffffffffffffffffffffffffff16146110cb576040517f08c379a00000000000000000000000000000000000000000000000000000000081526004016110c290612d5f565b60405180910390fd5b600073ffffffffffffffffffffffffffffffffffffffff168273ffffffffffffffffffffffffffffffffffffffff16141561113b576040517f08c379a000000000000000000000000000000000000000000000000000000000815260040161113290612c5f565b60405180910390fd5b611146838383611828565b611151600082610ebe565b6001600360008573ffffffffffffffffffffffffffffffffffffffff1673ffffffffffffffffffffffffffffffffffffffff16815260200190815260200160002060008282546111a19190612ff2565b925050819055506001600360008473ffffffffffffffffffffffffffffffffffffffff1673ffffffffffffffffffffffffffffffffffffffff16815260200190815260200160002060008282546111f89190612f11565b92505081905550816002600083815260200190815260200160002060006101000a81548173ffffffffffffffffffffffffffffffffffffffff021916908373ffffffffffffffffffffffffffffffffffffffff160217905550808273ffffffffffffffffffffffffffffffffffffffff168473ffffffffffffffffffffffffffffffffffffffff167fddf252ad1be2c89b69c2b068fc378daa952ba7f163c4a11628f55a4df523b3ef60405160405180910390a4505050565b6000806007600084815260200190815260200160002060009054906101000a900473ffffffffffffffffffffffffffffffffffffffff169050600073ffffffffffffffffffffffffffffffffffffffff168173ffffffffffffffffffffffffffffffffffffffff16141561135a576040517f08c379a000000000000000000000000000000000000000000000000000000000815260040161135190612c3f565b60405180910390fd5b80915050919050565b61136b61214e565b6000808373ffffffffffffffffffffffffffffffffffffffff1660405161139190612a7d565b600060405180830381855afa9150503d80600081146113cc576040519150601f19603f3d011682016040523d82523d6000602084013e6113d1565b606091505b509150915081611416576040517f08c379a000000000000000000000000000000000000000000000000000000000815260040161140d90612dbf565b60405180910390fd5b60006114218661167b565b905060405180608001604052808260405160200161143f9190612a92565b604051602081830303815290604052815260200183815260200161146288610dac565b81526020016114868773ffffffffffffffffffffffffffffffffffffffff1661182d565b815250935050505092915050565b606060006114a1836118b3565b9050806040516020016114b491906129cd565b604051602081830303815290604052915050919050565b6114d6848484611055565b6114e2848484846118f2565b611521576040517f08c379a000000000000000000000000000000000000000000000000000000000815260040161151890612bff565b60405180910390fd5b50505050565b60606000808373ffffffffffffffffffffffffffffffffffffffff1660405161154f90612ab4565b600060405180830381855afa9150503d806000811461158a576040519150601f19603f3d011682016040523d82523d6000602084013e61158f565b606091505b5091509150816115d4576040517f08c379a00000000000000000000000000000000000000000000000000000000081526004016115cb90612ddf565b60405180910390fd5b8092505050919050565b606060006115eb836118b3565b9050806115f785611a89565b604051602001611608929190612ac9565b60405160208183030381529060405291505092915050565b61162a8383611c45565b61163760008484846118f2565b611676576040517f08c379a000000000000000000000000000000000000000000000000000000000815260040161166d90612bff565b60405180910390fd5b505050565b606060008214156116c3576040518060400160405280600181526020017f30000000000000000000000000000000000000000000000000000000000000008152509050611823565b600082905060005b600082146116f55780806116de90613169565b915050600a826116ee9190612f67565b91506116cb565b60008167ffffffffffffffff811115611737577f4e487b7100000000000000000000000000000000000000000000000000000000600052604160045260246000fd5b6040519080825280601f01601f1916602001820160405280156117695781602001600182028036833780820191505090505b5090505b6000851461181c576001826117829190612ff2565b9150600a8561179191906131b2565b603061179d9190612f11565b60f81b8183815181106117d9577f4e487b7100000000000000000000000000000000000000000000000000000000600052603260045260246000fd5b60200101907effffffffffffffffffffffffffffffffffffffffffffffffffffffffffffff1916908160001a905350600a856118159190612f67565b945061176d565b8093505050505b919050565b505050565b60606000821415611875576040518060400160405280600481526020017f307830300000000000000000000000000000000000000000000000000000000081525090506118ae565b600082905060005b6000821461189f57808061189090613169565b915050600882901c915061187d565b6118a98482611e13565b925050505b919050565b606081600001518260200151836040015184606001516040516020016118dc9493929190612a13565b6040516020818303038152906040529050919050565b60006119138473ffffffffffffffffffffffffffffffffffffffff1661210d565b15611a7c578373ffffffffffffffffffffffffffffffffffffffff1663150b7a0261193c610eb6565b8786866040518563ffffffff1660e01b815260040161195e9493929190612b34565b602060405180830381600087803b15801561197857600080fd5b505af19250505080156119a957506040513d601f19601f820116820180604052508101906119a69190612417565b60015b611a2c573d80600081146119d9576040519150601f19603f3d011682016040523d82523d6000602084013e6119de565b606091505b50600081511415611a24576040517f08c379a0000000000000000000000000000000000000000000000000000000008152600401611a1b90612bff565b60405180910390fd5b805181602001fd5b63150b7a0260e01b7bffffffffffffffffffffffffffffffffffffffffffffffffffffffff1916817bffffffffffffffffffffffffffffffffffffffffffffffffffffffff191614915050611a81565b600190505b949350505050565b6060600082511415611a9d57819050611c40565b60007f4142434445464748494a4b4c4d4e4f505152535455565758595a616263646566905060007f6768696a6b6c6d6e6f707172737475767778797a303132333435363738392b2f90506000611af38551612120565b67ffffffffffffffff811115611b32577f4e487b7100000000000000000000000000000000000000000000000000000000600052604160045260246000fd5b6040519080825280601f01601f191660200182016040528015611b645781602001600182028036833780820191505090505b50905060008551905060208601602083015b6000831115611c0657815160101c601e60f0601e861015611bb4578591508286601e0360031b1c925060066004870983811b9350808760031b019150505b818603955081850194505b6000811115611bfe5760068103905082603f821b16811c89601f821115611bea578990506020820391505b80821a808753600187019650505050611bbf565b505050611b76565b600388510660018114611c205760028114611c3057611c35565b603d8253603d8260010153611c35565b603d82535b505050819450505050505b919050565b600073ffffffffffffffffffffffffffffffffffffffff168273ffffffffffffffffffffffffffffffffffffffff161415611cb5576040517f08c379a0000000000000000000000000000000000000000000000000000000008152600401611cac90612d1f565b60405180910390fd5b611cbe81610e4a565b15611cfe576040517f08c379a0000000000000000000000000000000000000000000000000000000008152600401611cf590612c1f565b60405180910390fd5b611d0a60008383611828565b6001600360008473ffffffffffffffffffffffffffffffffffffffff1673ffffffffffffffffffffffffffffffffffffffff1681526020019081526020016000206000828254611d5a9190612f11565b92505081905550816002600083815260200190815260200160002060006101000a81548173ffffffffffffffffffffffffffffffffffffffff021916908373ffffffffffffffffffffffffffffffffffffffff160217905550808273ffffffffffffffffffffffffffffffffffffffff16600073ffffffffffffffffffffffffffffffffffffffff167fddf252ad1be2c89b69c2b068fc378daa952ba7f163c4a11628f55a4df523b3ef60405160405180910390a45050565b606060006002836002611e269190612f98565b611e309190612f11565b67ffffffffffffffff811115611e6f577f4e487b7100000000000000000000000000000000000000000000000000000000600052604160045260246000fd5b6040519080825280601f01601f191660200182016040528015611ea15781602001600182028036833780820191505090505b5090507f300000000000000000000000000000000000000000000000000000000000000081600081518110611eff577f4e487b7100000000000000000000000000000000000000000000000000000000600052603260045260246000fd5b60200101907effffffffffffffffffffffffffffffffffffffffffffffffffffffffffffff1916908160001a9053507f780000000000000000000000000000000000000000000000000000000000000081600181518110611f89577f4e487b7100000000000000000000000000000000000000000000000000000000600052603260045260246000fd5b60200101907effffffffffffffffffffffffffffffffffffffffffffffffffffffffffffff1916908160001a90535060006001846002611fc99190612f98565b611fd39190612f11565b90505b60018111156120bf577f3031323334353637383961626364656600000000000000000000000000000000600f86166010811061203b577f4e487b7100000000000000000000000000000000000000000000000000000000600052603260045260246000fd5b1a60f81b828281518110612078577f4e487b7100000000000000000000000000000000000000000000000000000000600052603260045260246000fd5b60200101907effffffffffffffffffffffffffffffffffffffffffffffffffffffffffffff1916908160001a905350600485901c9450806120b8906130dc565b9050611fd6565b5060008414612103576040517f08c379a00000000000000000000000000000000000000000000000000000000081526004016120fa90612bdf565b60405180910390fd5b8091505092915050565b600080823b905060008111915050919050565b6000600460036002846121339190612f11565b61213d9190612f67565b6121479190612f98565b9050919050565b6040518060800160405280606081526020016060815260200160608152602001606081525090565b600061218961218484612e7d565b612e58565b9050828152602081018484840111156121a157600080fd5b6121ac84828561309a565b509392505050565b6000813590506121c381613882565b92915050565b6000813590506121d881613899565b92915050565b6000813590506121ed816138b0565b92915050565b600081519050612202816138b0565b92915050565b600082601f83011261221957600080fd5b8135612229848260208601612176565b91505092915050565b600081359050612241816138c7565b92915050565b60006020828403121561225957600080fd5b6000612267848285016121b4565b91505092915050565b6000806040838503121561228357600080fd5b6000612291858286016121b4565b92505060206122a2858286016121b4565b9150509250929050565b6000806000606084860312156122c157600080fd5b60006122cf868287016121b4565b93505060206122e0868287016121b4565b92505060406122f186828701612232565b9150509250925092565b6000806000806080858703121561231157600080fd5b600061231f878288016121b4565b9450506020612330878288016121b4565b935050604061234187828801612232565b925050606085013567ffffffffffffffff81111561235e57600080fd5b61236a87828801612208565b91505092959194509250565b6000806040838503121561238957600080fd5b6000612397858286016121b4565b92505060206123a8858286016121c9565b9150509250929050565b600080604083850312156123c557600080fd5b60006123d3858286016121b4565b92505060206123e485828601612232565b9150509250929050565b60006020828403121561240057600080fd5b600061240e848285016121de565b91505092915050565b60006020828403121561242957600080fd5b6000612437848285016121f3565b91505092915050565b60006020828403121561245257600080fd5b600082013567ffffffffffffffff81111561246c57600080fd5b61247884828501612208565b91505092915050565b60006020828403121561249357600080fd5b60006124a184828501612232565b91505092915050565b6124b381613026565b82525050565b6124c281613038565b82525050565b60006124d382612ec3565b6124dd8185612ed9565b93506124ed8185602086016130a9565b6124f68161329f565b840191505092915050565b600061250c82612ece565b6125168185612ef5565b93506125268185602086016130a9565b61252f8161329f565b840191505092915050565b600061254582612ece565b61254f8185612f06565b935061255f8185602086016130a9565b80840191505092915050565b6000815461257881613106565b6125828186612f06565b9450600182166000811461259d57600181146125ae576125e1565b60ff198316865281860193506125e1565b6125b785612eae565b60005b838110156125d9578154818901526001820191506020810190506125ba565b838801955050505b50505092915050565b60006125f7602083612ef5565b9150612602826132b0565b602082019050919050565b600061261a600983612f06565b9150612625826132d9565b600982019050919050565b600061263d601283612f06565b915061264882613302565b601282019050919050565b6000612660600b83612f06565b915061266b8261332b565b600b82019050919050565b6000612683603283612ef5565b915061268e82613354565b604082019050919050565b60006126a6601c83612ef5565b91506126b1826133a3565b602082019050919050565b60006126c9600a83612ef5565b91506126d4826133cc565b602082019050919050565b60006126ec602483612ef5565b91506126f7826133f5565b604082019050919050565b600061270f601983612ef5565b915061271a82613444565b602082019050919050565b6000612732601183612f06565b915061273d8261346d565b601182019050919050565b6000612755602c83612ef5565b915061276082613496565b604082019050919050565b6000612778601583612f06565b9150612783826134e5565b601582019050919050565b600061279b603883612ef5565b91506127a68261350e565b604082019050919050565b60006127be602a83612ef5565b91506127c98261355d565b604082019050919050565b60006127e1602983612ef5565b91506127ec826135ac565b604082019050919050565b6000612804600283612f06565b915061280f826135fb565b600282019050919050565b6000612827602083612ef5565b915061283282613624565b602082019050919050565b600061284a602c83612ef5565b91506128558261364d565b604082019050919050565b600061286d602983612ef5565b91506128788261369c565b604082019050919050565b6000612890600183612eea565b915061289b826136eb565b600182019050919050565b60006128b3602183612ef5565b91506128be82613714565b604082019050919050565b60006128d6600783612f06565b91506128e182613763565b600782019050919050565b60006128f9600083612eea565b91506129048261378c565b600082019050919050565b600061291c603183612ef5565b91506129278261378f565b604082019050919050565b600061293f601683612f06565b915061294a826137de565b601682019050919050565b6000612962601083612ef5565b915061296d82613807565b602082019050919050565b6000612985601383612ef5565b915061299082613830565b602082019050919050565b60006129a8601683612f06565b91506129b382613859565b601682019050919050565b6129c781613090565b82525050565b60006129d9828461253a565b91506129e4826127f7565b915081905092915050565b60006129fb828561256b565b9150612a07828461253a565b91508190509392505050565b6000612a1e8261260d565b9150612a2a828761253a565b9150612a3582612725565b9150612a41828661253a565b9150612a4c82612630565b9150612a58828561253a565b9150612a638261276b565b9150612a6f828461253a565b915081905095945050505050565b6000612a8882612883565b9150819050919050565b6000612a9d826128c9565b9150612aa9828461253a565b915081905092915050565b6000612abf826128ec565b9150819050919050565b6000612ad48261299b565b9150612ae0828561253a565b9150612aeb82612653565b9150612af682612932565b9150612b02828461253a565b9150612b0d826127f7565b91508190509392505050565b6000602082019050612b2e60008301846124aa565b92915050565b6000608082019050612b4960008301876124aa565b612b5660208301866124aa565b612b6360408301856129be565b8181036060830152612b7581846124c8565b905095945050505050565b6000602082019050612b9560008301846124b9565b92915050565b60006020820190508181036000830152612bb581846124c8565b905092915050565b60006020820190508181036000830152612bd78184612501565b905092915050565b60006020820190508181036000830152612bf8816125ea565b9050919050565b60006020820190508181036000830152612c1881612676565b9050919050565b60006020820190508181036000830152612c3881612699565b9050919050565b60006020820190508181036000830152612c58816126bc565b9050919050565b60006020820190508181036000830152612c78816126df565b9050919050565b60006020820190508181036000830152612c9881612702565b9050919050565b60006020820190508181036000830152612cb881612748565b9050919050565b60006020820190508181036000830152612cd88161278e565b9050919050565b60006020820190508181036000830152612cf8816127b1565b9050919050565b60006020820190508181036000830152612d18816127d4565b9050919050565b60006020820190508181036000830152612d388161281a565b9050919050565b60006020820190508181036000830152612d588161283d565b9050919050565b60006020820190508181036000830152612d7881612860565b9050919050565b60006020820190508181036000830152612d98816128a6565b9050919050565b60006020820190508181036000830152612db88161290f565b9050919050565b60006020820190508181036000830152612dd881612955565b9050919050565b60006020820190508181036000830152612df881612978565b9050919050565b6000602082019050612e1460008301846129be565b92915050565b6000606082019050612e2f60008301866129be565b612e3c60208301856124aa565b8181036040830152612e4e8184612501565b9050949350505050565b6000612e62612e73565b9050612e6e8282613138565b919050565b6000604051905090565b600067ffffffffffffffff821115612e9857612e97613270565b5b612ea18261329f565b9050602081019050919050565b60008190508160005260206000209050919050565b600081519050919050565b600081519050919050565b600082825260208201905092915050565b600081905092915050565b600082825260208201905092915050565b600081905092915050565b6000612f1c82613090565b9150612f2783613090565b9250827fffffffffffffffffffffffffffffffffffffffffffffffffffffffffffffffff03821115612f5c57612f5b6131e3565b5b828201905092915050565b6000612f7282613090565b9150612f7d83613090565b925082612f8d57612f8c613212565b5b828204905092915050565b6000612fa382613090565b9150612fae83613090565b9250817fffffffffffffffffffffffffffffffffffffffffffffffffffffffffffffffff0483118215151615612fe757612fe66131e3565b5b828202905092915050565b6000612ffd82613090565b915061300883613090565b92508282101561301b5761301a6131e3565b5b828203905092915050565b600061303182613070565b9050919050565b60008115159050919050565b60007fffffffff0000000000000000000000000000000000000000000000000000000082169050919050565b600073ffffffffffffffffffffffffffffffffffffffff82169050919050565b6000819050919050565b82818337600083830152505050565b60005b838110156130c75780820151818401526020810190506130ac565b838111156130d6576000848401525b50505050565b60006130e782613090565b915060008214156130fb576130fa6131e3565b5b600182039050919050565b6000600282049050600182168061311e57607f821691505b6020821081141561313257613131613241565b5b50919050565b6131418261329f565b810181811067ffffffffffffffff821117156131605761315f613270565b5b80604052505050565b600061317482613090565b91507fffffffffffffffffffffffffffffffffffffffffffffffffffffffffffffffff8214156131a7576131a66131e3565b5b600182019050919050565b60006131bd82613090565b91506131c883613090565b9250826131d8576131d7613212565b5b828206905092915050565b7f4e487b7100000000000000000000000000000000000000000000000000000000600052601160045260246000fd5b7f4e487b7100000000000000000000000000000000000000000000000000000000600052601260045260246000fd5b7f4e487b7100000000000000000000000000000000000000000000000000000000600052602260045260246000fd5b7f4e487b7100000000000000000000000000000000000000000000000000000000600052604160045260246000fd5b6000601f19601f8301169050919050565b7f537472696e67733a20686578206c656e67746820696e73756666696369656e74600082015250565b7f7b226e616d65223a220000000000000000000000000000000000000000000000600082015250565b7f222c2265787465726e616c5f75726c223a220000000000000000000000000000600082015250565b7f222c22696d616765223a22000000000000000000000000000000000000000000600082015250565b7f4552433732313a207472616e7366657220746f206e6f6e20455243373231526560008201527f63656976657220696d706c656d656e7465720000000000000000000000000000602082015250565b7f4552433732313a20746f6b656e20616c7265616479206d696e74656400000000600082015250565b7f554e4b4e4f574e5f494400000000000000000000000000000000000000000000600082015250565b7f4552433732313a207472616e7366657220746f20746865207a65726f2061646460008201527f7265737300000000000000000000000000000000000000000000000000000000602082015250565b7f4552433732313a20617070726f766520746f2063616c6c657200000000000000600082015250565b7f222c226465736372697074696f6e223a22000000000000000000000000000000600082015250565b7f4552433732313a206f70657261746f7220717565727920666f72206e6f6e657860008201527f697374656e7420746f6b656e0000000000000000000000000000000000000000602082015250565b7f222c2264726177696e675f61646472657373223a220000000000000000000000600082015250565b7f4552433732313a20617070726f76652063616c6c6572206973206e6f74206f7760008201527f6e6572206e6f7220617070726f76656420666f7220616c6c0000000000000000602082015250565b7f4552433732313a2062616c616e636520717565727920666f7220746865207a6560008201527f726f206164647265737300000000000000000000000000000000000000000000602082015250565b7f4552433732313a206f776e657220717565727920666f72206e6f6e657869737460008201527f656e7420746f6b656e0000000000000000000000000000000000000000000000602082015250565b7f227d000000000000000000000000000000000000000000000000000000000000600082015250565b7f4552433732313a206d696e7420746f20746865207a65726f2061646472657373600082015250565b7f4552433732313a20617070726f76656420717565727920666f72206e6f6e657860008201527f697374656e7420746f6b656e0000000000000000000000000000000000000000602082015250565b7f4552433732313a207472616e73666572206f6620746f6b656e2074686174206960008201527f73206e6f74206f776e0000000000000000000000000000000000000000000000602082015250565b7fde00000000000000000000000000000000000000000000000000000000000000600082015250565b7f4552433732313a20617070726f76616c20746f2063757272656e74206f776e6560008201527f7200000000000000000000000000000000000000000000000000000000000000602082015250565b7f44424e4654202300000000000000000000000000000000000000000000000000600082015250565b50565b7f4552433732313a207472616e736665722063616c6c6572206973206e6f74206f60008201527f776e6572206e6f7220617070726f766564000000000000000000000000000000602082015250565b7f646174613a696d6167652f626d703b6261736536342c00000000000000000000600082015250565b7f4445534352495054494f4e5f4641494c00000000000000000000000000000000600082015250565b7f6661696c7572652072656e6465722063616c6c00000000000000000000000000600082015250565b7f646174613a6170706c69636174696f6e2f6a736f6e2c00000000000000000000600082015250565b61388b81613026565b811461389657600080fd5b50565b6138a281613038565b81146138ad57600080fd5b50565b6138b981613044565b81146138c457600080fd5b50565b6138d081613090565b81146138db57600080fd5b5056fea264697066735822122060c3f1bceef0fbfba80b90a29b7961ed68c037de42576226b34380e84747b0ce64736f6c63430008040033",
  "linkReferences": {},
  "deployedLinkReferences": {}
}