{
  "_format": "hh-sol-artifact-1",
  "contractName": "DBNCoordinator",
  "sourceName": "contracts/DBNCoordinator.sol",
  "abi": [
    {
      "inputs": [
        {
          "internalType": "string",
          "name": "baseExternalURI",
          "type": "string"
        }
      ],
      "stateMutability": "nonpayable",
      "type": "constructor"
    },
    {
      "anonymous": false,
      "inputs": [
        {
          "indexed": true,
          "internalType": "address",
          "name": "owner",
          "type": "address"
        },
        {
          "indexed": true,
          "internalType": "address",
          "name": "approved",
          "type": "address"
        },
        {
          "indexed": true,
          "internalType": "uint256",
          "name": "tokenId",
          "type": "uint256"
        }
      ],
      "name": "Approval",
      "type": "event"
    },
    {
      "anonymous": false,
      "inputs": [
        {
          "indexed": true,
          "internalType": "address",
          "name": "owner",
          "type": "address"
        },
        {
          "indexed": true,
          "internalType": "address",
          "name": "operator",
          "type": "address"
        },
        {
          "indexed": false,
          "internalType": "bool",
          "name": "approved",
          "type": "bool"
        }
      ],
      "name": "ApprovalForAll",
      "type": "event"
    },
    {
      "anonymous": false,
      "inputs": [
        {
          "indexed": false,
          "internalType": "uint256",
          "name": "tokenId",
          "type": "uint256"
        },
        {
          "indexed": false,
          "internalType": "address",
          "name": "addr",
          "type": "address"
        },
        {
          "indexed": false,
          "internalType": "string",
          "name": "externalURL",
          "type": "string"
        }
      ],
      "name": "DrawingDeployed",
      "type": "event"
    },
    {
      "anonymous": false,
      "inputs": [
        {
          "indexed": true,
          "internalType": "address",
          "name": "previousOwner",
          "type": "address"
        },
        {
          "indexed": true,
          "internalType": "address",
          "name": "newOwner",
          "type": "address"
        }
      ],
      "name": "OwnershipTransferred",
      "type": "event"
    },
    {
      "anonymous": false,
      "inputs": [
        {
          "indexed": true,
          "internalType": "address",
          "name": "from",
          "type": "address"
        },
        {
          "indexed": true,
          "internalType": "address",
          "name": "to",
          "type": "address"
        },
        {
          "indexed": true,
          "internalType": "uint256",
          "name": "tokenId",
          "type": "uint256"
        }
      ],
      "name": "Transfer",
      "type": "event"
    },
    {
      "inputs": [],
      "name": "allTokens",
      "outputs": [
        {
          "internalType": "uint256[]",
          "name": "",
          "type": "uint256[]"
        }
      ],
      "stateMutability": "view",
      "type": "function"
    },
    {
      "inputs": [
        {
          "internalType": "address",
          "name": "to",
          "type": "address"
        },
        {
          "internalType": "uint256",
          "name": "tokenId",
          "type": "uint256"
        }
      ],
      "name": "approve",
      "outputs": [],
      "stateMutability": "nonpayable",
      "type": "function"
    },
    {
      "inputs": [
        {
          "internalType": "address",
          "name": "owner",
          "type": "address"
        }
      ],
      "name": "balanceOf",
      "outputs": [
        {
          "internalType": "uint256",
          "name": "",
          "type": "uint256"
        }
      ],
      "stateMutability": "view",
      "type": "function"
    },
    {
      "inputs": [
        {
          "internalType": "uint256",
          "name": "tokenId",
          "type": "uint256"
        }
      ],
      "name": "getAllowedMinter",
      "outputs": [
        {
          "internalType": "address",
          "name": "",
          "type": "address"
        }
      ],
      "stateMutability": "view",
      "type": "function"
    },
    {
      "inputs": [
        {
          "internalType": "address",
          "name": "addr",
          "type": "address"
        }
      ],
      "name": "getAllowedTokenIds",
      "outputs": [
        {
          "internalType": "uint256[]",
          "name": "",
          "type": "uint256[]"
        }
      ],
      "stateMutability": "view",
      "type": "function"
    },
    {
      "inputs": [
        {
          "internalType": "uint256",
          "name": "tokenId",
          "type": "uint256"
        }
      ],
      "name": "getApproved",
      "outputs": [
        {
          "internalType": "address",
          "name": "",
          "type": "address"
        }
      ],
      "stateMutability": "view",
      "type": "function"
    },
    {
      "inputs": [],
      "name": "getContractMode",
      "outputs": [
        {
          "internalType": "enum DBNCoordinator.ContractMode",
          "name": "",
          "type": "uint8"
        }
      ],
      "stateMutability": "view",
      "type": "function"
    },
    {
      "inputs": [
        {
          "internalType": "address",
          "name": "owner",
          "type": "address"
        },
        {
          "internalType": "address",
          "name": "operator",
          "type": "address"
        }
      ],
      "name": "isApprovedForAll",
      "outputs": [
        {
          "internalType": "bool",
          "name": "",
          "type": "bool"
        }
      ],
      "stateMutability": "view",
      "type": "function"
    },
    {
      "inputs": [
        {
          "internalType": "bytes",
          "name": "bytecode",
          "type": "bytes"
        }
      ],
      "name": "mint",
      "outputs": [
        {
          "internalType": "address",
          "name": "",
          "type": "address"
        }
      ],
      "stateMutability": "payable",
      "type": "function"
    },
    {
      "inputs": [
        {
          "internalType": "bytes",
          "name": "bytecode",
          "type": "bytes"
        },
        {
          "internalType": "uint256",
          "name": "tokenId",
          "type": "uint256"
        }
      ],
      "name": "mintTokenId",
      "outputs": [
        {
          "internalType": "address",
          "name": "",
          "type": "address"
        }
      ],
      "stateMutability": "nonpayable",
      "type": "function"
    },
    {
      "inputs": [],
      "name": "name",
      "outputs": [
        {
          "internalType": "string",
          "name": "",
          "type": "string"
        }
      ],
      "stateMutability": "view",
      "type": "function"
    },
    {
      "inputs": [],
      "name": "owner",
      "outputs": [
        {
          "internalType": "address",
          "name": "",
          "type": "address"
        }
      ],
      "stateMutability": "view",
      "type": "function"
    },
    {
      "inputs": [
        {
          "internalType": "uint256",
          "name": "tokenId",
          "type": "uint256"
        }
      ],
      "name": "ownerOf",
      "outputs": [
        {
          "internalType": "address",
          "name": "",
          "type": "address"
        }
      ],
      "stateMutability": "view",
      "type": "function"
    },
    {
      "inputs": [],
      "name": "renounceOwnership",
      "outputs": [],
      "stateMutability": "nonpayable",
      "type": "function"
    },
    {
      "inputs": [
        {
          "internalType": "address",
          "name": "from",
          "type": "address"
        },
        {
          "internalType": "address",
          "name": "to",
          "type": "address"
        },
        {
          "internalType": "uint256",
          "name": "tokenId",
          "type": "uint256"
        }
      ],
      "name": "safeTransferFrom",
      "outputs": [],
      "stateMutability": "nonpayable",
      "type": "function"
    },
    {
      "inputs": [
        {
          "internalType": "address",
          "name": "from",
          "type": "address"
        },
        {
          "internalType": "address",
          "name": "to",
          "type": "address"
        },
        {
          "internalType": "uint256",
          "name": "tokenId",
          "type": "uint256"
        },
        {
          "internalType": "bytes",
          "name": "_data",
          "type": "bytes"
        }
      ],
      "name": "safeTransferFrom",
      "outputs": [],
      "stateMutability": "nonpayable",
      "type": "function"
    },
    {
      "inputs": [
        {
          "internalType": "address",
          "name": "operator",
          "type": "address"
        },
        {
          "internalType": "bool",
          "name": "approved",
          "type": "bool"
        }
      ],
      "name": "setApprovalForAll",
      "outputs": [],
      "stateMutability": "nonpayable",
      "type": "function"
    },
    {
      "inputs": [],
      "name": "setContractOpen",
      "outputs": [],
      "stateMutability": "nonpayable",
      "type": "function"
    },
    {
      "inputs": [
        {
          "internalType": "uint256",
          "name": "price",
          "type": "uint256"
        }
      ],
      "name": "setMintPrice",
      "outputs": [],
      "stateMutability": "nonpayable",
      "type": "function"
    },
    {
      "inputs": [
        {
          "internalType": "bytes4",
          "name": "interfaceId",
          "type": "bytes4"
        }
      ],
      "name": "supportsInterface",
      "outputs": [
        {
          "internalType": "bool",
          "name": "",
          "type": "bool"
        }
      ],
      "stateMutability": "view",
      "type": "function"
    },
    {
      "inputs": [],
      "name": "symbol",
      "outputs": [
        {
          "internalType": "string",
          "name": "",
          "type": "string"
        }
      ],
      "stateMutability": "view",
      "type": "function"
    },
    {
      "inputs": [
        {
          "internalType": "uint256",
          "name": "index",
          "type": "uint256"
        }
      ],
      "name": "tokenByIndex",
      "outputs": [
        {
          "internalType": "uint256",
          "name": "",
          "type": "uint256"
        }
      ],
      "stateMutability": "view",
      "type": "function"
    },
    {
      "inputs": [
        {
          "internalType": "uint256",
          "name": "tokenId",
          "type": "uint256"
        }
      ],
      "name": "tokenCode",
      "outputs": [
        {
          "internalType": "bytes",
          "name": "",
          "type": "bytes"
        }
      ],
      "stateMutability": "view",
      "type": "function"
    },
    {
      "inputs": [
        {
          "internalType": "uint256",
          "name": "tokenId",
          "type": "uint256"
        }
      ],
      "name": "tokenMetadata",
      "outputs": [
        {
          "internalType": "string",
          "name": "",
          "type": "string"
        }
      ],
      "stateMutability": "view",
      "type": "function"
    },
    {
      "inputs": [
        {
          "internalType": "address",
          "name": "owner",
          "type": "address"
        },
        {
          "internalType": "uint256",
          "name": "index",
          "type": "uint256"
        }
      ],
      "name": "tokenOfOwnerByIndex",
      "outputs": [
        {
          "internalType": "uint256",
          "name": "",
          "type": "uint256"
        }
      ],
      "stateMutability": "view",
      "type": "function"
    },
    {
      "inputs": [
        {
          "internalType": "uint256",
          "name": "tokenId",
          "type": "uint256"
        }
      ],
      "name": "tokenURI",
      "outputs": [
        {
          "internalType": "string",
          "name": "",
          "type": "string"
        }
      ],
      "stateMutability": "view",
      "type": "function"
    },
    {
      "inputs": [],
      "name": "totalSupply",
      "outputs": [
        {
          "internalType": "uint256",
          "name": "",
          "type": "uint256"
        }
      ],
      "stateMutability": "view",
      "type": "function"
    },
    {
      "inputs": [
        {
          "internalType": "address",
          "name": "from",
          "type": "address"
        },
        {
          "internalType": "address",
          "name": "to",
          "type": "address"
        },
        {
          "internalType": "uint256",
          "name": "tokenId",
          "type": "uint256"
        }
      ],
      "name": "transferFrom",
      "outputs": [],
      "stateMutability": "nonpayable",
      "type": "function"
    },
    {
      "inputs": [
        {
          "internalType": "address",
          "name": "newOwner",
          "type": "address"
        }
      ],
      "name": "transferOwnership",
      "outputs": [],
      "stateMutability": "nonpayable",
      "type": "function"
    },
    {
      "inputs": [
        {
          "components": [
            {
              "internalType": "uint256",
              "name": "tokenId",
              "type": "uint256"
            },
            {
              "internalType": "address",
              "name": "addr",
              "type": "address"
            }
          ],
          "internalType": "struct DBNCoordinator.AllowlistUpdate[]",
          "name": "input",
          "type": "tuple[]"
        }
      ],
      "name": "updateAllowlist",
      "outputs": [],
      "stateMutability": "nonpayable",
      "type": "function"
    },
    {
      "inputs": [],
      "name": "withdraw",
      "outputs": [],
      "stateMutability": "nonpayable",
      "type": "function"
    }
  ],
  "bytecode": "0x60806040523480156200001157600080fd5b5060405162005cf138038062005cf1833981810160405281019062000037919062000745565b6040518060400160405280601581526020017f44657369676e204279204e756d62657273204e465400000000000000000000008152506040518060400160405280600581526020017f44424e46540000000000000000000000000000000000000000000000000000008152508160009080519060200190620000bb92919062000623565b508060019080519060200190620000d492919062000623565b505050620000f7620000eb6200055560201b60201c565b6200055d60201b60201c565b80600890805190602001906200010f92919062000623565b506000600660146101000a81548160ff021916908360018111156200015d577f4e487b7100000000000000000000000000000000000000000000000000000000600052602160045260246000fd5b0217905550620001726200055560201b60201c565b600e600080815260200190815260200160002060006101000a81548173ffffffffffffffffffffffffffffffffffffffff021916908373ffffffffffffffffffffffffffffffffffffffff160217905550620001d36200055560201b60201c565b600e60006001815260200190815260200160002060006101000a81548173ffffffffffffffffffffffffffffffffffffffff021916908373ffffffffffffffffffffffffffffffffffffffff160217905550620002356200055560201b60201c565b600e60006002815260200190815260200160002060006101000a81548173ffffffffffffffffffffffffffffffffffffffff021916908373ffffffffffffffffffffffffffffffffffffffff160217905550620002976200055560201b60201c565b600e60006003815260200190815260200160002060006101000a81548173ffffffffffffffffffffffffffffffffffffffff021916908373ffffffffffffffffffffffffffffffffffffffff160217905550620002f96200055560201b60201c565b600e60006004815260200190815260200160002060006101000a81548173ffffffffffffffffffffffffffffffffffffffff021916908373ffffffffffffffffffffffffffffffffffffffff1602179055506200035b6200055560201b60201c565b600e60006005815260200190815260200160002060006101000a81548173ffffffffffffffffffffffffffffffffffffffff021916908373ffffffffffffffffffffffffffffffffffffffff160217905550620003bd6200055560201b60201c565b600e60006006815260200190815260200160002060006101000a81548173ffffffffffffffffffffffffffffffffffffffff021916908373ffffffffffffffffffffffffffffffffffffffff1602179055506200041f6200055560201b60201c565b600e60006007815260200190815260200160002060006101000a81548173ffffffffffffffffffffffffffffffffffffffff021916908373ffffffffffffffffffffffffffffffffffffffff160217905550620004816200055560201b60201c565b600e60006008815260200190815260200160002060006101000a81548173ffffffffffffffffffffffffffffffffffffffff021916908373ffffffffffffffffffffffffffffffffffffffff160217905550620004e36200055560201b60201c565b600e60006009815260200190815260200160002060006101000a81548173ffffffffffffffffffffffffffffffffffffffff021916908373ffffffffffffffffffffffffffffffffffffffff1602179055506065600960000181905550662386f26fc1000060078190555050620008fa565b600033905090565b6000600660009054906101000a900473ffffffffffffffffffffffffffffffffffffffff16905081600660006101000a81548173ffffffffffffffffffffffffffffffffffffffff021916908373ffffffffffffffffffffffffffffffffffffffff1602179055508173ffffffffffffffffffffffffffffffffffffffff168173ffffffffffffffffffffffffffffffffffffffff167f8be0079c531659141344cd1fd0a4f28419497f9722a3daafe3b4186f6b6457e060405160405180910390a35050565b82805462000631906200081f565b90600052602060002090601f016020900481019282620006555760008555620006a1565b82601f106200067057805160ff1916838001178555620006a1565b82800160010185558215620006a1579182015b82811115620006a057825182559160200191906001019062000683565b5b509050620006b09190620006b4565b5090565b5b80821115620006cf576000816000905550600101620006b5565b5090565b6000620006ea620006e484620007b3565b6200078a565b9050828152602081018484840111156200070357600080fd5b62000710848285620007e9565b509392505050565b600082601f8301126200072a57600080fd5b81516200073c848260208601620006d3565b91505092915050565b6000602082840312156200075857600080fd5b600082015167ffffffffffffffff8111156200077357600080fd5b620007818482850162000718565b91505092915050565b600062000796620007a9565b9050620007a4828262000855565b919050565b6000604051905090565b600067ffffffffffffffff821115620007d157620007d0620008ba565b5b620007dc82620008e9565b9050602081019050919050565b60005b8381101562000809578082015181840152602081019050620007ec565b8381111562000819576000848401525b50505050565b600060028204905060018216806200083857607f821691505b602082108114156200084f576200084e6200088b565b5b50919050565b6200086082620008e9565b810181811067ffffffffffffffff82111715620008825762000881620008ba565b5b80604052505050565b7f4e487b7100000000000000000000000000000000000000000000000000000000600052602260045260246000fd5b7f4e487b7100000000000000000000000000000000000000000000000000000000600052604160045260246000fd5b6000601f19601f8301169050919050565b6153e7806200090a6000396000f3fe6080604052600436106101d85760003560e01c80636ff97f1d11610102578063a43da3bd11610095578063e985e9c511610064578063e985e9c5146106e9578063f2fde38b14610726578063f4a0a5281461074f578063f5f5b06e14610778576101d8565b8063a43da3bd1461061b578063b88d4fde14610646578063c87b56dd1461066f578063db5fac6a146106ac576101d8565b80638da5cb5b116100d15780638da5cb5b1461058557806395d89b41146105b0578063a22cb465146105db578063a3210e3814610604576101d8565b80636ff97f1d146104d657806370a0823114610501578063715018a61461053e5780637ba0e2e714610555576101d8565b80633ccfd60b1161017a5780635dca47b7116101495780635dca47b7146103e2578063610204cd1461041f5780636352211e1461045c5780636914db6014610499576101d8565b80633ccfd60b1461033c57806342842e0e146103535780634f6ccce71461037c57806355d01a50146103b9576101d8565b8063095ea7b3116101b6578063095ea7b31461028257806318160ddd146102ab57806323b872dd146102d65780632f745c59146102ff576101d8565b806301ffc9a7146101dd57806306fdde031461021a578063081812fc14610245575b600080fd5b3480156101e957600080fd5b5061020460048036038101906101ff919061385a565b6107b5565b6040516102119190614231565b60405180910390f35b34801561022657600080fd5b5061022f61082f565b60405161023c9190614289565b60405180910390f35b34801561025157600080fd5b5061026c60048036038101906102679190613941565b6108c1565b60405161027991906141a8565b60405180910390f35b34801561028e57600080fd5b506102a960048036038101906102a491906137d9565b610946565b005b3480156102b757600080fd5b506102c0610a5e565b6040516102cd91906145cb565b60405180910390f35b3480156102e257600080fd5b506102fd60048036038101906102f891906136d3565b610a6b565b005b34801561030b57600080fd5b50610326600480360381019061032191906137d9565b610acb565b60405161033391906145cb565b60405180910390f35b34801561034857600080fd5b50610351610b70565b005b34801561035f57600080fd5b5061037a600480360381019061037591906136d3565b610c3b565b005b34801561038857600080fd5b506103a3600480360381019061039e9190613941565b610c5b565b6040516103b091906145cb565b60405180910390f35b3480156103c557600080fd5b506103e060048036038101906103db9190613815565b610cf2565b005b3480156103ee57600080fd5b5061040960048036038101906104049190613941565b610e3f565b604051610416919061424c565b60405180910390f35b34801561042b57600080fd5b506104466004803603810190610441919061366e565b610e89565b604051610453919061420f565b60405180910390f35b34801561046857600080fd5b50610483600480360381019061047e9190613941565b611094565b60405161049091906141a8565b60405180910390f35b3480156104a557600080fd5b506104c060048036038101906104bb9190613941565b611146565b6040516104cd9190614289565b60405180910390f35b3480156104e257600080fd5b506104eb611175565b6040516104f8919061420f565b60405180910390f35b34801561050d57600080fd5b506105286004803603810190610523919061366e565b6111cd565b60405161053591906145cb565b60405180910390f35b34801561054a57600080fd5b50610553611285565b005b61056f600480360381019061056a91906138ac565b61130d565b60405161057c91906141a8565b60405180910390f35b34801561059157600080fd5b5061059a611482565b6040516105a791906141a8565b60405180910390f35b3480156105bc57600080fd5b506105c56114ac565b6040516105d29190614289565b60405180910390f35b3480156105e757600080fd5b5061060260048036038101906105fd919061379d565b61153e565b005b34801561061057600080fd5b506106196116bf565b005b34801561062757600080fd5b5061063061178e565b60405161063d919061426e565b60405180910390f35b34801561065257600080fd5b5061066d60048036038101906106689190613722565b6117a5565b005b34801561067b57600080fd5b5061069660048036038101906106919190613941565b611807565b6040516106a39190614289565b60405180910390f35b3480156106b857600080fd5b506106d360048036038101906106ce9190613941565b611845565b6040516106e091906141a8565b60405180910390f35b3480156106f557600080fd5b50610710600480360381019061070b9190613697565b611882565b60405161071d9190614231565b60405180910390f35b34801561073257600080fd5b5061074d6004803603810190610748919061366e565b611916565b005b34801561075b57600080fd5b5061077660048036038101906107719190613941565b611a0e565b005b34801561078457600080fd5b5061079f600480360381019061079a91906138ed565b611a94565b6040516107ac91906141a8565b60405180910390f35b60007f780e9d63000000000000000000000000000000000000000000000000000000007bffffffffffffffffffffffffffffffffffffffffffffffffffffffff1916827bffffffffffffffffffffffffffffffffffffffffffffffffffffffff19161480610828575061082782611b9c565b5b9050919050565b60606000805461083e9061493d565b80601f016020809104026020016040519081016040528092919081815260200182805461086a9061493d565b80156108b75780601f1061088c576101008083540402835291602001916108b7565b820191906000526020600020905b81548152906001019060200180831161089a57829003601f168201915b5050505050905090565b60006108cc82611c7e565b61090b576040517f08c379a0000000000000000000000000000000000000000000000000000000008152600401610902906144cb565b60405180910390fd5b6004600083815260200190815260200160002060009054906101000a900473ffffffffffffffffffffffffffffffffffffffff169050919050565b600061095182611094565b90508073ffffffffffffffffffffffffffffffffffffffff168373ffffffffffffffffffffffffffffffffffffffff1614156109c2576040517f08c379a00000000000000000000000000000000000000000000000000000000081526004016109b99061452b565b60405180910390fd5b8073ffffffffffffffffffffffffffffffffffffffff166109e1611cea565b73ffffffffffffffffffffffffffffffffffffffff161480610a105750610a0f81610a0a611cea565b611882565b5b610a4f576040517f08c379a0000000000000000000000000000000000000000000000000000000008152600401610a469061442b565b60405180910390fd5b610a598383611cf2565b505050565b6000600b80549050905090565b610a7c610a76611cea565b82611dab565b610abb576040517f08c379a0000000000000000000000000000000000000000000000000000000008152600401610ab29061456b565b60405180910390fd5b610ac6838383611e89565b505050565b6000610ad6836111cd565b8210610b17576040517f08c379a0000000000000000000000000000000000000000000000000000000008152600401610b0e9061454b565b60405180910390fd5b600c60008473ffffffffffffffffffffffffffffffffffffffff1673ffffffffffffffffffffffffffffffffffffffff168152602001908152602001600020600083815260200190815260200160002054905092915050565b610b78611cea565b73ffffffffffffffffffffffffffffffffffffffff16610b96611482565b73ffffffffffffffffffffffffffffffffffffffff1614610bec576040517f08c379a0000000000000000000000000000000000000000000000000000000008152600401610be3906144eb565b60405180910390fd5b60003390508073ffffffffffffffffffffffffffffffffffffffff166108fc479081150290604051600060405180830381858888f19350505050158015610c37573d6000803e3d6000fd5b5050565b610c56838383604051806020016040528060008152506117a5565b505050565b6000610c65610a5e565b8210610ca6576040517f08c379a0000000000000000000000000000000000000000000000000000000008152600401610c9d9061438b565b60405180910390fd5b600b8281548110610ce0577f4e487b7100000000000000000000000000000000000000000000000000000000600052603260045260246000fd5b90600052602060002001549050919050565b610cfa611cea565b73ffffffffffffffffffffffffffffffffffffffff16610d18611482565b73ffffffffffffffffffffffffffffffffffffffff1614610d6e576040517f08c379a0000000000000000000000000000000000000000000000000000000008152600401610d65906144eb565b60405180910390fd5b60005b82829050811015610e3a5736838383818110610db6577f4e487b7100000000000000000000000000000000000000000000000000000000600052603260045260246000fd5b9050604002019050806020016020810190610dd1919061366e565b600e60008360000135815260200190815260200160002060006101000a81548173ffffffffffffffffffffffffffffffffffffffff021916908373ffffffffffffffffffffffffffffffffffffffff160217905550508080610e32906149a0565b915050610d71565b505050565b60606000610e4c836120e5565b90508073ffffffffffffffffffffffffffffffffffffffff16803b806020016040519081016040528181526000908060200190933c915050919050565b60606000805b60658160ff161015610f27578373ffffffffffffffffffffffffffffffffffffffff16600e60008360ff16815260200190815260200160002060009054906101000a900473ffffffffffffffffffffffffffffffffffffffff1673ffffffffffffffffffffffffffffffffffffffff161415610f14578180610f10906149e9565b9250505b8080610f1f906149e9565b915050610e8f565b5060008160ff1667ffffffffffffffff811115610f6d577f4e487b7100000000000000000000000000000000000000000000000000000000600052604160045260246000fd5b604051908082528060200260200182016040528015610f9b5781602001602082028036833780820191505090505b5090506000915060005b60658160ff161015611089578473ffffffffffffffffffffffffffffffffffffffff16600e60008360ff16815260200190815260200160002060009054906101000a900473ffffffffffffffffffffffffffffffffffffffff1673ffffffffffffffffffffffffffffffffffffffff161415611076578060ff16828460ff168151811061105b577f4e487b7100000000000000000000000000000000000000000000000000000000600052603260045260246000fd5b6020026020010181815250508280611072906149e9565b9350505b8080611081906149e9565b915050610fa5565b508092505050919050565b6000806002600084815260200190815260200160002060009054906101000a900473ffffffffffffffffffffffffffffffffffffffff169050600073ffffffffffffffffffffffffffffffffffffffff168173ffffffffffffffffffffffffffffffffffffffff16141561113d576040517f08c379a00000000000000000000000000000000000000000000000000000000081526004016111349061446b565b60405180910390fd5b80915050919050565b60606000611153836120e5565b905060006111618483612197565b905061116c816122c8565b92505050919050565b6060600b8054806020026020016040519081016040528092919081815260200182805480156111c357602002820191906000526020600020905b8154815260200190600101908083116111af575b5050505050905090565b60008073ffffffffffffffffffffffffffffffffffffffff168273ffffffffffffffffffffffffffffffffffffffff16141561123e576040517f08c379a00000000000000000000000000000000000000000000000000000000081526004016112359061444b565b60405180910390fd5b600360008373ffffffffffffffffffffffffffffffffffffffff1673ffffffffffffffffffffffffffffffffffffffff168152602001908152602001600020549050919050565b61128d611cea565b73ffffffffffffffffffffffffffffffffffffffff166112ab611482565b73ffffffffffffffffffffffffffffffffffffffff1614611301576040517f08c379a00000000000000000000000000000000000000000000000000000000081526004016112f8906144eb565b60405180910390fd5b61130b60006122ff565b565b6000600180811115611348577f4e487b7100000000000000000000000000000000000000000000000000000000600052602160045260246000fd5b600660149054906101000a900460ff166001811115611390577f4e487b7100000000000000000000000000000000000000000000000000000000600052602160045260246000fd5b146113d0576040517f08c379a00000000000000000000000000000000000000000000000000000000081526004016113c7906143cb565b60405180910390fd5b6007543414611414576040517f08c379a000000000000000000000000000000000000000000000000000000000815260040161140b9061432b565b60405180910390fd5b600061142060096123c5565b90506127d98110611466576040517f08c379a000000000000000000000000000000000000000000000000000000000815260040161145d9061448b565b60405180910390fd5b61147060096123d3565b61147a83826123e9565b915050919050565b6000600660009054906101000a900473ffffffffffffffffffffffffffffffffffffffff16905090565b6060600180546114bb9061493d565b80601f01602080910402602001604051908101604052809291908181526020018280546114e79061493d565b80156115345780601f1061150957610100808354040283529160200191611534565b820191906000526020600020905b81548152906001019060200180831161151757829003601f168201915b5050505050905090565b611546611cea565b73ffffffffffffffffffffffffffffffffffffffff168273ffffffffffffffffffffffffffffffffffffffff1614156115b4576040517f08c379a00000000000000000000000000000000000000000000000000000000081526004016115ab906143eb565b60405180910390fd5b80600560006115c1611cea565b73ffffffffffffffffffffffffffffffffffffffff1673ffffffffffffffffffffffffffffffffffffffff16815260200190815260200160002060008473ffffffffffffffffffffffffffffffffffffffff1673ffffffffffffffffffffffffffffffffffffffff16815260200190815260200160002060006101000a81548160ff0219169083151502179055508173ffffffffffffffffffffffffffffffffffffffff1661166e611cea565b73ffffffffffffffffffffffffffffffffffffffff167f17307eab39ab6107e8899845ad3d59bd9653f200f220920489ca2b5937696c31836040516116b39190614231565b60405180910390a35050565b6116c7611cea565b73ffffffffffffffffffffffffffffffffffffffff166116e5611482565b73ffffffffffffffffffffffffffffffffffffffff161461173b576040517f08c379a0000000000000000000000000000000000000000000000000000000008152600401611732906144eb565b60405180910390fd5b6001600660146101000a81548160ff02191690836001811115611787577f4e487b7100000000000000000000000000000000000000000000000000000000600052602160045260246000fd5b0217905550565b6000600660149054906101000a900460ff16905090565b6117b66117b0611cea565b83611dab565b6117f5576040517f08c379a00000000000000000000000000000000000000000000000000000000081526004016117ec9061456b565b60405180910390fd5b61180184848484612504565b50505050565b60606000611814836120e5565b9050600061182182612560565b9050600061182f8584612197565b905061183b8282612617565b9350505050919050565b6000600e600083815260200190815260200160002060009054906101000a900473ffffffffffffffffffffffffffffffffffffffff169050919050565b6000600560008473ffffffffffffffffffffffffffffffffffffffff1673ffffffffffffffffffffffffffffffffffffffff16815260200190815260200160002060008373ffffffffffffffffffffffffffffffffffffffff1673ffffffffffffffffffffffffffffffffffffffff16815260200190815260200160002060009054906101000a900460ff16905092915050565b61191e611cea565b73ffffffffffffffffffffffffffffffffffffffff1661193c611482565b73ffffffffffffffffffffffffffffffffffffffff1614611992576040517f08c379a0000000000000000000000000000000000000000000000000000000008152600401611989906144eb565b60405180910390fd5b600073ffffffffffffffffffffffffffffffffffffffff168173ffffffffffffffffffffffffffffffffffffffff161415611a02576040517f08c379a00000000000000000000000000000000000000000000000000000000081526004016119f99061430b565b60405180910390fd5b611a0b816122ff565b50565b611a16611cea565b73ffffffffffffffffffffffffffffffffffffffff16611a34611482565b73ffffffffffffffffffffffffffffffffffffffff1614611a8a576040517f08c379a0000000000000000000000000000000000000000000000000000000008152600401611a81906144eb565b60405180910390fd5b8060078190555050565b60003373ffffffffffffffffffffffffffffffffffffffff16600e600084815260200190815260200160002060009054906101000a900473ffffffffffffffffffffffffffffffffffffffff1673ffffffffffffffffffffffffffffffffffffffff1614611b37576040517f08c379a0000000000000000000000000000000000000000000000000000000008152600401611b2e906142cb565b60405180910390fd5b6000600e600084815260200190815260200160002060006101000a81548173ffffffffffffffffffffffffffffffffffffffff021916908373ffffffffffffffffffffffffffffffffffffffff160217905550611b9483836123e9565b905092915050565b60007f80ac58cd000000000000000000000000000000000000000000000000000000007bffffffffffffffffffffffffffffffffffffffffffffffffffffffff1916827bffffffffffffffffffffffffffffffffffffffffffffffffffffffff19161480611c6757507f5b5e139f000000000000000000000000000000000000000000000000000000007bffffffffffffffffffffffffffffffffffffffffffffffffffffffff1916827bffffffffffffffffffffffffffffffffffffffffffffffffffffffff1916145b80611c775750611c7682612659565b5b9050919050565b60008073ffffffffffffffffffffffffffffffffffffffff166002600084815260200190815260200160002060009054906101000a900473ffffffffffffffffffffffffffffffffffffffff1673ffffffffffffffffffffffffffffffffffffffff1614159050919050565b600033905090565b816004600083815260200190815260200160002060006101000a81548173ffffffffffffffffffffffffffffffffffffffff021916908373ffffffffffffffffffffffffffffffffffffffff160217905550808273ffffffffffffffffffffffffffffffffffffffff16611d6583611094565b73ffffffffffffffffffffffffffffffffffffffff167f8c5be1e5ebec7d5bd14f71427d1e84f3dd0314c0f7b2291e5b200ac8c7c3b92560405160405180910390a45050565b6000611db682611c7e565b611df5576040517f08c379a0000000000000000000000000000000000000000000000000000000008152600401611dec9061440b565b60405180910390fd5b6000611e0083611094565b90508073ffffffffffffffffffffffffffffffffffffffff168473ffffffffffffffffffffffffffffffffffffffff161480611e6f57508373ffffffffffffffffffffffffffffffffffffffff16611e57846108c1565b73ffffffffffffffffffffffffffffffffffffffff16145b80611e805750611e7f8185611882565b5b91505092915050565b8273ffffffffffffffffffffffffffffffffffffffff16611ea982611094565b73ffffffffffffffffffffffffffffffffffffffff1614611eff576040517f08c379a0000000000000000000000000000000000000000000000000000000008152600401611ef69061450b565b60405180910390fd5b600073ffffffffffffffffffffffffffffffffffffffff168273ffffffffffffffffffffffffffffffffffffffff161415611f6f576040517f08c379a0000000000000000000000000000000000000000000000000000000008152600401611f66906143ab565b60405180910390fd5b611f7a8383836126c3565b611f85600082611cf2565b6001600360008573ffffffffffffffffffffffffffffffffffffffff1673ffffffffffffffffffffffffffffffffffffffff1681526020019081526020016000206000828254611fd591906147f7565b925050819055506001600360008473ffffffffffffffffffffffffffffffffffffffff1673ffffffffffffffffffffffffffffffffffffffff168152602001908152602001600020600082825461202c9190614716565b92505081905550816002600083815260200190815260200160002060006101000a81548173ffffffffffffffffffffffffffffffffffffffff021916908373ffffffffffffffffffffffffffffffffffffffff160217905550808273ffffffffffffffffffffffffffffffffffffffff168473ffffffffffffffffffffffffffffffffffffffff167fddf252ad1be2c89b69c2b068fc378daa952ba7f163c4a11628f55a4df523b3ef60405160405180910390a4505050565b600080600a600084815260200190815260200160002060009054906101000a900473ffffffffffffffffffffffffffffffffffffffff169050600073ffffffffffffffffffffffffffffffffffffffff168173ffffffffffffffffffffffffffffffffffffffff16141561218e576040517f08c379a00000000000000000000000000000000000000000000000000000000081526004016121859061436b565b60405180910390fd5b80915050919050565b61219f61352b565b6000808373ffffffffffffffffffffffffffffffffffffffff166040516121c59061410c565b600060405180830381855afa9150503d8060008114612200576040519150601f19603f3d011682016040523d82523d6000602084013e612205565b606091505b50915091508161224a576040517f08c379a00000000000000000000000000000000000000000000000000000000081526004016122419061458b565b60405180910390fd5b600061225586612793565b90506040518060800160405280826040516020016122739190614121565b604051602081830303815290604052815260200183815260200161229688612940565b81526020016122ba8773ffffffffffffffffffffffffffffffffffffffff16612974565b815250935050505092915050565b606060006122d5836129fa565b9050806040516020016122e8919061405c565b604051602081830303815290604052915050919050565b6000600660009054906101000a900473ffffffffffffffffffffffffffffffffffffffff16905081600660006101000a81548173ffffffffffffffffffffffffffffffffffffffff021916908373ffffffffffffffffffffffffffffffffffffffff1602179055508173ffffffffffffffffffffffffffffffffffffffff168173ffffffffffffffffffffffffffffffffffffffff167f8be0079c531659141344cd1fd0a4f28419497f9722a3daafe3b4186f6b6457e060405160405180910390a35050565b600081600001549050919050565b6001816000016000828254019250508190555050565b6000808351602085016000f09050600073ffffffffffffffffffffffffffffffffffffffff168173ffffffffffffffffffffffffffffffffffffffff16141561245b577f4e487b7100000000000000000000000000000000000000000000000000000000600052600160045260246000fd5b80600a600085815260200190815260200160002060006101000a81548173ffffffffffffffffffffffffffffffffffffffff021916908373ffffffffffffffffffffffffffffffffffffffff1602179055506124b73384612a39565b7ff3a49663583623b9938240e94c937038afc982b749f42e8c4754206ecb514bae83826124e386612940565b6040516124f2939291906145e6565b60405180910390a18091505092915050565b61250f848484611e89565b61251b84848484612a57565b61255a576040517f08c379a0000000000000000000000000000000000000000000000000000000008152600401612551906142eb565b60405180910390fd5b50505050565b60606000808373ffffffffffffffffffffffffffffffffffffffff1660405161258890614143565b600060405180830381855afa9150503d80600081146125c3576040519150601f19603f3d011682016040523d82523d6000602084013e6125c8565b606091505b50915091508161260d576040517f08c379a0000000000000000000000000000000000000000000000000000000008152600401612604906145ab565b60405180910390fd5b8092505050919050565b60606000612624836129fa565b90508061263085612bee565b604051602001612641929190614158565b60405160208183030381529060405291505092915050565b60007f01ffc9a7000000000000000000000000000000000000000000000000000000007bffffffffffffffffffffffffffffffffffffffffffffffffffffffff1916827bffffffffffffffffffffffffffffffffffffffffffffffffffffffff1916149050919050565b6126ce838383612daa565b600073ffffffffffffffffffffffffffffffffffffffff168373ffffffffffffffffffffffffffffffffffffffff1614156127115761270c81612daf565b612750565b8173ffffffffffffffffffffffffffffffffffffffff168373ffffffffffffffffffffffffffffffffffffffff161461274f5761274e8382612ddb565b5b5b8273ffffffffffffffffffffffffffffffffffffffff168273ffffffffffffffffffffffffffffffffffffffff161461278e5761278d8282612f48565b5b505050565b606060008214156127db576040518060400160405280600181526020017f3000000000000000000000000000000000000000000000000000000000000000815250905061293b565b600082905060005b6000821461280d5780806127f6906149a0565b915050600a82612806919061476c565b91506127e3565b60008167ffffffffffffffff81111561284f577f4e487b7100000000000000000000000000000000000000000000000000000000600052604160045260246000fd5b6040519080825280601f01601f1916602001820160405280156128815781602001600182028036833780820191505090505b5090505b600085146129345760018261289a91906147f7565b9150600a856128a99190614a13565b60306128b59190614716565b60f81b8183815181106128f1577f4e487b7100000000000000000000000000000000000000000000000000000000600052603260045260246000fd5b60200101907effffffffffffffffffffffffffffffffffffffffffffffffffffffffffffff1916908160001a905350600a8561292d919061476c565b9450612885565b8093505050505b919050565b6060600861294d83612793565b60405160200161295e92919061407e565b6040516020818303038152906040529050919050565b606060008214156129bc576040518060400160405280600481526020017f307830300000000000000000000000000000000000000000000000000000000081525090506129f5565b600082905060005b600082146129e65780806129d7906149a0565b915050600882901c91506129c4565b6129f08482612fc7565b925050505b919050565b60608160000151826020015183604001518460600151604051602001612a2394939291906140a2565b6040516020818303038152906040529050919050565b612a538282604051806020016040528060008152506132c1565b5050565b6000612a788473ffffffffffffffffffffffffffffffffffffffff1661331c565b15612be1578373ffffffffffffffffffffffffffffffffffffffff1663150b7a02612aa1611cea565b8786866040518563ffffffff1660e01b8152600401612ac394939291906141c3565b602060405180830381600087803b158015612add57600080fd5b505af1925050508015612b0e57506040513d601f19601f82011682018060405250810190612b0b9190613883565b60015b612b91573d8060008114612b3e576040519150601f19603f3d011682016040523d82523d6000602084013e612b43565b606091505b50600081511415612b89576040517f08c379a0000000000000000000000000000000000000000000000000000000008152600401612b80906142eb565b60405180910390fd5b805181602001fd5b63150b7a0260e01b7bffffffffffffffffffffffffffffffffffffffffffffffffffffffff1916817bffffffffffffffffffffffffffffffffffffffffffffffffffffffff191614915050612be6565b600190505b949350505050565b6060600082511415612c0257819050612da5565b60007f4142434445464748494a4b4c4d4e4f505152535455565758595a616263646566905060007f6768696a6b6c6d6e6f707172737475767778797a303132333435363738392b2f90506000612c58855161332f565b67ffffffffffffffff811115612c97577f4e487b7100000000000000000000000000000000000000000000000000000000600052604160045260246000fd5b6040519080825280601f01601f191660200182016040528015612cc95781602001600182028036833780820191505090505b50905060008551905060208601602083015b6000831115612d6b57815160101c601e60f0601e861015612d19578591508286601e0360031b1c925060066004870983811b9350808760031b019150505b818603955081850194505b6000811115612d635760068103905082603f821b16811c89601f821115612d4f578990506020820391505b80821a808753600187019650505050612d24565b505050612cdb565b600388510660018114612d855760028114612d9557612d9a565b603d8253603d8260010153612d9a565b603d82535b505050819450505050505b919050565b505050565b600b81908060018154018082558091505060019003906000526020600020016000909190919091505550565b60006001612de8846111cd565b612df291906147f7565b90506000600d6000848152602001908152602001600020549050818114612ed7576000600c60008673ffffffffffffffffffffffffffffffffffffffff1673ffffffffffffffffffffffffffffffffffffffff168152602001908152602001600020600084815260200190815260200160002054905080600c60008773ffffffffffffffffffffffffffffffffffffffff1673ffffffffffffffffffffffffffffffffffffffff16815260200190815260200160002060008481526020019081526020016000208190555081600d600083815260200190815260200160002081905550505b600d600084815260200190815260200160002060009055600c60008573ffffffffffffffffffffffffffffffffffffffff1673ffffffffffffffffffffffffffffffffffffffff16815260200190815260200160002060008381526020019081526020016000206000905550505050565b6000612f53836111cd565b905081600c60008573ffffffffffffffffffffffffffffffffffffffff1673ffffffffffffffffffffffffffffffffffffffff16815260200190815260200160002060008381526020019081526020016000208190555080600d600084815260200190815260200160002081905550505050565b606060006002836002612fda919061479d565b612fe49190614716565b67ffffffffffffffff811115613023577f4e487b7100000000000000000000000000000000000000000000000000000000600052604160045260246000fd5b6040519080825280601f01601f1916602001820160405280156130555781602001600182028036833780820191505090505b5090507f3000000000000000000000000000000000000000000000000000000000000000816000815181106130b3577f4e487b7100000000000000000000000000000000000000000000000000000000600052603260045260246000fd5b60200101907effffffffffffffffffffffffffffffffffffffffffffffffffffffffffffff1916908160001a9053507f78000000000000000000000000000000000000000000000000000000000000008160018151811061313d577f4e487b7100000000000000000000000000000000000000000000000000000000600052603260045260246000fd5b60200101907effffffffffffffffffffffffffffffffffffffffffffffffffffffffffffff1916908160001a9053506000600184600261317d919061479d565b6131879190614716565b90505b6001811115613273577f3031323334353637383961626364656600000000000000000000000000000000600f8616601081106131ef577f4e487b7100000000000000000000000000000000000000000000000000000000600052603260045260246000fd5b1a60f81b82828151811061322c577f4e487b7100000000000000000000000000000000000000000000000000000000600052603260045260246000fd5b60200101907effffffffffffffffffffffffffffffffffffffffffffffffffffffffffffff1916908160001a905350600485901c94508061326c90614913565b905061318a565b50600084146132b7576040517f08c379a00000000000000000000000000000000000000000000000000000000081526004016132ae906142ab565b60405180910390fd5b8091505092915050565b6132cb838361335d565b6132d86000848484612a57565b613317576040517f08c379a000000000000000000000000000000000000000000000000000000000815260040161330e906142eb565b60405180910390fd5b505050565b600080823b905060008111915050919050565b6000600460036002846133429190614716565b61334c919061476c565b613356919061479d565b9050919050565b600073ffffffffffffffffffffffffffffffffffffffff168273ffffffffffffffffffffffffffffffffffffffff1614156133cd576040517f08c379a00000000000000000000000000000000000000000000000000000000081526004016133c4906144ab565b60405180910390fd5b6133d681611c7e565b15613416576040517f08c379a000000000000000000000000000000000000000000000000000000000815260040161340d9061434b565b60405180910390fd5b613422600083836126c3565b6001600360008473ffffffffffffffffffffffffffffffffffffffff1673ffffffffffffffffffffffffffffffffffffffff16815260200190815260200160002060008282546134729190614716565b92505081905550816002600083815260200190815260200160002060006101000a81548173ffffffffffffffffffffffffffffffffffffffff021916908373ffffffffffffffffffffffffffffffffffffffff160217905550808273ffffffffffffffffffffffffffffffffffffffff16600073ffffffffffffffffffffffffffffffffffffffff167fddf252ad1be2c89b69c2b068fc378daa952ba7f163c4a11628f55a4df523b3ef60405160405180910390a45050565b6040518060800160405280606081526020016060815260200160608152602001606081525090565b600061356661356184614649565b614624565b90508281526020810184848401111561357e57600080fd5b6135898482856148d1565b509392505050565b6000813590506135a081615355565b92915050565b60008083601f8401126135b857600080fd5b8235905067ffffffffffffffff8111156135d157600080fd5b6020830191508360408202830111156135e957600080fd5b9250929050565b6000813590506135ff8161536c565b92915050565b60008135905061361481615383565b92915050565b60008151905061362981615383565b92915050565b600082601f83011261364057600080fd5b8135613650848260208601613553565b91505092915050565b6000813590506136688161539a565b92915050565b60006020828403121561368057600080fd5b600061368e84828501613591565b91505092915050565b600080604083850312156136aa57600080fd5b60006136b885828601613591565b92505060206136c985828601613591565b9150509250929050565b6000806000606084860312156136e857600080fd5b60006136f686828701613591565b935050602061370786828701613591565b925050604061371886828701613659565b9150509250925092565b6000806000806080858703121561373857600080fd5b600061374687828801613591565b945050602061375787828801613591565b935050604061376887828801613659565b925050606085013567ffffffffffffffff81111561378557600080fd5b6137918782880161362f565b91505092959194509250565b600080604083850312156137b057600080fd5b60006137be85828601613591565b92505060206137cf858286016135f0565b9150509250929050565b600080604083850312156137ec57600080fd5b60006137fa85828601613591565b925050602061380b85828601613659565b9150509250929050565b6000806020838503121561382857600080fd5b600083013567ffffffffffffffff81111561384257600080fd5b61384e858286016135a6565b92509250509250929050565b60006020828403121561386c57600080fd5b600061387a84828501613605565b91505092915050565b60006020828403121561389557600080fd5b60006138a38482850161361a565b91505092915050565b6000602082840312156138be57600080fd5b600082013567ffffffffffffffff8111156138d857600080fd5b6138e48482850161362f565b91505092915050565b6000806040838503121561390057600080fd5b600083013567ffffffffffffffff81111561391a57600080fd5b6139268582860161362f565b925050602061393785828601613659565b9150509250929050565b60006020828403121561395357600080fd5b600061396184828501613659565b91505092915050565b6000613976838361403e565b60208301905092915050565b61398b8161482b565b82525050565b600061399c8261469f565b6139a681856146cd565b93506139b18361467a565b8060005b838110156139e25781516139c9888261396a565b97506139d4836146c0565b9250506001810190506139b5565b5085935050505092915050565b6139f88161483d565b82525050565b6000613a09826146aa565b613a1381856146de565b9350613a238185602086016148e0565b613a2c81614b2f565b840191505092915050565b613a40816148bf565b82525050565b6000613a51826146b5565b613a5b81856146fa565b9350613a6b8185602086016148e0565b613a7481614b2f565b840191505092915050565b6000613a8a826146b5565b613a94818561470b565b9350613aa48185602086016148e0565b80840191505092915050565b60008154613abd8161493d565b613ac7818661470b565b94506001821660008114613ae25760018114613af357613b26565b60ff19831686528186019350613b26565b613afc8561468a565b60005b83811015613b1e57815481890152600182019150602081019050613aff565b838801955050505b50505092915050565b6000613b3c60108361470b565b9150613b4782614b40565b601082019050919050565b6000613b5f6020836146fa565b9150613b6a82614b69565b602082019050919050565b6000613b8260098361470b565b9150613b8d82614b92565b600982019050919050565b6000613ba560128361470b565b9150613bb082614bbb565b601282019050919050565b6000613bc8600f836146fa565b9150613bd382614be4565b602082019050919050565b6000613beb6032836146fa565b9150613bf682614c0d565b604082019050919050565b6000613c0e6026836146fa565b9150613c1982614c5c565b604082019050919050565b6000613c31600b836146fa565b9150613c3c82614cab565b602082019050919050565b6000613c54601c836146fa565b9150613c5f82614cd4565b602082019050919050565b6000613c77600a836146fa565b9150613c8282614cfd565b602082019050919050565b6000613c9a601a836146fa565b9150613ca582614d26565b602082019050919050565b6000613cbd60a08361470b565b9150613cc882614d4f565b60a082019050919050565b6000613ce06024836146fa565b9150613ceb82614e10565b604082019050919050565b6000613d036008836146fa565b9150613d0e82614e5f565b602082019050919050565b6000613d266019836146fa565b9150613d3182614e88565b602082019050919050565b6000613d4960118361470b565b9150613d5482614eb1565b601182019050919050565b6000613d6c602c836146fa565b9150613d7782614eda565b604082019050919050565b6000613d8f60158361470b565b9150613d9a82614f29565b601582019050919050565b6000613db2600b8361470b565b9150613dbd82614f52565b600b82019050919050565b6000613dd56038836146fa565b9150613de082614f7b565b604082019050919050565b6000613df8602a836146fa565b9150613e0382614fca565b604082019050919050565b6000613e1b6029836146fa565b9150613e2682615019565b604082019050919050565b6000613e3e6008836146fa565b9150613e4982615068565b602082019050919050565b6000613e6160028361470b565b9150613e6c82615091565b600282019050919050565b6000613e846020836146fa565b9150613e8f826150ba565b602082019050919050565b6000613ea7602c836146fa565b9150613eb2826150e3565b604082019050919050565b6000613eca6020836146fa565b9150613ed582615132565b602082019050919050565b6000613eed6029836146fa565b9150613ef88261515b565b604082019050919050565b6000613f106001836146ef565b9150613f1b826151aa565b600182019050919050565b6000613f336021836146fa565b9150613f3e826151d3565b604082019050919050565b6000613f5660078361470b565b9150613f6182615222565b600782019050919050565b6000613f796019836146fa565b9150613f848261524b565b602082019050919050565b6000613f9c6000836146ef565b9150613fa782615274565b600082019050919050565b6000613fbf6031836146fa565b9150613fca82615277565b604082019050919050565b6000613fe26010836146fa565b9150613fed826152c6565b602082019050919050565b60006140056013836146fa565b9150614010826152ef565b602082019050919050565b600061402860168361470b565b915061403382615318565b601682019050919050565b614047816148a8565b82525050565b614056816148a8565b82525050565b60006140688284613a7f565b915061407382613e54565b915081905092915050565b600061408a8285613ab0565b91506140968284613a7f565b91508190509392505050565b60006140ad82613b75565b91506140b98287613a7f565b91506140c482613d3c565b91506140d08286613a7f565b91506140db82613b98565b91506140e78285613a7f565b91506140f282613d82565b91506140fe8284613a7f565b915081905095945050505050565b600061411782613f03565b9150819050919050565b600061412c82613f49565b91506141388284613a7f565b915081905092915050565b600061414e82613f8f565b9150819050919050565b60006141638261401b565b915061416f8285613a7f565b915061417a82613b2f565b915061418582613cb0565b91506141918284613a7f565b915061419c82613da5565b91508190509392505050565b60006020820190506141bd6000830184613982565b92915050565b60006080820190506141d86000830187613982565b6141e56020830186613982565b6141f2604083018561404d565b818103606083015261420481846139fe565b905095945050505050565b600060208201905081810360008301526142298184613991565b905092915050565b600060208201905061424660008301846139ef565b92915050565b6000602082019050818103600083015261426681846139fe565b905092915050565b60006020820190506142836000830184613a37565b92915050565b600060208201905081810360008301526142a38184613a46565b905092915050565b600060208201905081810360008301526142c481613b52565b9050919050565b600060208201905081810360008301526142e481613bbb565b9050919050565b6000602082019050818103600083015261430481613bde565b9050919050565b6000602082019050818103600083015261432481613c01565b9050919050565b6000602082019050818103600083015261434481613c24565b9050919050565b6000602082019050818103600083015261436481613c47565b9050919050565b6000602082019050818103600083015261438481613c6a565b9050919050565b600060208201905081810360008301526143a481613c8d565b9050919050565b600060208201905081810360008301526143c481613cd3565b9050919050565b600060208201905081810360008301526143e481613cf6565b9050919050565b6000602082019050818103600083015261440481613d19565b9050919050565b6000602082019050818103600083015261442481613d5f565b9050919050565b6000602082019050818103600083015261444481613dc8565b9050919050565b6000602082019050818103600083015261446481613deb565b9050919050565b6000602082019050818103600083015261448481613e0e565b9050919050565b600060208201905081810360008301526144a481613e31565b9050919050565b600060208201905081810360008301526144c481613e77565b9050919050565b600060208201905081810360008301526144e481613e9a565b9050919050565b6000602082019050818103600083015261450481613ebd565b9050919050565b6000602082019050818103600083015261452481613ee0565b9050919050565b6000602082019050818103600083015261454481613f26565b9050919050565b6000602082019050818103600083015261456481613f6c565b9050919050565b6000602082019050818103600083015261458481613fb2565b9050919050565b600060208201905081810360008301526145a481613fd5565b9050919050565b600060208201905081810360008301526145c481613ff8565b9050919050565b60006020820190506145e0600083018461404d565b92915050565b60006060820190506145fb600083018661404d565b6146086020830185613982565b818103604083015261461a8184613a46565b9050949350505050565b600061462e61463f565b905061463a828261496f565b919050565b6000604051905090565b600067ffffffffffffffff82111561466457614663614b00565b5b61466d82614b2f565b9050602081019050919050565b6000819050602082019050919050565b60008190508160005260206000209050919050565b600081519050919050565b600081519050919050565b600081519050919050565b6000602082019050919050565b600082825260208201905092915050565b600082825260208201905092915050565b600081905092915050565b600082825260208201905092915050565b600081905092915050565b6000614721826148a8565b915061472c836148a8565b9250827fffffffffffffffffffffffffffffffffffffffffffffffffffffffffffffffff0382111561476157614760614a44565b5b828201905092915050565b6000614777826148a8565b9150614782836148a8565b92508261479257614791614a73565b5b828204905092915050565b60006147a8826148a8565b91506147b3836148a8565b9250817fffffffffffffffffffffffffffffffffffffffffffffffffffffffffffffffff04831182151516156147ec576147eb614a44565b5b828202905092915050565b6000614802826148a8565b915061480d836148a8565b9250828210156148205761481f614a44565b5b828203905092915050565b600061483682614888565b9050919050565b60008115159050919050565b60007fffffffff0000000000000000000000000000000000000000000000000000000082169050919050565b600081905061488382615341565b919050565b600073ffffffffffffffffffffffffffffffffffffffff82169050919050565b6000819050919050565b600060ff82169050919050565b60006148ca82614875565b9050919050565b82818337600083830152505050565b60005b838110156148fe5780820151818401526020810190506148e3565b8381111561490d576000848401525b50505050565b600061491e826148a8565b9150600082141561493257614931614a44565b5b600182039050919050565b6000600282049050600182168061495557607f821691505b6020821081141561496957614968614ad1565b5b50919050565b61497882614b2f565b810181811067ffffffffffffffff8211171561499757614996614b00565b5b80604052505050565b60006149ab826148a8565b91507fffffffffffffffffffffffffffffffffffffffffffffffffffffffffffffffff8214156149de576149dd614a44565b5b600182019050919050565b60006149f4826148b2565b915060ff821415614a0857614a07614a44565b5b600182019050919050565b6000614a1e826148a8565b9150614a29836148a8565b925082614a3957614a38614a73565b5b828206905092915050565b7f4e487b7100000000000000000000000000000000000000000000000000000000600052601160045260246000fd5b7f4e487b7100000000000000000000000000000000000000000000000000000000600052601260045260246000fd5b7f4e487b7100000000000000000000000000000000000000000000000000000000600052602160045260246000fd5b7f4e487b7100000000000000000000000000000000000000000000000000000000600052602260045260246000fd5b7f4e487b7100000000000000000000000000000000000000000000000000000000600052604160045260246000fd5b6000601f19601f8301169050919050565b7f222c22696d6167655f64617461223a2200000000000000000000000000000000600082015250565b7f537472696e67733a20686578206c656e67746820696e73756666696369656e74600082015250565b7f7b226e616d65223a220000000000000000000000000000000000000000000000600082015250565b7f222c2265787465726e616c5f75726c223a220000000000000000000000000000600082015250565b7f4e4f545f414c4c4f574c49535445440000000000000000000000000000000000600082015250565b7f4552433732313a207472616e7366657220746f206e6f6e20455243373231526560008201527f63656976657220696d706c656d656e7465720000000000000000000000000000602082015250565b7f4f776e61626c653a206e6577206f776e657220697320746865207a65726f206160008201527f6464726573730000000000000000000000000000000000000000000000000000602082015250565b7f57524f4e475f5052494345000000000000000000000000000000000000000000600082015250565b7f4552433732313a20746f6b656e20616c7265616479206d696e74656400000000600082015250565b7f554e4b4e4f574e5f494400000000000000000000000000000000000000000000600082015250565b7f676c6f62616c20696e646578206f7574206f6620626f756e6473000000000000600082015250565b7f3c73766720786d6c6e733d27687474703a2f2f7777772e77332e6f72672f323060008201527f30302f737667272077696474683d2733303327206865696768743d273330332760208201527f3e3c696d6167652077696474683d2733303327206865696768743d273330332760408201527f207374796c653d27696d6167652d72656e646572696e673a20706978656c617460608201527f65642720687265663d27646174613a696d6167652f626d703b6261736536342c608082015250565b7f4552433732313a207472616e7366657220746f20746865207a65726f2061646460008201527f7265737300000000000000000000000000000000000000000000000000000000602082015250565b7f4e4f545f4f50454e000000000000000000000000000000000000000000000000600082015250565b7f4552433732313a20617070726f766520746f2063616c6c657200000000000000600082015250565b7f222c226465736372697074696f6e223a22000000000000000000000000000000600082015250565b7f4552433732313a206f70657261746f7220717565727920666f72206e6f6e657860008201527f697374656e7420746f6b656e0000000000000000000000000000000000000000602082015250565b7f222c2264726177696e675f61646472657373223a220000000000000000000000600082015250565b7f272f3e3c2f7376673e227d000000000000000000000000000000000000000000600082015250565b7f4552433732313a20617070726f76652063616c6c6572206973206e6f74206f7760008201527f6e6572206e6f7220617070726f76656420666f7220616c6c0000000000000000602082015250565b7f4552433732313a2062616c616e636520717565727920666f7220746865207a6560008201527f726f206164647265737300000000000000000000000000000000000000000000602082015250565b7f4552433732313a206f776e657220717565727920666f72206e6f6e657869737460008201527f656e7420746f6b656e0000000000000000000000000000000000000000000000602082015250565b7f534f4c445f4f5554000000000000000000000000000000000000000000000000600082015250565b7f227d000000000000000000000000000000000000000000000000000000000000600082015250565b7f4552433732313a206d696e7420746f20746865207a65726f2061646472657373600082015250565b7f4552433732313a20617070726f76656420717565727920666f72206e6f6e657860008201527f697374656e7420746f6b656e0000000000000000000000000000000000000000602082015250565b7f4f776e61626c653a2063616c6c6572206973206e6f7420746865206f776e6572600082015250565b7f4552433732313a207472616e73666572206f6620746f6b656e2074686174206960008201527f73206e6f74206f776e0000000000000000000000000000000000000000000000602082015250565b7fde00000000000000000000000000000000000000000000000000000000000000600082015250565b7f4552433732313a20617070726f76616c20746f2063757272656e74206f776e6560008201527f7200000000000000000000000000000000000000000000000000000000000000602082015250565b7f44424e4654202300000000000000000000000000000000000000000000000000600082015250565b7f6f776e657220696e646578206f7574206f6620626f756e647300000000000000600082015250565b50565b7f4552433732313a207472616e736665722063616c6c6572206973206e6f74206f60008201527f776e6572206e6f7220617070726f766564000000000000000000000000000000602082015250565b7f4445534352495054494f4e5f4641494c00000000000000000000000000000000600082015250565b7f6661696c7572652072656e6465722063616c6c00000000000000000000000000600082015250565b7f646174613a6170706c69636174696f6e2f6a736f6e2c00000000000000000000600082015250565b6002811061535257615351614aa2565b5b50565b61535e8161482b565b811461536957600080fd5b50565b6153758161483d565b811461538057600080fd5b50565b61538c81614849565b811461539757600080fd5b50565b6153a3816148a8565b81146153ae57600080fd5b5056fea2646970667358221220c59cbb7b62c8ddd83b5a3f50ad37757ed26285d0ffc6c5da9c5776d1d1df84b664736f6c63430008040033",
  "linkReferences": {},
  "deployedLinkReferences": {}
}