{
  "_format": "hh-sol-artifact-1",
  "contractName": "DBNCoordinator",
  "sourceName": "contracts/DBNCoordinator.sol",
  "abi": [
    {
      "inputs": [
        {
          "internalType": "string",
          "name": "baseExternalURI",
          "type": "string"
        }
      ],
      "stateMutability": "nonpayable",
      "type": "constructor"
    },
    {
      "anonymous": false,
      "inputs": [
        {
          "indexed": true,
          "internalType": "address",
          "name": "owner",
          "type": "address"
        },
        {
          "indexed": true,
          "internalType": "address",
          "name": "approved",
          "type": "address"
        },
        {
          "indexed": true,
          "internalType": "uint256",
          "name": "tokenId",
          "type": "uint256"
        }
      ],
      "name": "Approval",
      "type": "event"
    },
    {
      "anonymous": false,
      "inputs": [
        {
          "indexed": true,
          "internalType": "address",
          "name": "owner",
          "type": "address"
        },
        {
          "indexed": true,
          "internalType": "address",
          "name": "operator",
          "type": "address"
        },
        {
          "indexed": false,
          "internalType": "bool",
          "name": "approved",
          "type": "bool"
        }
      ],
      "name": "ApprovalForAll",
      "type": "event"
    },
    {
      "anonymous": false,
      "inputs": [
        {
          "indexed": false,
          "internalType": "uint256",
          "name": "tokenId",
          "type": "uint256"
        },
        {
          "indexed": false,
          "internalType": "address",
          "name": "addr",
          "type": "address"
        },
        {
          "indexed": false,
          "internalType": "string",
          "name": "externalURL",
          "type": "string"
        }
      ],
      "name": "DrawingDeployed",
      "type": "event"
    },
    {
      "anonymous": false,
      "inputs": [
        {
          "indexed": true,
          "internalType": "address",
          "name": "from",
          "type": "address"
        },
        {
          "indexed": true,
          "internalType": "address",
          "name": "to",
          "type": "address"
        },
        {
          "indexed": true,
          "internalType": "uint256",
          "name": "tokenId",
          "type": "uint256"
        }
      ],
      "name": "Transfer",
      "type": "event"
    },
    {
      "inputs": [
        {
          "internalType": "address",
          "name": "to",
          "type": "address"
        },
        {
          "internalType": "uint256",
          "name": "tokenId",
          "type": "uint256"
        }
      ],
      "name": "approve",
      "outputs": [],
      "stateMutability": "nonpayable",
      "type": "function"
    },
    {
      "inputs": [
        {
          "internalType": "address",
          "name": "owner",
          "type": "address"
        }
      ],
      "name": "balanceOf",
      "outputs": [
        {
          "internalType": "uint256",
          "name": "",
          "type": "uint256"
        }
      ],
      "stateMutability": "view",
      "type": "function"
    },
    {
      "inputs": [
        {
          "internalType": "bytes",
          "name": "bytecode",
          "type": "bytes"
        }
      ],
      "name": "deploy",
      "outputs": [
        {
          "internalType": "address",
          "name": "",
          "type": "address"
        }
      ],
      "stateMutability": "nonpayable",
      "type": "function"
    },
    {
      "inputs": [
        {
          "internalType": "uint256",
          "name": "tokenId",
          "type": "uint256"
        }
      ],
      "name": "getApproved",
      "outputs": [
        {
          "internalType": "address",
          "name": "",
          "type": "address"
        }
      ],
      "stateMutability": "view",
      "type": "function"
    },
    {
      "inputs": [
        {
          "internalType": "address",
          "name": "owner",
          "type": "address"
        },
        {
          "internalType": "address",
          "name": "operator",
          "type": "address"
        }
      ],
      "name": "isApprovedForAll",
      "outputs": [
        {
          "internalType": "bool",
          "name": "",
          "type": "bool"
        }
      ],
      "stateMutability": "view",
      "type": "function"
    },
    {
      "inputs": [],
      "name": "name",
      "outputs": [
        {
          "internalType": "string",
          "name": "",
          "type": "string"
        }
      ],
      "stateMutability": "view",
      "type": "function"
    },
    {
      "inputs": [
        {
          "internalType": "uint256",
          "name": "tokenId",
          "type": "uint256"
        }
      ],
      "name": "ownerOf",
      "outputs": [
        {
          "internalType": "address",
          "name": "",
          "type": "address"
        }
      ],
      "stateMutability": "view",
      "type": "function"
    },
    {
      "inputs": [
        {
          "internalType": "address",
          "name": "from",
          "type": "address"
        },
        {
          "internalType": "address",
          "name": "to",
          "type": "address"
        },
        {
          "internalType": "uint256",
          "name": "tokenId",
          "type": "uint256"
        }
      ],
      "name": "safeTransferFrom",
      "outputs": [],
      "stateMutability": "nonpayable",
      "type": "function"
    },
    {
      "inputs": [
        {
          "internalType": "address",
          "name": "from",
          "type": "address"
        },
        {
          "internalType": "address",
          "name": "to",
          "type": "address"
        },
        {
          "internalType": "uint256",
          "name": "tokenId",
          "type": "uint256"
        },
        {
          "internalType": "bytes",
          "name": "_data",
          "type": "bytes"
        }
      ],
      "name": "safeTransferFrom",
      "outputs": [],
      "stateMutability": "nonpayable",
      "type": "function"
    },
    {
      "inputs": [
        {
          "internalType": "address",
          "name": "operator",
          "type": "address"
        },
        {
          "internalType": "bool",
          "name": "approved",
          "type": "bool"
        }
      ],
      "name": "setApprovalForAll",
      "outputs": [],
      "stateMutability": "nonpayable",
      "type": "function"
    },
    {
      "inputs": [
        {
          "internalType": "bytes4",
          "name": "interfaceId",
          "type": "bytes4"
        }
      ],
      "name": "supportsInterface",
      "outputs": [
        {
          "internalType": "bool",
          "name": "",
          "type": "bool"
        }
      ],
      "stateMutability": "view",
      "type": "function"
    },
    {
      "inputs": [],
      "name": "symbol",
      "outputs": [
        {
          "internalType": "string",
          "name": "",
          "type": "string"
        }
      ],
      "stateMutability": "view",
      "type": "function"
    },
    {
      "inputs": [
        {
          "internalType": "uint256",
          "name": "index",
          "type": "uint256"
        }
      ],
      "name": "tokenByIndex",
      "outputs": [
        {
          "internalType": "uint256",
          "name": "",
          "type": "uint256"
        }
      ],
      "stateMutability": "view",
      "type": "function"
    },
    {
      "inputs": [
        {
          "internalType": "uint256",
          "name": "tokenId",
          "type": "uint256"
        }
      ],
      "name": "tokenCode",
      "outputs": [
        {
          "internalType": "bytes",
          "name": "",
          "type": "bytes"
        }
      ],
      "stateMutability": "view",
      "type": "function"
    },
    {
      "inputs": [
        {
          "internalType": "uint256",
          "name": "tokenId",
          "type": "uint256"
        }
      ],
      "name": "tokenMetadata",
      "outputs": [
        {
          "internalType": "string",
          "name": "",
          "type": "string"
        }
      ],
      "stateMutability": "view",
      "type": "function"
    },
    {
      "inputs": [
        {
          "internalType": "address",
          "name": "owner",
          "type": "address"
        },
        {
          "internalType": "uint256",
          "name": "index",
          "type": "uint256"
        }
      ],
      "name": "tokenOfOwnerByIndex",
      "outputs": [
        {
          "internalType": "uint256",
          "name": "",
          "type": "uint256"
        }
      ],
      "stateMutability": "view",
      "type": "function"
    },
    {
      "inputs": [
        {
          "internalType": "uint256",
          "name": "tokenId",
          "type": "uint256"
        }
      ],
      "name": "tokenURI",
      "outputs": [
        {
          "internalType": "string",
          "name": "",
          "type": "string"
        }
      ],
      "stateMutability": "view",
      "type": "function"
    },
    {
      "inputs": [],
      "name": "totalSupply",
      "outputs": [
        {
          "internalType": "uint256",
          "name": "",
          "type": "uint256"
        }
      ],
      "stateMutability": "view",
      "type": "function"
    },
    {
      "inputs": [
        {
          "internalType": "address",
          "name": "from",
          "type": "address"
        },
        {
          "internalType": "address",
          "name": "to",
          "type": "address"
        },
        {
          "internalType": "uint256",
          "name": "tokenId",
          "type": "uint256"
        }
      ],
      "name": "transferFrom",
      "outputs": [],
      "stateMutability": "nonpayable",
      "type": "function"
    }
  ],
  "bytecode": "0x60806040523480156200001157600080fd5b506040516200450438038062004504833981810160405281019062000037919062000219565b6040518060400160405280601581526020017f44657369676e204279204e756d62657273204e465400000000000000000000008152506040518060400160405280600581526020017f44424e46540000000000000000000000000000000000000000000000000000008152508160009080519060200190620000bb929190620000f7565b508060019080519060200190620000d4929190620000f7565b50505080600c9080519060200190620000ef929190620000f7565b5050620003ce565b8280546200010590620002f3565b90600052602060002090601f01602090048101928262000129576000855562000175565b82601f106200014457805160ff191683800117855562000175565b8280016001018555821562000175579182015b828111156200017457825182559160200191906001019062000157565b5b50905062000184919062000188565b5090565b5b80821115620001a357600081600090555060010162000189565b5090565b6000620001be620001b88462000287565b6200025e565b905082815260208101848484011115620001d757600080fd5b620001e4848285620002bd565b509392505050565b600082601f830112620001fe57600080fd5b815162000210848260208601620001a7565b91505092915050565b6000602082840312156200022c57600080fd5b600082015167ffffffffffffffff8111156200024757600080fd5b6200025584828501620001ec565b91505092915050565b60006200026a6200027d565b905062000278828262000329565b919050565b6000604051905090565b600067ffffffffffffffff821115620002a557620002a46200038e565b5b620002b082620003bd565b9050602081019050919050565b60005b83811015620002dd578082015181840152602081019050620002c0565b83811115620002ed576000848401525b50505050565b600060028204905060018216806200030c57607f821691505b602082108114156200032357620003226200035f565b5b50919050565b6200033482620003bd565b810181811067ffffffffffffffff821117156200035657620003556200038e565b5b80604052505050565b7f4e487b7100000000000000000000000000000000000000000000000000000000600052602260045260246000fd5b7f4e487b7100000000000000000000000000000000000000000000000000000000600052604160045260246000fd5b6000601f19601f8301169050919050565b61412680620003de6000396000f3fe608060405234801561001057600080fd5b50600436106101205760003560e01c80634f6ccce7116100ad57806395d89b411161007157806395d89b4114610365578063a22cb46514610383578063b88d4fde1461039f578063c87b56dd146103bb578063e985e9c5146103eb57610120565b80634f6ccce7146102755780635dca47b7146102a55780636352211e146102d55780636914db601461030557806370a082311461033557610120565b8063095ea7b3116100f4578063095ea7b3146101d357806318160ddd146101ef57806323b872dd1461020d5780632f745c591461022957806342842e0e1461025957610120565b80627743601461012557806301ffc9a71461015557806306fdde0314610185578063081812fc146101a3575b600080fd5b61013f600480360381019061013a9190612b2e565b61041b565b60405161014c919061324d565b60405180910390f35b61016f600480360381019061016a9190612adc565b61054e565b60405161017c91906132b4565b60405180910390f35b61018d6105c8565b60405161019a91906132f1565b60405180910390f35b6101bd60048036038101906101b89190612b6f565b61065a565b6040516101ca919061324d565b60405180910390f35b6101ed60048036038101906101e89190612aa0565b6106df565b005b6101f76107f7565b6040516102049190613573565b60405180910390f35b6102276004803603810190610222919061299a565b610804565b005b610243600480360381019061023e9190612aa0565b610864565b6040516102509190613573565b60405180910390f35b610273600480360381019061026e919061299a565b610909565b005b61028f600480360381019061028a9190612b6f565b610929565b60405161029c9190613573565b60405180910390f35b6102bf60048036038101906102ba9190612b6f565b6109c0565b6040516102cc91906132cf565b60405180910390f35b6102ef60048036038101906102ea9190612b6f565b610a0a565b6040516102fc919061324d565b60405180910390f35b61031f600480360381019061031a9190612b6f565b610abc565b60405161032c91906132f1565b60405180910390f35b61034f600480360381019061034a9190612935565b610aeb565b60405161035c9190613573565b60405180910390f35b61036d610ba3565b60405161037a91906132f1565b60405180910390f35b61039d60048036038101906103989190612a64565b610c35565b005b6103b960048036038101906103b491906129e9565b610db6565b005b6103d560048036038101906103d09190612b6f565b610e18565b6040516103e291906132f1565b60405180910390f35b6104056004803603810190610400919061295e565b610e56565b60405161041291906132b4565b60405180910390f35b6000808251602084016000f09050600073ffffffffffffffffffffffffffffffffffffffff168173ffffffffffffffffffffffffffffffffffffffff16141561048d577f4e487b7100000000000000000000000000000000000000000000000000000000600052600160045260246000fd5b6000610499600a610eea565b90506104a5600a610ef8565b81600b600083815260200190815260200160002060006101000a81548173ffffffffffffffffffffffffffffffffffffffff021916908373ffffffffffffffffffffffffffffffffffffffff1602179055506105013382610f0e565b7ff3a49663583623b9938240e94c937038afc982b749f42e8c4754206ecb514bae818361052d84610f2c565b60405161053c9392919061358e565b60405180910390a18192505050919050565b60007f780e9d63000000000000000000000000000000000000000000000000000000007bffffffffffffffffffffffffffffffffffffffffffffffffffffffff1916827bffffffffffffffffffffffffffffffffffffffffffffffffffffffff191614806105c157506105c082610f60565b5b9050919050565b6060600080546105d79061387a565b80601f01602080910402602001604051908101604052809291908181526020018280546106039061387a565b80156106505780601f1061062557610100808354040283529160200191610650565b820191906000526020600020905b81548152906001019060200180831161063357829003601f168201915b5050505050905090565b600061066582611042565b6106a4576040517f08c379a000000000000000000000000000000000000000000000000000000000815260040161069b90613493565b60405180910390fd5b6004600083815260200190815260200160002060009054906101000a900473ffffffffffffffffffffffffffffffffffffffff169050919050565b60006106ea82610a0a565b90508073ffffffffffffffffffffffffffffffffffffffff168373ffffffffffffffffffffffffffffffffffffffff16141561075b576040517f08c379a0000000000000000000000000000000000000000000000000000000008152600401610752906134d3565b60405180910390fd5b8073ffffffffffffffffffffffffffffffffffffffff1661077a6110ae565b73ffffffffffffffffffffffffffffffffffffffff1614806107a957506107a8816107a36110ae565b610e56565b5b6107e8576040517f08c379a00000000000000000000000000000000000000000000000000000000081526004016107df90613413565b60405180910390fd5b6107f283836110b6565b505050565b6000600880549050905090565b61081561080f6110ae565b8261116f565b610854576040517f08c379a000000000000000000000000000000000000000000000000000000000815260040161084b906134f3565b60405180910390fd5b61085f83838361124d565b505050565b600061086f83610aeb565b82106108b0576040517f08c379a00000000000000000000000000000000000000000000000000000000081526004016108a790613333565b60405180910390fd5b600660008473ffffffffffffffffffffffffffffffffffffffff1673ffffffffffffffffffffffffffffffffffffffff168152602001908152602001600020600083815260200190815260200160002054905092915050565b61092483838360405180602001604052806000815250610db6565b505050565b60006109336107f7565b8210610974576040517f08c379a000000000000000000000000000000000000000000000000000000000815260040161096b90613513565b60405180910390fd5b600882815481106109ae577f4e487b7100000000000000000000000000000000000000000000000000000000600052603260045260246000fd5b90600052602060002001549050919050565b606060006109cd836114a9565b90508073ffffffffffffffffffffffffffffffffffffffff16803b806020016040519081016040528181526000908060200190933c915050919050565b6000806002600084815260200190815260200160002060009054906101000a900473ffffffffffffffffffffffffffffffffffffffff169050600073ffffffffffffffffffffffffffffffffffffffff168173ffffffffffffffffffffffffffffffffffffffff161415610ab3576040517f08c379a0000000000000000000000000000000000000000000000000000000008152600401610aaa90613453565b60405180910390fd5b80915050919050565b60606000610ac9836114a9565b90506000610ad7848361155b565b9050610ae28161168c565b92505050919050565b60008073ffffffffffffffffffffffffffffffffffffffff168273ffffffffffffffffffffffffffffffffffffffff161415610b5c576040517f08c379a0000000000000000000000000000000000000000000000000000000008152600401610b5390613433565b60405180910390fd5b600360008373ffffffffffffffffffffffffffffffffffffffff1673ffffffffffffffffffffffffffffffffffffffff168152602001908152602001600020549050919050565b606060018054610bb29061387a565b80601f0160208091040260200160405190810160405280929190818152602001828054610bde9061387a565b8015610c2b5780601f10610c0057610100808354040283529160200191610c2b565b820191906000526020600020905b815481529060010190602001808311610c0e57829003601f168201915b5050505050905090565b610c3d6110ae565b73ffffffffffffffffffffffffffffffffffffffff168273ffffffffffffffffffffffffffffffffffffffff161415610cab576040517f08c379a0000000000000000000000000000000000000000000000000000000008152600401610ca2906133d3565b60405180910390fd5b8060056000610cb86110ae565b73ffffffffffffffffffffffffffffffffffffffff1673ffffffffffffffffffffffffffffffffffffffff16815260200190815260200160002060008473ffffffffffffffffffffffffffffffffffffffff1673ffffffffffffffffffffffffffffffffffffffff16815260200190815260200160002060006101000a81548160ff0219169083151502179055508173ffffffffffffffffffffffffffffffffffffffff16610d656110ae565b73ffffffffffffffffffffffffffffffffffffffff167f17307eab39ab6107e8899845ad3d59bd9653f200f220920489ca2b5937696c3183604051610daa91906132b4565b60405180910390a35050565b610dc7610dc16110ae565b8361116f565b610e06576040517f08c379a0000000000000000000000000000000000000000000000000000000008152600401610dfd906134f3565b60405180910390fd5b610e12848484846116c3565b50505050565b60606000610e25836114a9565b90506000610e328261171f565b90506000610e40858461155b565b9050610e4c82826117d6565b9350505050919050565b6000600560008473ffffffffffffffffffffffffffffffffffffffff1673ffffffffffffffffffffffffffffffffffffffff16815260200190815260200160002060008373ffffffffffffffffffffffffffffffffffffffff1673ffffffffffffffffffffffffffffffffffffffff16815260200190815260200160002060009054906101000a900460ff16905092915050565b600081600001549050919050565b6001816000016000828254019250508190555050565b610f28828260405180602001604052806000815250611818565b5050565b6060600c610f3983611873565b604051602001610f4a929190613123565b6040516020818303038152906040529050919050565b60007f80ac58cd000000000000000000000000000000000000000000000000000000007bffffffffffffffffffffffffffffffffffffffffffffffffffffffff1916827bffffffffffffffffffffffffffffffffffffffffffffffffffffffff1916148061102b57507f5b5e139f000000000000000000000000000000000000000000000000000000007bffffffffffffffffffffffffffffffffffffffffffffffffffffffff1916827bffffffffffffffffffffffffffffffffffffffffffffffffffffffff1916145b8061103b575061103a82611a20565b5b9050919050565b60008073ffffffffffffffffffffffffffffffffffffffff166002600084815260200190815260200160002060009054906101000a900473ffffffffffffffffffffffffffffffffffffffff1673ffffffffffffffffffffffffffffffffffffffff1614159050919050565b600033905090565b816004600083815260200190815260200160002060006101000a81548173ffffffffffffffffffffffffffffffffffffffff021916908373ffffffffffffffffffffffffffffffffffffffff160217905550808273ffffffffffffffffffffffffffffffffffffffff1661112983610a0a565b73ffffffffffffffffffffffffffffffffffffffff167f8c5be1e5ebec7d5bd14f71427d1e84f3dd0314c0f7b2291e5b200ac8c7c3b92560405160405180910390a45050565b600061117a82611042565b6111b9576040517f08c379a00000000000000000000000000000000000000000000000000000000081526004016111b0906133f3565b60405180910390fd5b60006111c483610a0a565b90508073ffffffffffffffffffffffffffffffffffffffff168473ffffffffffffffffffffffffffffffffffffffff16148061123357508373ffffffffffffffffffffffffffffffffffffffff1661121b8461065a565b73ffffffffffffffffffffffffffffffffffffffff16145b8061124457506112438185610e56565b5b91505092915050565b8273ffffffffffffffffffffffffffffffffffffffff1661126d82610a0a565b73ffffffffffffffffffffffffffffffffffffffff16146112c3576040517f08c379a00000000000000000000000000000000000000000000000000000000081526004016112ba906134b3565b60405180910390fd5b600073ffffffffffffffffffffffffffffffffffffffff168273ffffffffffffffffffffffffffffffffffffffff161415611333576040517f08c379a000000000000000000000000000000000000000000000000000000000815260040161132a906133b3565b60405180910390fd5b61133e838383611a8a565b6113496000826110b6565b6001600360008573ffffffffffffffffffffffffffffffffffffffff1673ffffffffffffffffffffffffffffffffffffffff16815260200190815260200160002060008282546113999190613766565b925050819055506001600360008473ffffffffffffffffffffffffffffffffffffffff1673ffffffffffffffffffffffffffffffffffffffff16815260200190815260200160002060008282546113f09190613685565b92505081905550816002600083815260200190815260200160002060006101000a81548173ffffffffffffffffffffffffffffffffffffffff021916908373ffffffffffffffffffffffffffffffffffffffff160217905550808273ffffffffffffffffffffffffffffffffffffffff168473ffffffffffffffffffffffffffffffffffffffff167fddf252ad1be2c89b69c2b068fc378daa952ba7f163c4a11628f55a4df523b3ef60405160405180910390a4505050565b600080600b600084815260200190815260200160002060009054906101000a900473ffffffffffffffffffffffffffffffffffffffff169050600073ffffffffffffffffffffffffffffffffffffffff168173ffffffffffffffffffffffffffffffffffffffff161415611552576040517f08c379a000000000000000000000000000000000000000000000000000000000815260040161154990613393565b60405180910390fd5b80915050919050565b61156361283c565b6000808373ffffffffffffffffffffffffffffffffffffffff16604051611589906131b1565b600060405180830381855afa9150503d80600081146115c4576040519150601f19603f3d011682016040523d82523d6000602084013e6115c9565b606091505b50915091508161160e576040517f08c379a000000000000000000000000000000000000000000000000000000000815260040161160590613533565b60405180910390fd5b600061161986611873565b905060405180608001604052808260405160200161163791906131c6565b604051602081830303815290604052815260200183815260200161165a88610f2c565b815260200161167e8773ffffffffffffffffffffffffffffffffffffffff16611b9e565b815250935050505092915050565b6060600061169983611c24565b9050806040516020016116ac9190613101565b604051602081830303815290604052915050919050565b6116ce84848461124d565b6116da84848484611c63565b611719576040517f08c379a000000000000000000000000000000000000000000000000000000000815260040161171090613353565b60405180910390fd5b50505050565b60606000808373ffffffffffffffffffffffffffffffffffffffff16604051611747906131e8565b600060405180830381855afa9150503d8060008114611782576040519150601f19603f3d011682016040523d82523d6000602084013e611787565b606091505b5091509150816117cc576040517f08c379a00000000000000000000000000000000000000000000000000000000081526004016117c390613553565b60405180910390fd5b8092505050919050565b606060006117e383611c24565b9050806117ef85611dfa565b6040516020016118009291906131fd565b60405160208183030381529060405291505092915050565b6118228383611fb6565b61182f6000848484611c63565b61186e576040517f08c379a000000000000000000000000000000000000000000000000000000000815260040161186590613353565b60405180910390fd5b505050565b606060008214156118bb576040518060400160405280600181526020017f30000000000000000000000000000000000000000000000000000000000000008152509050611a1b565b600082905060005b600082146118ed5780806118d6906138dd565b915050600a826118e691906136db565b91506118c3565b60008167ffffffffffffffff81111561192f577f4e487b7100000000000000000000000000000000000000000000000000000000600052604160045260246000fd5b6040519080825280601f01601f1916602001820160405280156119615781602001600182028036833780820191505090505b5090505b60008514611a145760018261197a9190613766565b9150600a856119899190613926565b60306119959190613685565b60f81b8183815181106119d1577f4e487b7100000000000000000000000000000000000000000000000000000000600052603260045260246000fd5b60200101907effffffffffffffffffffffffffffffffffffffffffffffffffffffffffffff1916908160001a905350600a85611a0d91906136db565b9450611965565b8093505050505b919050565b60007f01ffc9a7000000000000000000000000000000000000000000000000000000007bffffffffffffffffffffffffffffffffffffffffffffffffffffffff1916827bffffffffffffffffffffffffffffffffffffffffffffffffffffffff1916149050919050565b611a95838383612184565b600073ffffffffffffffffffffffffffffffffffffffff168373ffffffffffffffffffffffffffffffffffffffff161415611ad857611ad381612189565b611b17565b8173ffffffffffffffffffffffffffffffffffffffff168373ffffffffffffffffffffffffffffffffffffffff1614611b1657611b1583826121d2565b5b5b600073ffffffffffffffffffffffffffffffffffffffff168273ffffffffffffffffffffffffffffffffffffffff161415611b5a57611b558161233f565b611b99565b8273ffffffffffffffffffffffffffffffffffffffff168273ffffffffffffffffffffffffffffffffffffffff1614611b9857611b978282612482565b5b5b505050565b60606000821415611be6576040518060400160405280600481526020017f30783030000000000000000000000000000000000000000000000000000000008152509050611c1f565b600082905060005b60008214611c10578080611c01906138dd565b915050600882901c9150611bee565b611c1a8482612501565b925050505b919050565b60608160000151826020015183604001518460600151604051602001611c4d9493929190613147565b6040516020818303038152906040529050919050565b6000611c848473ffffffffffffffffffffffffffffffffffffffff166127fb565b15611ded578373ffffffffffffffffffffffffffffffffffffffff1663150b7a02611cad6110ae565b8786866040518563ffffffff1660e01b8152600401611ccf9493929190613268565b602060405180830381600087803b158015611ce957600080fd5b505af1925050508015611d1a57506040513d601f19601f82011682018060405250810190611d179190612b05565b60015b611d9d573d8060008114611d4a576040519150601f19603f3d011682016040523d82523d6000602084013e611d4f565b606091505b50600081511415611d95576040517f08c379a0000000000000000000000000000000000000000000000000000000008152600401611d8c90613353565b60405180910390fd5b805181602001fd5b63150b7a0260e01b7bffffffffffffffffffffffffffffffffffffffffffffffffffffffff1916817bffffffffffffffffffffffffffffffffffffffffffffffffffffffff191614915050611df2565b600190505b949350505050565b6060600082511415611e0e57819050611fb1565b60007f4142434445464748494a4b4c4d4e4f505152535455565758595a616263646566905060007f6768696a6b6c6d6e6f707172737475767778797a303132333435363738392b2f90506000611e64855161280e565b67ffffffffffffffff811115611ea3577f4e487b7100000000000000000000000000000000000000000000000000000000600052604160045260246000fd5b6040519080825280601f01601f191660200182016040528015611ed55781602001600182028036833780820191505090505b50905060008551905060208601602083015b6000831115611f7757815160101c601e60f0601e861015611f25578591508286601e0360031b1c925060066004870983811b9350808760031b019150505b818603955081850194505b6000811115611f6f5760068103905082603f821b16811c89601f821115611f5b578990506020820391505b80821a808753600187019650505050611f30565b505050611ee7565b600388510660018114611f915760028114611fa157611fa6565b603d8253603d8260010153611fa6565b603d82535b505050819450505050505b919050565b600073ffffffffffffffffffffffffffffffffffffffff168273ffffffffffffffffffffffffffffffffffffffff161415612026576040517f08c379a000000000000000000000000000000000000000000000000000000000815260040161201d90613473565b60405180910390fd5b61202f81611042565b1561206f576040517f08c379a000000000000000000000000000000000000000000000000000000000815260040161206690613373565b60405180910390fd5b61207b60008383611a8a565b6001600360008473ffffffffffffffffffffffffffffffffffffffff1673ffffffffffffffffffffffffffffffffffffffff16815260200190815260200160002060008282546120cb9190613685565b92505081905550816002600083815260200190815260200160002060006101000a81548173ffffffffffffffffffffffffffffffffffffffff021916908373ffffffffffffffffffffffffffffffffffffffff160217905550808273ffffffffffffffffffffffffffffffffffffffff16600073ffffffffffffffffffffffffffffffffffffffff167fddf252ad1be2c89b69c2b068fc378daa952ba7f163c4a11628f55a4df523b3ef60405160405180910390a45050565b505050565b6008805490506009600083815260200190815260200160002081905550600881908060018154018082558091505060019003906000526020600020016000909190919091505550565b600060016121df84610aeb565b6121e99190613766565b90506000600760008481526020019081526020016000205490508181146122ce576000600660008673ffffffffffffffffffffffffffffffffffffffff1673ffffffffffffffffffffffffffffffffffffffff168152602001908152602001600020600084815260200190815260200160002054905080600660008773ffffffffffffffffffffffffffffffffffffffff1673ffffffffffffffffffffffffffffffffffffffff168152602001908152602001600020600084815260200190815260200160002081905550816007600083815260200190815260200160002081905550505b6007600084815260200190815260200160002060009055600660008573ffffffffffffffffffffffffffffffffffffffff1673ffffffffffffffffffffffffffffffffffffffff16815260200190815260200160002060008381526020019081526020016000206000905550505050565b600060016008805490506123539190613766565b90506000600960008481526020019081526020016000205490506000600883815481106123a9577f4e487b7100000000000000000000000000000000000000000000000000000000600052603260045260246000fd5b9060005260206000200154905080600883815481106123f1577f4e487b7100000000000000000000000000000000000000000000000000000000600052603260045260246000fd5b906000526020600020018190555081600960008381526020019081526020016000208190555060096000858152602001908152602001600020600090556008805480612466577f4e487b7100000000000000000000000000000000000000000000000000000000600052603160045260246000fd5b6001900381819060005260206000200160009055905550505050565b600061248d83610aeb565b905081600660008573ffffffffffffffffffffffffffffffffffffffff1673ffffffffffffffffffffffffffffffffffffffff168152602001908152602001600020600083815260200190815260200160002081905550806007600084815260200190815260200160002081905550505050565b606060006002836002612514919061370c565b61251e9190613685565b67ffffffffffffffff81111561255d577f4e487b7100000000000000000000000000000000000000000000000000000000600052604160045260246000fd5b6040519080825280601f01601f19166020018201604052801561258f5781602001600182028036833780820191505090505b5090507f3000000000000000000000000000000000000000000000000000000000000000816000815181106125ed577f4e487b7100000000000000000000000000000000000000000000000000000000600052603260045260246000fd5b60200101907effffffffffffffffffffffffffffffffffffffffffffffffffffffffffffff1916908160001a9053507f780000000000000000000000000000000000000000000000000000000000000081600181518110612677577f4e487b7100000000000000000000000000000000000000000000000000000000600052603260045260246000fd5b60200101907effffffffffffffffffffffffffffffffffffffffffffffffffffffffffffff1916908160001a905350600060018460026126b7919061370c565b6126c19190613685565b90505b60018111156127ad577f3031323334353637383961626364656600000000000000000000000000000000600f861660108110612729577f4e487b7100000000000000000000000000000000000000000000000000000000600052603260045260246000fd5b1a60f81b828281518110612766577f4e487b7100000000000000000000000000000000000000000000000000000000600052603260045260246000fd5b60200101907effffffffffffffffffffffffffffffffffffffffffffffffffffffffffffff1916908160001a905350600485901c9450806127a690613850565b90506126c4565b50600084146127f1576040517f08c379a00000000000000000000000000000000000000000000000000000000081526004016127e890613313565b60405180910390fd5b8091505092915050565b600080823b905060008111915050919050565b6000600460036002846128219190613685565b61282b91906136db565b612835919061370c565b9050919050565b6040518060800160405280606081526020016060815260200160608152602001606081525090565b6000612877612872846135f1565b6135cc565b90508281526020810184848401111561288f57600080fd5b61289a84828561380e565b509392505050565b6000813590506128b181614094565b92915050565b6000813590506128c6816140ab565b92915050565b6000813590506128db816140c2565b92915050565b6000815190506128f0816140c2565b92915050565b600082601f83011261290757600080fd5b8135612917848260208601612864565b91505092915050565b60008135905061292f816140d9565b92915050565b60006020828403121561294757600080fd5b6000612955848285016128a2565b91505092915050565b6000806040838503121561297157600080fd5b600061297f858286016128a2565b9250506020612990858286016128a2565b9150509250929050565b6000806000606084860312156129af57600080fd5b60006129bd868287016128a2565b93505060206129ce868287016128a2565b92505060406129df86828701612920565b9150509250925092565b600080600080608085870312156129ff57600080fd5b6000612a0d878288016128a2565b9450506020612a1e878288016128a2565b9350506040612a2f87828801612920565b925050606085013567ffffffffffffffff811115612a4c57600080fd5b612a58878288016128f6565b91505092959194509250565b60008060408385031215612a7757600080fd5b6000612a85858286016128a2565b9250506020612a96858286016128b7565b9150509250929050565b60008060408385031215612ab357600080fd5b6000612ac1858286016128a2565b9250506020612ad285828601612920565b9150509250929050565b600060208284031215612aee57600080fd5b6000612afc848285016128cc565b91505092915050565b600060208284031215612b1757600080fd5b6000612b25848285016128e1565b91505092915050565b600060208284031215612b4057600080fd5b600082013567ffffffffffffffff811115612b5a57600080fd5b612b66848285016128f6565b91505092915050565b600060208284031215612b8157600080fd5b6000612b8f84828501612920565b91505092915050565b612ba18161379a565b82525050565b612bb0816137ac565b82525050565b6000612bc182613637565b612bcb818561364d565b9350612bdb81856020860161381d565b612be481613a13565b840191505092915050565b6000612bfa82613642565b612c048185613669565b9350612c1481856020860161381d565b612c1d81613a13565b840191505092915050565b6000612c3382613642565b612c3d818561367a565b9350612c4d81856020860161381d565b80840191505092915050565b60008154612c668161387a565b612c70818661367a565b94506001821660008114612c8b5760018114612c9c57612ccf565b60ff19831686528186019350612ccf565b612ca585613622565b60005b83811015612cc757815481890152600182019150602081019050612ca8565b838801955050505b50505092915050565b6000612ce5602083613669565b9150612cf082613a24565b602082019050919050565b6000612d0860098361367a565b9150612d1382613a4d565b600982019050919050565b6000612d2b60128361367a565b9150612d3682613a76565b601282019050919050565b6000612d4e600b8361367a565b9150612d5982613a9f565b600b82019050919050565b6000612d71602b83613669565b9150612d7c82613ac8565b604082019050919050565b6000612d94603283613669565b9150612d9f82613b17565b604082019050919050565b6000612db7601c83613669565b9150612dc282613b66565b602082019050919050565b6000612dda600a83613669565b9150612de582613b8f565b602082019050919050565b6000612dfd602483613669565b9150612e0882613bb8565b604082019050919050565b6000612e20601983613669565b9150612e2b82613c07565b602082019050919050565b6000612e4360118361367a565b9150612e4e82613c30565b601182019050919050565b6000612e66602c83613669565b9150612e7182613c59565b604082019050919050565b6000612e8960158361367a565b9150612e9482613ca8565b601582019050919050565b6000612eac603883613669565b9150612eb782613cd1565b604082019050919050565b6000612ecf602a83613669565b9150612eda82613d20565b604082019050919050565b6000612ef2602983613669565b9150612efd82613d6f565b604082019050919050565b6000612f1560028361367a565b9150612f2082613dbe565b600282019050919050565b6000612f38602083613669565b9150612f4382613de7565b602082019050919050565b6000612f5b602c83613669565b9150612f6682613e10565b604082019050919050565b6000612f7e602983613669565b9150612f8982613e5f565b604082019050919050565b6000612fa160018361365e565b9150612fac82613eae565b600182019050919050565b6000612fc4602183613669565b9150612fcf82613ed7565b604082019050919050565b6000612fe760078361367a565b9150612ff282613f26565b600782019050919050565b600061300a60008361365e565b915061301582613f4f565b600082019050919050565b600061302d603183613669565b915061303882613f52565b604082019050919050565b6000613050602c83613669565b915061305b82613fa1565b604082019050919050565b600061307360168361367a565b915061307e82613ff0565b601682019050919050565b6000613096601083613669565b91506130a182614019565b602082019050919050565b60006130b9601383613669565b91506130c482614042565b602082019050919050565b60006130dc60168361367a565b91506130e78261406b565b601682019050919050565b6130fb81613804565b82525050565b600061310d8284612c28565b915061311882612f08565b915081905092915050565b600061312f8285612c59565b915061313b8284612c28565b91508190509392505050565b600061315282612cfb565b915061315e8287612c28565b915061316982612e36565b91506131758286612c28565b915061318082612d1e565b915061318c8285612c28565b915061319782612e7c565b91506131a38284612c28565b915081905095945050505050565b60006131bc82612f94565b9150819050919050565b60006131d182612fda565b91506131dd8284612c28565b915081905092915050565b60006131f382612ffd565b9150819050919050565b6000613208826130cf565b91506132148285612c28565b915061321f82612d41565b915061322a82613066565b91506132368284612c28565b915061324182612f08565b91508190509392505050565b60006020820190506132626000830184612b98565b92915050565b600060808201905061327d6000830187612b98565b61328a6020830186612b98565b61329760408301856130f2565b81810360608301526132a98184612bb6565b905095945050505050565b60006020820190506132c96000830184612ba7565b92915050565b600060208201905081810360008301526132e98184612bb6565b905092915050565b6000602082019050818103600083015261330b8184612bef565b905092915050565b6000602082019050818103600083015261332c81612cd8565b9050919050565b6000602082019050818103600083015261334c81612d64565b9050919050565b6000602082019050818103600083015261336c81612d87565b9050919050565b6000602082019050818103600083015261338c81612daa565b9050919050565b600060208201905081810360008301526133ac81612dcd565b9050919050565b600060208201905081810360008301526133cc81612df0565b9050919050565b600060208201905081810360008301526133ec81612e13565b9050919050565b6000602082019050818103600083015261340c81612e59565b9050919050565b6000602082019050818103600083015261342c81612e9f565b9050919050565b6000602082019050818103600083015261344c81612ec2565b9050919050565b6000602082019050818103600083015261346c81612ee5565b9050919050565b6000602082019050818103600083015261348c81612f2b565b9050919050565b600060208201905081810360008301526134ac81612f4e565b9050919050565b600060208201905081810360008301526134cc81612f71565b9050919050565b600060208201905081810360008301526134ec81612fb7565b9050919050565b6000602082019050818103600083015261350c81613020565b9050919050565b6000602082019050818103600083015261352c81613043565b9050919050565b6000602082019050818103600083015261354c81613089565b9050919050565b6000602082019050818103600083015261356c816130ac565b9050919050565b600060208201905061358860008301846130f2565b92915050565b60006060820190506135a360008301866130f2565b6135b06020830185612b98565b81810360408301526135c28184612bef565b9050949350505050565b60006135d66135e7565b90506135e282826138ac565b919050565b6000604051905090565b600067ffffffffffffffff82111561360c5761360b6139e4565b5b61361582613a13565b9050602081019050919050565b60008190508160005260206000209050919050565b600081519050919050565b600081519050919050565b600082825260208201905092915050565b600081905092915050565b600082825260208201905092915050565b600081905092915050565b600061369082613804565b915061369b83613804565b9250827fffffffffffffffffffffffffffffffffffffffffffffffffffffffffffffffff038211156136d0576136cf613957565b5b828201905092915050565b60006136e682613804565b91506136f183613804565b92508261370157613700613986565b5b828204905092915050565b600061371782613804565b915061372283613804565b9250817fffffffffffffffffffffffffffffffffffffffffffffffffffffffffffffffff048311821515161561375b5761375a613957565b5b828202905092915050565b600061377182613804565b915061377c83613804565b92508282101561378f5761378e613957565b5b828203905092915050565b60006137a5826137e4565b9050919050565b60008115159050919050565b60007fffffffff0000000000000000000000000000000000000000000000000000000082169050919050565b600073ffffffffffffffffffffffffffffffffffffffff82169050919050565b6000819050919050565b82818337600083830152505050565b60005b8381101561383b578082015181840152602081019050613820565b8381111561384a576000848401525b50505050565b600061385b82613804565b9150600082141561386f5761386e613957565b5b600182039050919050565b6000600282049050600182168061389257607f821691505b602082108114156138a6576138a56139b5565b5b50919050565b6138b582613a13565b810181811067ffffffffffffffff821117156138d4576138d36139e4565b5b80604052505050565b60006138e882613804565b91507fffffffffffffffffffffffffffffffffffffffffffffffffffffffffffffffff82141561391b5761391a613957565b5b600182019050919050565b600061393182613804565b915061393c83613804565b92508261394c5761394b613986565b5b828206905092915050565b7f4e487b7100000000000000000000000000000000000000000000000000000000600052601160045260246000fd5b7f4e487b7100000000000000000000000000000000000000000000000000000000600052601260045260246000fd5b7f4e487b7100000000000000000000000000000000000000000000000000000000600052602260045260246000fd5b7f4e487b7100000000000000000000000000000000000000000000000000000000600052604160045260246000fd5b6000601f19601f8301169050919050565b7f537472696e67733a20686578206c656e67746820696e73756666696369656e74600082015250565b7f7b226e616d65223a220000000000000000000000000000000000000000000000600082015250565b7f222c2265787465726e616c5f75726c223a220000000000000000000000000000600082015250565b7f222c22696d616765223a22000000000000000000000000000000000000000000600082015250565b7f455243373231456e756d657261626c653a206f776e657220696e646578206f7560008201527f74206f6620626f756e6473000000000000000000000000000000000000000000602082015250565b7f4552433732313a207472616e7366657220746f206e6f6e20455243373231526560008201527f63656976657220696d706c656d656e7465720000000000000000000000000000602082015250565b7f4552433732313a20746f6b656e20616c7265616479206d696e74656400000000600082015250565b7f554e4b4e4f574e5f494400000000000000000000000000000000000000000000600082015250565b7f4552433732313a207472616e7366657220746f20746865207a65726f2061646460008201527f7265737300000000000000000000000000000000000000000000000000000000602082015250565b7f4552433732313a20617070726f766520746f2063616c6c657200000000000000600082015250565b7f222c226465736372697074696f6e223a22000000000000000000000000000000600082015250565b7f4552433732313a206f70657261746f7220717565727920666f72206e6f6e657860008201527f697374656e7420746f6b656e0000000000000000000000000000000000000000602082015250565b7f222c2264726177696e675f61646472657373223a220000000000000000000000600082015250565b7f4552433732313a20617070726f76652063616c6c6572206973206e6f74206f7760008201527f6e6572206e6f7220617070726f76656420666f7220616c6c0000000000000000602082015250565b7f4552433732313a2062616c616e636520717565727920666f7220746865207a6560008201527f726f206164647265737300000000000000000000000000000000000000000000602082015250565b7f4552433732313a206f776e657220717565727920666f72206e6f6e657869737460008201527f656e7420746f6b656e0000000000000000000000000000000000000000000000602082015250565b7f227d000000000000000000000000000000000000000000000000000000000000600082015250565b7f4552433732313a206d696e7420746f20746865207a65726f2061646472657373600082015250565b7f4552433732313a20617070726f76656420717565727920666f72206e6f6e657860008201527f697374656e7420746f6b656e0000000000000000000000000000000000000000602082015250565b7f4552433732313a207472616e73666572206f6620746f6b656e2074686174206960008201527f73206e6f74206f776e0000000000000000000000000000000000000000000000602082015250565b7fde00000000000000000000000000000000000000000000000000000000000000600082015250565b7f4552433732313a20617070726f76616c20746f2063757272656e74206f776e6560008201527f7200000000000000000000000000000000000000000000000000000000000000602082015250565b7f44424e4654202300000000000000000000000000000000000000000000000000600082015250565b50565b7f4552433732313a207472616e736665722063616c6c6572206973206e6f74206f60008201527f776e6572206e6f7220617070726f766564000000000000000000000000000000602082015250565b7f455243373231456e756d657261626c653a20676c6f62616c20696e646578206f60008201527f7574206f6620626f756e64730000000000000000000000000000000000000000602082015250565b7f646174613a696d6167652f626d703b6261736536342c00000000000000000000600082015250565b7f4445534352495054494f4e5f4641494c00000000000000000000000000000000600082015250565b7f6661696c7572652072656e6465722063616c6c00000000000000000000000000600082015250565b7f646174613a6170706c69636174696f6e2f6a736f6e2c00000000000000000000600082015250565b61409d8161379a565b81146140a857600080fd5b50565b6140b4816137ac565b81146140bf57600080fd5b50565b6140cb816137b8565b81146140d657600080fd5b50565b6140e281613804565b81146140ed57600080fd5b5056fea2646970667358221220e5cc03639f959a8a08f3da8b7f0f070d94ae602e5b3e804c1b37bdfa3f60976a64736f6c63430008040033",
  "linkReferences": {},
  "deployedLinkReferences": {}
}