{
  "_format": "hh-sol-artifact-1",
  "contractName": "DBNCoordinator",
  "sourceName": "contracts/DBNCoordinator.sol",
  "abi": [
    {
      "inputs": [
        {
          "internalType": "string",
          "name": "baseExternalURI",
          "type": "string"
        }
      ],
      "stateMutability": "nonpayable",
      "type": "constructor"
    },
    {
      "anonymous": false,
      "inputs": [
        {
          "indexed": true,
          "internalType": "address",
          "name": "owner",
          "type": "address"
        },
        {
          "indexed": true,
          "internalType": "address",
          "name": "approved",
          "type": "address"
        },
        {
          "indexed": true,
          "internalType": "uint256",
          "name": "tokenId",
          "type": "uint256"
        }
      ],
      "name": "Approval",
      "type": "event"
    },
    {
      "anonymous": false,
      "inputs": [
        {
          "indexed": true,
          "internalType": "address",
          "name": "owner",
          "type": "address"
        },
        {
          "indexed": true,
          "internalType": "address",
          "name": "operator",
          "type": "address"
        },
        {
          "indexed": false,
          "internalType": "bool",
          "name": "approved",
          "type": "bool"
        }
      ],
      "name": "ApprovalForAll",
      "type": "event"
    },
    {
      "anonymous": false,
      "inputs": [
        {
          "indexed": false,
          "internalType": "uint256",
          "name": "tokenId",
          "type": "uint256"
        },
        {
          "indexed": false,
          "internalType": "address",
          "name": "addr",
          "type": "address"
        },
        {
          "indexed": false,
          "internalType": "string",
          "name": "externalURL",
          "type": "string"
        }
      ],
      "name": "DrawingDeployed",
      "type": "event"
    },
    {
      "anonymous": false,
      "inputs": [
        {
          "indexed": true,
          "internalType": "address",
          "name": "previousOwner",
          "type": "address"
        },
        {
          "indexed": true,
          "internalType": "address",
          "name": "newOwner",
          "type": "address"
        }
      ],
      "name": "OwnershipTransferred",
      "type": "event"
    },
    {
      "anonymous": false,
      "inputs": [
        {
          "indexed": true,
          "internalType": "address",
          "name": "from",
          "type": "address"
        },
        {
          "indexed": true,
          "internalType": "address",
          "name": "to",
          "type": "address"
        },
        {
          "indexed": true,
          "internalType": "uint256",
          "name": "tokenId",
          "type": "uint256"
        }
      ],
      "name": "Transfer",
      "type": "event"
    },
    {
      "inputs": [
        {
          "internalType": "address",
          "name": "to",
          "type": "address"
        },
        {
          "internalType": "uint256",
          "name": "tokenId",
          "type": "uint256"
        }
      ],
      "name": "approve",
      "outputs": [],
      "stateMutability": "nonpayable",
      "type": "function"
    },
    {
      "inputs": [
        {
          "internalType": "address",
          "name": "owner",
          "type": "address"
        }
      ],
      "name": "balanceOf",
      "outputs": [
        {
          "internalType": "uint256",
          "name": "",
          "type": "uint256"
        }
      ],
      "stateMutability": "view",
      "type": "function"
    },
    {
      "inputs": [
        {
          "internalType": "bytes",
          "name": "bytecode",
          "type": "bytes"
        }
      ],
      "name": "deploy",
      "outputs": [
        {
          "internalType": "address",
          "name": "",
          "type": "address"
        }
      ],
      "stateMutability": "nonpayable",
      "type": "function"
    },
    {
      "inputs": [
        {
          "internalType": "uint256",
          "name": "tokenId",
          "type": "uint256"
        }
      ],
      "name": "getApproved",
      "outputs": [
        {
          "internalType": "address",
          "name": "",
          "type": "address"
        }
      ],
      "stateMutability": "view",
      "type": "function"
    },
    {
      "inputs": [
        {
          "internalType": "address",
          "name": "owner",
          "type": "address"
        },
        {
          "internalType": "address",
          "name": "operator",
          "type": "address"
        }
      ],
      "name": "isApprovedForAll",
      "outputs": [
        {
          "internalType": "bool",
          "name": "",
          "type": "bool"
        }
      ],
      "stateMutability": "view",
      "type": "function"
    },
    {
      "inputs": [],
      "name": "name",
      "outputs": [
        {
          "internalType": "string",
          "name": "",
          "type": "string"
        }
      ],
      "stateMutability": "view",
      "type": "function"
    },
    {
      "inputs": [],
      "name": "owner",
      "outputs": [
        {
          "internalType": "address",
          "name": "",
          "type": "address"
        }
      ],
      "stateMutability": "view",
      "type": "function"
    },
    {
      "inputs": [
        {
          "internalType": "uint256",
          "name": "tokenId",
          "type": "uint256"
        }
      ],
      "name": "ownerOf",
      "outputs": [
        {
          "internalType": "address",
          "name": "",
          "type": "address"
        }
      ],
      "stateMutability": "view",
      "type": "function"
    },
    {
      "inputs": [],
      "name": "renounceOwnership",
      "outputs": [],
      "stateMutability": "nonpayable",
      "type": "function"
    },
    {
      "inputs": [
        {
          "internalType": "address",
          "name": "from",
          "type": "address"
        },
        {
          "internalType": "address",
          "name": "to",
          "type": "address"
        },
        {
          "internalType": "uint256",
          "name": "tokenId",
          "type": "uint256"
        }
      ],
      "name": "safeTransferFrom",
      "outputs": [],
      "stateMutability": "nonpayable",
      "type": "function"
    },
    {
      "inputs": [
        {
          "internalType": "address",
          "name": "from",
          "type": "address"
        },
        {
          "internalType": "address",
          "name": "to",
          "type": "address"
        },
        {
          "internalType": "uint256",
          "name": "tokenId",
          "type": "uint256"
        },
        {
          "internalType": "bytes",
          "name": "_data",
          "type": "bytes"
        }
      ],
      "name": "safeTransferFrom",
      "outputs": [],
      "stateMutability": "nonpayable",
      "type": "function"
    },
    {
      "inputs": [
        {
          "internalType": "address",
          "name": "operator",
          "type": "address"
        },
        {
          "internalType": "bool",
          "name": "approved",
          "type": "bool"
        }
      ],
      "name": "setApprovalForAll",
      "outputs": [],
      "stateMutability": "nonpayable",
      "type": "function"
    },
    {
      "inputs": [
        {
          "internalType": "bytes4",
          "name": "interfaceId",
          "type": "bytes4"
        }
      ],
      "name": "supportsInterface",
      "outputs": [
        {
          "internalType": "bool",
          "name": "",
          "type": "bool"
        }
      ],
      "stateMutability": "view",
      "type": "function"
    },
    {
      "inputs": [],
      "name": "symbol",
      "outputs": [
        {
          "internalType": "string",
          "name": "",
          "type": "string"
        }
      ],
      "stateMutability": "view",
      "type": "function"
    },
    {
      "inputs": [
        {
          "internalType": "uint256",
          "name": "index",
          "type": "uint256"
        }
      ],
      "name": "tokenByIndex",
      "outputs": [
        {
          "internalType": "uint256",
          "name": "",
          "type": "uint256"
        }
      ],
      "stateMutability": "view",
      "type": "function"
    },
    {
      "inputs": [
        {
          "internalType": "uint256",
          "name": "tokenId",
          "type": "uint256"
        }
      ],
      "name": "tokenCode",
      "outputs": [
        {
          "internalType": "bytes",
          "name": "",
          "type": "bytes"
        }
      ],
      "stateMutability": "view",
      "type": "function"
    },
    {
      "inputs": [
        {
          "internalType": "uint256",
          "name": "tokenId",
          "type": "uint256"
        }
      ],
      "name": "tokenMetadata",
      "outputs": [
        {
          "internalType": "string",
          "name": "",
          "type": "string"
        }
      ],
      "stateMutability": "view",
      "type": "function"
    },
    {
      "inputs": [
        {
          "internalType": "address",
          "name": "owner",
          "type": "address"
        },
        {
          "internalType": "uint256",
          "name": "index",
          "type": "uint256"
        }
      ],
      "name": "tokenOfOwnerByIndex",
      "outputs": [
        {
          "internalType": "uint256",
          "name": "",
          "type": "uint256"
        }
      ],
      "stateMutability": "view",
      "type": "function"
    },
    {
      "inputs": [
        {
          "internalType": "uint256",
          "name": "tokenId",
          "type": "uint256"
        }
      ],
      "name": "tokenURI",
      "outputs": [
        {
          "internalType": "string",
          "name": "",
          "type": "string"
        }
      ],
      "stateMutability": "view",
      "type": "function"
    },
    {
      "inputs": [],
      "name": "totalSupply",
      "outputs": [
        {
          "internalType": "uint256",
          "name": "",
          "type": "uint256"
        }
      ],
      "stateMutability": "view",
      "type": "function"
    },
    {
      "inputs": [
        {
          "internalType": "address",
          "name": "from",
          "type": "address"
        },
        {
          "internalType": "address",
          "name": "to",
          "type": "address"
        },
        {
          "internalType": "uint256",
          "name": "tokenId",
          "type": "uint256"
        }
      ],
      "name": "transferFrom",
      "outputs": [],
      "stateMutability": "nonpayable",
      "type": "function"
    },
    {
      "inputs": [
        {
          "internalType": "address",
          "name": "newOwner",
          "type": "address"
        }
      ],
      "name": "transferOwnership",
      "outputs": [],
      "stateMutability": "nonpayable",
      "type": "function"
    }
  ],
  "bytecode": "0x60806040523480156200001157600080fd5b5060405162004b2638038062004b26833981810160405281019062000037919062000307565b6040518060400160405280601581526020017f44657369676e204279204e756d62657273204e465400000000000000000000008152506040518060400160405280600581526020017f44424e46540000000000000000000000000000000000000000000000000000008152508160009080519060200190620000bb929190620001e5565b508060019080519060200190620000d4929190620001e5565b505050620000f7620000eb6200011760201b60201c565b6200011f60201b60201c565b80600d90805190602001906200010f929190620001e5565b5050620004bc565b600033905090565b6000600a60009054906101000a900473ffffffffffffffffffffffffffffffffffffffff16905081600a60006101000a81548173ffffffffffffffffffffffffffffffffffffffff021916908373ffffffffffffffffffffffffffffffffffffffff1602179055508173ffffffffffffffffffffffffffffffffffffffff168173ffffffffffffffffffffffffffffffffffffffff167f8be0079c531659141344cd1fd0a4f28419497f9722a3daafe3b4186f6b6457e060405160405180910390a35050565b828054620001f390620003e1565b90600052602060002090601f01602090048101928262000217576000855562000263565b82601f106200023257805160ff191683800117855562000263565b8280016001018555821562000263579182015b828111156200026257825182559160200191906001019062000245565b5b50905062000272919062000276565b5090565b5b808211156200029157600081600090555060010162000277565b5090565b6000620002ac620002a68462000375565b6200034c565b905082815260208101848484011115620002c557600080fd5b620002d2848285620003ab565b509392505050565b600082601f830112620002ec57600080fd5b8151620002fe84826020860162000295565b91505092915050565b6000602082840312156200031a57600080fd5b600082015167ffffffffffffffff8111156200033557600080fd5b6200034384828501620002da565b91505092915050565b6000620003586200036b565b905062000366828262000417565b919050565b6000604051905090565b600067ffffffffffffffff8211156200039357620003926200047c565b5b6200039e82620004ab565b9050602081019050919050565b60005b83811015620003cb578082015181840152602081019050620003ae565b83811115620003db576000848401525b50505050565b60006002820490506001821680620003fa57607f821691505b602082108114156200041157620004106200044d565b5b50919050565b6200042282620004ab565b810181811067ffffffffffffffff821117156200044457620004436200047c565b5b80604052505050565b7f4e487b7100000000000000000000000000000000000000000000000000000000600052602260045260246000fd5b7f4e487b7100000000000000000000000000000000000000000000000000000000600052604160045260246000fd5b6000601f19601f8301169050919050565b61465a80620004cc6000396000f3fe608060405234801561001057600080fd5b50600436106101415760003560e01c80636352211e116100b857806395d89b411161007c57806395d89b41146103ae578063a22cb465146103cc578063b88d4fde146103e8578063c87b56dd14610404578063e985e9c514610434578063f2fde38b1461046457610141565b80636352211e146102f65780636914db601461032657806370a0823114610356578063715018a6146103865780638da5cb5b1461039057610141565b806318160ddd1161010a57806318160ddd1461021057806323b872dd1461022e5780632f745c591461024a57806342842e0e1461027a5780634f6ccce7146102965780635dca47b7146102c657610141565b80627743601461014657806301ffc9a71461017657806306fdde03146101a6578063081812fc146101c4578063095ea7b3146101f4575b600080fd5b610160600480360381019061015b9190612e80565b610480565b60405161016d9190613608565b60405180910390f35b610190600480360381019061018b9190612e2e565b610630565b60405161019d919061366f565b60405180910390f35b6101ae6106aa565b6040516101bb91906136ac565b60405180910390f35b6101de60048036038101906101d99190612ec1565b61073c565b6040516101eb9190613608565b60405180910390f35b61020e60048036038101906102099190612df2565b6107c1565b005b6102186108d9565b604051610225919061396e565b60405180910390f35b61024860048036038101906102439190612cec565b6108e6565b005b610264600480360381019061025f9190612df2565b610946565b604051610271919061396e565b60405180910390f35b610294600480360381019061028f9190612cec565b6109eb565b005b6102b060048036038101906102ab9190612ec1565b610a0b565b6040516102bd919061396e565b60405180910390f35b6102e060048036038101906102db9190612ec1565b610aa2565b6040516102ed919061368a565b60405180910390f35b610310600480360381019061030b9190612ec1565b610aec565b60405161031d9190613608565b60405180910390f35b610340600480360381019061033b9190612ec1565b610b9e565b60405161034d91906136ac565b60405180910390f35b610370600480360381019061036b9190612c87565b610bcd565b60405161037d919061396e565b60405180910390f35b61038e610c85565b005b610398610d0d565b6040516103a59190613608565b60405180910390f35b6103b6610d37565b6040516103c391906136ac565b60405180910390f35b6103e660048036038101906103e19190612db6565b610dc9565b005b61040260048036038101906103fd9190612d3b565b610f4a565b005b61041e60048036038101906104199190612ec1565b610fac565b60405161042b91906136ac565b60405180910390f35b61044e60048036038101906104499190612cb0565b610fea565b60405161045b919061366f565b60405180910390f35b61047e60048036038101906104799190612c87565b61107e565b005b600061048a611176565b73ffffffffffffffffffffffffffffffffffffffff166104a8610d0d565b73ffffffffffffffffffffffffffffffffffffffff16146104fe576040517f08c379a00000000000000000000000000000000000000000000000000000000081526004016104f59061388e565b60405180910390fd5b60008251602084016000f09050600073ffffffffffffffffffffffffffffffffffffffff168173ffffffffffffffffffffffffffffffffffffffff16141561056f577f4e487b7100000000000000000000000000000000000000000000000000000000600052600160045260246000fd5b600061057b600b61117e565b9050610587600b61118c565b81600c600083815260200190815260200160002060006101000a81548173ffffffffffffffffffffffffffffffffffffffff021916908373ffffffffffffffffffffffffffffffffffffffff1602179055506105e333826111a2565b7ff3a49663583623b9938240e94c937038afc982b749f42e8c4754206ecb514bae818361060f846111c0565b60405161061e93929190613989565b60405180910390a18192505050919050565b60007f780e9d63000000000000000000000000000000000000000000000000000000007bffffffffffffffffffffffffffffffffffffffffffffffffffffffff1916827bffffffffffffffffffffffffffffffffffffffffffffffffffffffff191614806106a357506106a2826111f4565b5b9050919050565b6060600080546106b990613c75565b80601f01602080910402602001604051908101604052809291908181526020018280546106e590613c75565b80156107325780601f1061070757610100808354040283529160200191610732565b820191906000526020600020905b81548152906001019060200180831161071557829003601f168201915b5050505050905090565b6000610747826112d6565b610786576040517f08c379a000000000000000000000000000000000000000000000000000000000815260040161077d9061386e565b60405180910390fd5b6004600083815260200190815260200160002060009054906101000a900473ffffffffffffffffffffffffffffffffffffffff169050919050565b60006107cc82610aec565b90508073ffffffffffffffffffffffffffffffffffffffff168373ffffffffffffffffffffffffffffffffffffffff16141561083d576040517f08c379a0000000000000000000000000000000000000000000000000000000008152600401610834906138ce565b60405180910390fd5b8073ffffffffffffffffffffffffffffffffffffffff1661085c611176565b73ffffffffffffffffffffffffffffffffffffffff16148061088b575061088a81610885611176565b610fea565b5b6108ca576040517f08c379a00000000000000000000000000000000000000000000000000000000081526004016108c1906137ee565b60405180910390fd5b6108d48383611342565b505050565b6000600880549050905090565b6108f76108f1611176565b826113fb565b610936576040517f08c379a000000000000000000000000000000000000000000000000000000000815260040161092d906138ee565b60405180910390fd5b6109418383836114d9565b505050565b600061095183610bcd565b8210610992576040517f08c379a0000000000000000000000000000000000000000000000000000000008152600401610989906136ee565b60405180910390fd5b600660008473ffffffffffffffffffffffffffffffffffffffff1673ffffffffffffffffffffffffffffffffffffffff168152602001908152602001600020600083815260200190815260200160002054905092915050565b610a0683838360405180602001604052806000815250610f4a565b505050565b6000610a156108d9565b8210610a56576040517f08c379a0000000000000000000000000000000000000000000000000000000008152600401610a4d9061390e565b60405180910390fd5b60088281548110610a90577f4e487b7100000000000000000000000000000000000000000000000000000000600052603260045260246000fd5b90600052602060002001549050919050565b60606000610aaf83611735565b90508073ffffffffffffffffffffffffffffffffffffffff16803b806020016040519081016040528181526000908060200190933c915050919050565b6000806002600084815260200190815260200160002060009054906101000a900473ffffffffffffffffffffffffffffffffffffffff169050600073ffffffffffffffffffffffffffffffffffffffff168173ffffffffffffffffffffffffffffffffffffffff161415610b95576040517f08c379a0000000000000000000000000000000000000000000000000000000008152600401610b8c9061382e565b60405180910390fd5b80915050919050565b60606000610bab83611735565b90506000610bb984836117e7565b9050610bc481611918565b92505050919050565b60008073ffffffffffffffffffffffffffffffffffffffff168273ffffffffffffffffffffffffffffffffffffffff161415610c3e576040517f08c379a0000000000000000000000000000000000000000000000000000000008152600401610c359061380e565b60405180910390fd5b600360008373ffffffffffffffffffffffffffffffffffffffff1673ffffffffffffffffffffffffffffffffffffffff168152602001908152602001600020549050919050565b610c8d611176565b73ffffffffffffffffffffffffffffffffffffffff16610cab610d0d565b73ffffffffffffffffffffffffffffffffffffffff1614610d01576040517f08c379a0000000000000000000000000000000000000000000000000000000008152600401610cf89061388e565b60405180910390fd5b610d0b600061194f565b565b6000600a60009054906101000a900473ffffffffffffffffffffffffffffffffffffffff16905090565b606060018054610d4690613c75565b80601f0160208091040260200160405190810160405280929190818152602001828054610d7290613c75565b8015610dbf5780601f10610d9457610100808354040283529160200191610dbf565b820191906000526020600020905b815481529060010190602001808311610da257829003601f168201915b5050505050905090565b610dd1611176565b73ffffffffffffffffffffffffffffffffffffffff168273ffffffffffffffffffffffffffffffffffffffff161415610e3f576040517f08c379a0000000000000000000000000000000000000000000000000000000008152600401610e36906137ae565b60405180910390fd5b8060056000610e4c611176565b73ffffffffffffffffffffffffffffffffffffffff1673ffffffffffffffffffffffffffffffffffffffff16815260200190815260200160002060008473ffffffffffffffffffffffffffffffffffffffff1673ffffffffffffffffffffffffffffffffffffffff16815260200190815260200160002060006101000a81548160ff0219169083151502179055508173ffffffffffffffffffffffffffffffffffffffff16610ef9611176565b73ffffffffffffffffffffffffffffffffffffffff167f17307eab39ab6107e8899845ad3d59bd9653f200f220920489ca2b5937696c3183604051610f3e919061366f565b60405180910390a35050565b610f5b610f55611176565b836113fb565b610f9a576040517f08c379a0000000000000000000000000000000000000000000000000000000008152600401610f91906138ee565b60405180910390fd5b610fa684848484611a15565b50505050565b60606000610fb983611735565b90506000610fc682611a71565b90506000610fd485846117e7565b9050610fe08282611b28565b9350505050919050565b6000600560008473ffffffffffffffffffffffffffffffffffffffff1673ffffffffffffffffffffffffffffffffffffffff16815260200190815260200160002060008373ffffffffffffffffffffffffffffffffffffffff1673ffffffffffffffffffffffffffffffffffffffff16815260200190815260200160002060009054906101000a900460ff16905092915050565b611086611176565b73ffffffffffffffffffffffffffffffffffffffff166110a4610d0d565b73ffffffffffffffffffffffffffffffffffffffff16146110fa576040517f08c379a00000000000000000000000000000000000000000000000000000000081526004016110f19061388e565b60405180910390fd5b600073ffffffffffffffffffffffffffffffffffffffff168173ffffffffffffffffffffffffffffffffffffffff16141561116a576040517f08c379a00000000000000000000000000000000000000000000000000000000081526004016111619061372e565b60405180910390fd5b6111738161194f565b50565b600033905090565b600081600001549050919050565b6001816000016000828254019250508190555050565b6111bc828260405180602001604052806000815250611b6a565b5050565b6060600d6111cd83611bc5565b6040516020016111de9291906134de565b6040516020818303038152906040529050919050565b60007f80ac58cd000000000000000000000000000000000000000000000000000000007bffffffffffffffffffffffffffffffffffffffffffffffffffffffff1916827bffffffffffffffffffffffffffffffffffffffffffffffffffffffff191614806112bf57507f5b5e139f000000000000000000000000000000000000000000000000000000007bffffffffffffffffffffffffffffffffffffffffffffffffffffffff1916827bffffffffffffffffffffffffffffffffffffffffffffffffffffffff1916145b806112cf57506112ce82611d72565b5b9050919050565b60008073ffffffffffffffffffffffffffffffffffffffff166002600084815260200190815260200160002060009054906101000a900473ffffffffffffffffffffffffffffffffffffffff1673ffffffffffffffffffffffffffffffffffffffff1614159050919050565b816004600083815260200190815260200160002060006101000a81548173ffffffffffffffffffffffffffffffffffffffff021916908373ffffffffffffffffffffffffffffffffffffffff160217905550808273ffffffffffffffffffffffffffffffffffffffff166113b583610aec565b73ffffffffffffffffffffffffffffffffffffffff167f8c5be1e5ebec7d5bd14f71427d1e84f3dd0314c0f7b2291e5b200ac8c7c3b92560405160405180910390a45050565b6000611406826112d6565b611445576040517f08c379a000000000000000000000000000000000000000000000000000000000815260040161143c906137ce565b60405180910390fd5b600061145083610aec565b90508073ffffffffffffffffffffffffffffffffffffffff168473ffffffffffffffffffffffffffffffffffffffff1614806114bf57508373ffffffffffffffffffffffffffffffffffffffff166114a78461073c565b73ffffffffffffffffffffffffffffffffffffffff16145b806114d057506114cf8185610fea565b5b91505092915050565b8273ffffffffffffffffffffffffffffffffffffffff166114f982610aec565b73ffffffffffffffffffffffffffffffffffffffff161461154f576040517f08c379a0000000000000000000000000000000000000000000000000000000008152600401611546906138ae565b60405180910390fd5b600073ffffffffffffffffffffffffffffffffffffffff168273ffffffffffffffffffffffffffffffffffffffff1614156115bf576040517f08c379a00000000000000000000000000000000000000000000000000000000081526004016115b69061378e565b60405180910390fd5b6115ca838383611ddc565b6115d5600082611342565b6001600360008573ffffffffffffffffffffffffffffffffffffffff1673ffffffffffffffffffffffffffffffffffffffff16815260200190815260200160002060008282546116259190613b61565b925050819055506001600360008473ffffffffffffffffffffffffffffffffffffffff1673ffffffffffffffffffffffffffffffffffffffff168152602001908152602001600020600082825461167c9190613a80565b92505081905550816002600083815260200190815260200160002060006101000a81548173ffffffffffffffffffffffffffffffffffffffff021916908373ffffffffffffffffffffffffffffffffffffffff160217905550808273ffffffffffffffffffffffffffffffffffffffff168473ffffffffffffffffffffffffffffffffffffffff167fddf252ad1be2c89b69c2b068fc378daa952ba7f163c4a11628f55a4df523b3ef60405160405180910390a4505050565b600080600c600084815260200190815260200160002060009054906101000a900473ffffffffffffffffffffffffffffffffffffffff169050600073ffffffffffffffffffffffffffffffffffffffff168173ffffffffffffffffffffffffffffffffffffffff1614156117de576040517f08c379a00000000000000000000000000000000000000000000000000000000081526004016117d59061376e565b60405180910390fd5b80915050919050565b6117ef612b8e565b6000808373ffffffffffffffffffffffffffffffffffffffff166040516118159061356c565b600060405180830381855afa9150503d8060008114611850576040519150601f19603f3d011682016040523d82523d6000602084013e611855565b606091505b50915091508161189a576040517f08c379a00000000000000000000000000000000000000000000000000000000081526004016118919061392e565b60405180910390fd5b60006118a586611bc5565b90506040518060800160405280826040516020016118c39190613581565b60405160208183030381529060405281526020018381526020016118e6886111c0565b815260200161190a8773ffffffffffffffffffffffffffffffffffffffff16611ef0565b815250935050505092915050565b6060600061192583611f76565b90508060405160200161193891906134bc565b604051602081830303815290604052915050919050565b6000600a60009054906101000a900473ffffffffffffffffffffffffffffffffffffffff16905081600a60006101000a81548173ffffffffffffffffffffffffffffffffffffffff021916908373ffffffffffffffffffffffffffffffffffffffff1602179055508173ffffffffffffffffffffffffffffffffffffffff168173ffffffffffffffffffffffffffffffffffffffff167f8be0079c531659141344cd1fd0a4f28419497f9722a3daafe3b4186f6b6457e060405160405180910390a35050565b611a208484846114d9565b611a2c84848484611fb5565b611a6b576040517f08c379a0000000000000000000000000000000000000000000000000000000008152600401611a629061370e565b60405180910390fd5b50505050565b60606000808373ffffffffffffffffffffffffffffffffffffffff16604051611a99906135a3565b600060405180830381855afa9150503d8060008114611ad4576040519150601f19603f3d011682016040523d82523d6000602084013e611ad9565b606091505b509150915081611b1e576040517f08c379a0000000000000000000000000000000000000000000000000000000008152600401611b159061394e565b60405180910390fd5b8092505050919050565b60606000611b3583611f76565b905080611b418561214c565b604051602001611b529291906135b8565b60405160208183030381529060405291505092915050565b611b748383612308565b611b816000848484611fb5565b611bc0576040517f08c379a0000000000000000000000000000000000000000000000000000000008152600401611bb79061370e565b60405180910390fd5b505050565b60606000821415611c0d576040518060400160405280600181526020017f30000000000000000000000000000000000000000000000000000000000000008152509050611d6d565b600082905060005b60008214611c3f578080611c2890613cd8565b915050600a82611c389190613ad6565b9150611c15565b60008167ffffffffffffffff811115611c81577f4e487b7100000000000000000000000000000000000000000000000000000000600052604160045260246000fd5b6040519080825280601f01601f191660200182016040528015611cb35781602001600182028036833780820191505090505b5090505b60008514611d6657600182611ccc9190613b61565b9150600a85611cdb9190613d21565b6030611ce79190613a80565b60f81b818381518110611d23577f4e487b7100000000000000000000000000000000000000000000000000000000600052603260045260246000fd5b60200101907effffffffffffffffffffffffffffffffffffffffffffffffffffffffffffff1916908160001a905350600a85611d5f9190613ad6565b9450611cb7565b8093505050505b919050565b60007f01ffc9a7000000000000000000000000000000000000000000000000000000007bffffffffffffffffffffffffffffffffffffffffffffffffffffffff1916827bffffffffffffffffffffffffffffffffffffffffffffffffffffffff1916149050919050565b611de78383836124d6565b600073ffffffffffffffffffffffffffffffffffffffff168373ffffffffffffffffffffffffffffffffffffffff161415611e2a57611e25816124db565b611e69565b8173ffffffffffffffffffffffffffffffffffffffff168373ffffffffffffffffffffffffffffffffffffffff1614611e6857611e678382612524565b5b5b600073ffffffffffffffffffffffffffffffffffffffff168273ffffffffffffffffffffffffffffffffffffffff161415611eac57611ea781612691565b611eeb565b8273ffffffffffffffffffffffffffffffffffffffff168273ffffffffffffffffffffffffffffffffffffffff1614611eea57611ee982826127d4565b5b5b505050565b60606000821415611f38576040518060400160405280600481526020017f30783030000000000000000000000000000000000000000000000000000000008152509050611f71565b600082905060005b60008214611f62578080611f5390613cd8565b915050600882901c9150611f40565b611f6c8482612853565b925050505b919050565b60608160000151826020015183604001518460600151604051602001611f9f9493929190613502565b6040516020818303038152906040529050919050565b6000611fd68473ffffffffffffffffffffffffffffffffffffffff16612b4d565b1561213f578373ffffffffffffffffffffffffffffffffffffffff1663150b7a02611fff611176565b8786866040518563ffffffff1660e01b81526004016120219493929190613623565b602060405180830381600087803b15801561203b57600080fd5b505af192505050801561206c57506040513d601f19601f820116820180604052508101906120699190612e57565b60015b6120ef573d806000811461209c576040519150601f19603f3d011682016040523d82523d6000602084013e6120a1565b606091505b506000815114156120e7576040517f08c379a00000000000000000000000000000000000000000000000000000000081526004016120de9061370e565b60405180910390fd5b805181602001fd5b63150b7a0260e01b7bffffffffffffffffffffffffffffffffffffffffffffffffffffffff1916817bffffffffffffffffffffffffffffffffffffffffffffffffffffffff191614915050612144565b600190505b949350505050565b606060008251141561216057819050612303565b60007f4142434445464748494a4b4c4d4e4f505152535455565758595a616263646566905060007f6768696a6b6c6d6e6f707172737475767778797a303132333435363738392b2f905060006121b68551612b60565b67ffffffffffffffff8111156121f5577f4e487b7100000000000000000000000000000000000000000000000000000000600052604160045260246000fd5b6040519080825280601f01601f1916602001820160405280156122275781602001600182028036833780820191505090505b50905060008551905060208601602083015b60008311156122c957815160101c601e60f0601e861015612277578591508286601e0360031b1c925060066004870983811b9350808760031b019150505b818603955081850194505b60008111156122c15760068103905082603f821b16811c89601f8211156122ad578990506020820391505b80821a808753600187019650505050612282565b505050612239565b6003885106600181146122e357600281146122f3576122f8565b603d8253603d82600101536122f8565b603d82535b505050819450505050505b919050565b600073ffffffffffffffffffffffffffffffffffffffff168273ffffffffffffffffffffffffffffffffffffffff161415612378576040517f08c379a000000000000000000000000000000000000000000000000000000000815260040161236f9061384e565b60405180910390fd5b612381816112d6565b156123c1576040517f08c379a00000000000000000000000000000000000000000000000000000000081526004016123b89061374e565b60405180910390fd5b6123cd60008383611ddc565b6001600360008473ffffffffffffffffffffffffffffffffffffffff1673ffffffffffffffffffffffffffffffffffffffff168152602001908152602001600020600082825461241d9190613a80565b92505081905550816002600083815260200190815260200160002060006101000a81548173ffffffffffffffffffffffffffffffffffffffff021916908373ffffffffffffffffffffffffffffffffffffffff160217905550808273ffffffffffffffffffffffffffffffffffffffff16600073ffffffffffffffffffffffffffffffffffffffff167fddf252ad1be2c89b69c2b068fc378daa952ba7f163c4a11628f55a4df523b3ef60405160405180910390a45050565b505050565b6008805490506009600083815260200190815260200160002081905550600881908060018154018082558091505060019003906000526020600020016000909190919091505550565b6000600161253184610bcd565b61253b9190613b61565b9050600060076000848152602001908152602001600020549050818114612620576000600660008673ffffffffffffffffffffffffffffffffffffffff1673ffffffffffffffffffffffffffffffffffffffff168152602001908152602001600020600084815260200190815260200160002054905080600660008773ffffffffffffffffffffffffffffffffffffffff1673ffffffffffffffffffffffffffffffffffffffff168152602001908152602001600020600084815260200190815260200160002081905550816007600083815260200190815260200160002081905550505b6007600084815260200190815260200160002060009055600660008573ffffffffffffffffffffffffffffffffffffffff1673ffffffffffffffffffffffffffffffffffffffff16815260200190815260200160002060008381526020019081526020016000206000905550505050565b600060016008805490506126a59190613b61565b90506000600960008481526020019081526020016000205490506000600883815481106126fb577f4e487b7100000000000000000000000000000000000000000000000000000000600052603260045260246000fd5b906000526020600020015490508060088381548110612743577f4e487b7100000000000000000000000000000000000000000000000000000000600052603260045260246000fd5b9060005260206000200181905550816009600083815260200190815260200160002081905550600960008581526020019081526020016000206000905560088054806127b8577f4e487b7100000000000000000000000000000000000000000000000000000000600052603160045260246000fd5b6001900381819060005260206000200160009055905550505050565b60006127df83610bcd565b905081600660008573ffffffffffffffffffffffffffffffffffffffff1673ffffffffffffffffffffffffffffffffffffffff168152602001908152602001600020600083815260200190815260200160002081905550806007600084815260200190815260200160002081905550505050565b6060600060028360026128669190613b07565b6128709190613a80565b67ffffffffffffffff8111156128af577f4e487b7100000000000000000000000000000000000000000000000000000000600052604160045260246000fd5b6040519080825280601f01601f1916602001820160405280156128e15781602001600182028036833780820191505090505b5090507f30000000000000000000000000000000000000000000000000000000000000008160008151811061293f577f4e487b7100000000000000000000000000000000000000000000000000000000600052603260045260246000fd5b60200101907effffffffffffffffffffffffffffffffffffffffffffffffffffffffffffff1916908160001a9053507f7800000000000000000000000000000000000000000000000000000000000000816001815181106129c9577f4e487b7100000000000000000000000000000000000000000000000000000000600052603260045260246000fd5b60200101907effffffffffffffffffffffffffffffffffffffffffffffffffffffffffffff1916908160001a90535060006001846002612a099190613b07565b612a139190613a80565b90505b6001811115612aff577f3031323334353637383961626364656600000000000000000000000000000000600f861660108110612a7b577f4e487b7100000000000000000000000000000000000000000000000000000000600052603260045260246000fd5b1a60f81b828281518110612ab8577f4e487b7100000000000000000000000000000000000000000000000000000000600052603260045260246000fd5b60200101907effffffffffffffffffffffffffffffffffffffffffffffffffffffffffffff1916908160001a905350600485901c945080612af890613c4b565b9050612a16565b5060008414612b43576040517f08c379a0000000000000000000000000000000000000000000000000000000008152600401612b3a906136ce565b60405180910390fd5b8091505092915050565b600080823b905060008111915050919050565b600060046003600284612b739190613a80565b612b7d9190613ad6565b612b879190613b07565b9050919050565b6040518060800160405280606081526020016060815260200160608152602001606081525090565b6000612bc9612bc4846139ec565b6139c7565b905082815260208101848484011115612be157600080fd5b612bec848285613c09565b509392505050565b600081359050612c03816145c8565b92915050565b600081359050612c18816145df565b92915050565b600081359050612c2d816145f6565b92915050565b600081519050612c42816145f6565b92915050565b600082601f830112612c5957600080fd5b8135612c69848260208601612bb6565b91505092915050565b600081359050612c818161460d565b92915050565b600060208284031215612c9957600080fd5b6000612ca784828501612bf4565b91505092915050565b60008060408385031215612cc357600080fd5b6000612cd185828601612bf4565b9250506020612ce285828601612bf4565b9150509250929050565b600080600060608486031215612d0157600080fd5b6000612d0f86828701612bf4565b9350506020612d2086828701612bf4565b9250506040612d3186828701612c72565b9150509250925092565b60008060008060808587031215612d5157600080fd5b6000612d5f87828801612bf4565b9450506020612d7087828801612bf4565b9350506040612d8187828801612c72565b925050606085013567ffffffffffffffff811115612d9e57600080fd5b612daa87828801612c48565b91505092959194509250565b60008060408385031215612dc957600080fd5b6000612dd785828601612bf4565b9250506020612de885828601612c09565b9150509250929050565b60008060408385031215612e0557600080fd5b6000612e1385828601612bf4565b9250506020612e2485828601612c72565b9150509250929050565b600060208284031215612e4057600080fd5b6000612e4e84828501612c1e565b91505092915050565b600060208284031215612e6957600080fd5b6000612e7784828501612c33565b91505092915050565b600060208284031215612e9257600080fd5b600082013567ffffffffffffffff811115612eac57600080fd5b612eb884828501612c48565b91505092915050565b600060208284031215612ed357600080fd5b6000612ee184828501612c72565b91505092915050565b612ef381613b95565b82525050565b612f0281613ba7565b82525050565b6000612f1382613a32565b612f1d8185613a48565b9350612f2d818560208601613c18565b612f3681613e0e565b840191505092915050565b6000612f4c82613a3d565b612f568185613a64565b9350612f66818560208601613c18565b612f6f81613e0e565b840191505092915050565b6000612f8582613a3d565b612f8f8185613a75565b9350612f9f818560208601613c18565b80840191505092915050565b60008154612fb881613c75565b612fc28186613a75565b94506001821660008114612fdd5760018114612fee57613021565b60ff19831686528186019350613021565b612ff785613a1d565b60005b8381101561301957815481890152600182019150602081019050612ffa565b838801955050505b50505092915050565b6000613037601083613a75565b915061304282613e1f565b601082019050919050565b600061305a602083613a64565b915061306582613e48565b602082019050919050565b600061307d600983613a75565b915061308882613e71565b600982019050919050565b60006130a0601283613a75565b91506130ab82613e9a565b601282019050919050565b60006130c3602b83613a64565b91506130ce82613ec3565b604082019050919050565b60006130e6603283613a64565b91506130f182613f12565b604082019050919050565b6000613109602683613a64565b915061311482613f61565b604082019050919050565b600061312c601c83613a64565b915061313782613fb0565b602082019050919050565b600061314f600a83613a64565b915061315a82613fd9565b602082019050919050565b600061317260a083613a75565b915061317d82614002565b60a082019050919050565b6000613195602483613a64565b91506131a0826140c3565b604082019050919050565b60006131b8601983613a64565b91506131c382614112565b602082019050919050565b60006131db601183613a75565b91506131e68261413b565b601182019050919050565b60006131fe602c83613a64565b915061320982614164565b604082019050919050565b6000613221601583613a75565b915061322c826141b3565b601582019050919050565b6000613244600b83613a75565b915061324f826141dc565b600b82019050919050565b6000613267603883613a64565b915061327282614205565b604082019050919050565b600061328a602a83613a64565b915061329582614254565b604082019050919050565b60006132ad602983613a64565b91506132b8826142a3565b604082019050919050565b60006132d0600283613a75565b91506132db826142f2565b600282019050919050565b60006132f3602083613a64565b91506132fe8261431b565b602082019050919050565b6000613316602c83613a64565b915061332182614344565b604082019050919050565b6000613339602083613a64565b915061334482614393565b602082019050919050565b600061335c602983613a64565b9150613367826143bc565b604082019050919050565b600061337f600183613a59565b915061338a8261440b565b600182019050919050565b60006133a2602183613a64565b91506133ad82614434565b604082019050919050565b60006133c5600783613a75565b91506133d082614483565b600782019050919050565b60006133e8600083613a59565b91506133f3826144ac565b600082019050919050565b600061340b603183613a64565b9150613416826144af565b604082019050919050565b600061342e602c83613a64565b9150613439826144fe565b604082019050919050565b6000613451601083613a64565b915061345c8261454d565b602082019050919050565b6000613474601383613a64565b915061347f82614576565b602082019050919050565b6000613497601683613a75565b91506134a28261459f565b601682019050919050565b6134b681613bff565b82525050565b60006134c88284612f7a565b91506134d3826132c3565b915081905092915050565b60006134ea8285612fab565b91506134f68284612f7a565b91508190509392505050565b600061350d82613070565b91506135198287612f7a565b9150613524826131ce565b91506135308286612f7a565b915061353b82613093565b91506135478285612f7a565b915061355282613214565b915061355e8284612f7a565b915081905095945050505050565b600061357782613372565b9150819050919050565b600061358c826133b8565b91506135988284612f7a565b915081905092915050565b60006135ae826133db565b9150819050919050565b60006135c38261348a565b91506135cf8285612f7a565b91506135da8261302a565b91506135e582613165565b91506135f18284612f7a565b91506135fc82613237565b91508190509392505050565b600060208201905061361d6000830184612eea565b92915050565b60006080820190506136386000830187612eea565b6136456020830186612eea565b61365260408301856134ad565b81810360608301526136648184612f08565b905095945050505050565b60006020820190506136846000830184612ef9565b92915050565b600060208201905081810360008301526136a48184612f08565b905092915050565b600060208201905081810360008301526136c68184612f41565b905092915050565b600060208201905081810360008301526136e78161304d565b9050919050565b60006020820190508181036000830152613707816130b6565b9050919050565b60006020820190508181036000830152613727816130d9565b9050919050565b60006020820190508181036000830152613747816130fc565b9050919050565b600060208201905081810360008301526137678161311f565b9050919050565b6000602082019050818103600083015261378781613142565b9050919050565b600060208201905081810360008301526137a781613188565b9050919050565b600060208201905081810360008301526137c7816131ab565b9050919050565b600060208201905081810360008301526137e7816131f1565b9050919050565b600060208201905081810360008301526138078161325a565b9050919050565b600060208201905081810360008301526138278161327d565b9050919050565b60006020820190508181036000830152613847816132a0565b9050919050565b60006020820190508181036000830152613867816132e6565b9050919050565b6000602082019050818103600083015261388781613309565b9050919050565b600060208201905081810360008301526138a78161332c565b9050919050565b600060208201905081810360008301526138c78161334f565b9050919050565b600060208201905081810360008301526138e781613395565b9050919050565b60006020820190508181036000830152613907816133fe565b9050919050565b6000602082019050818103600083015261392781613421565b9050919050565b6000602082019050818103600083015261394781613444565b9050919050565b6000602082019050818103600083015261396781613467565b9050919050565b600060208201905061398360008301846134ad565b92915050565b600060608201905061399e60008301866134ad565b6139ab6020830185612eea565b81810360408301526139bd8184612f41565b9050949350505050565b60006139d16139e2565b90506139dd8282613ca7565b919050565b6000604051905090565b600067ffffffffffffffff821115613a0757613a06613ddf565b5b613a1082613e0e565b9050602081019050919050565b60008190508160005260206000209050919050565b600081519050919050565b600081519050919050565b600082825260208201905092915050565b600081905092915050565b600082825260208201905092915050565b600081905092915050565b6000613a8b82613bff565b9150613a9683613bff565b9250827fffffffffffffffffffffffffffffffffffffffffffffffffffffffffffffffff03821115613acb57613aca613d52565b5b828201905092915050565b6000613ae182613bff565b9150613aec83613bff565b925082613afc57613afb613d81565b5b828204905092915050565b6000613b1282613bff565b9150613b1d83613bff565b9250817fffffffffffffffffffffffffffffffffffffffffffffffffffffffffffffffff0483118215151615613b5657613b55613d52565b5b828202905092915050565b6000613b6c82613bff565b9150613b7783613bff565b925082821015613b8a57613b89613d52565b5b828203905092915050565b6000613ba082613bdf565b9050919050565b60008115159050919050565b60007fffffffff0000000000000000000000000000000000000000000000000000000082169050919050565b600073ffffffffffffffffffffffffffffffffffffffff82169050919050565b6000819050919050565b82818337600083830152505050565b60005b83811015613c36578082015181840152602081019050613c1b565b83811115613c45576000848401525b50505050565b6000613c5682613bff565b91506000821415613c6a57613c69613d52565b5b600182039050919050565b60006002820490506001821680613c8d57607f821691505b60208210811415613ca157613ca0613db0565b5b50919050565b613cb082613e0e565b810181811067ffffffffffffffff82111715613ccf57613cce613ddf565b5b80604052505050565b6000613ce382613bff565b91507fffffffffffffffffffffffffffffffffffffffffffffffffffffffffffffffff821415613d1657613d15613d52565b5b600182019050919050565b6000613d2c82613bff565b9150613d3783613bff565b925082613d4757613d46613d81565b5b828206905092915050565b7f4e487b7100000000000000000000000000000000000000000000000000000000600052601160045260246000fd5b7f4e487b7100000000000000000000000000000000000000000000000000000000600052601260045260246000fd5b7f4e487b7100000000000000000000000000000000000000000000000000000000600052602260045260246000fd5b7f4e487b7100000000000000000000000000000000000000000000000000000000600052604160045260246000fd5b6000601f19601f8301169050919050565b7f222c22696d6167655f64617461223a2200000000000000000000000000000000600082015250565b7f537472696e67733a20686578206c656e67746820696e73756666696369656e74600082015250565b7f7b226e616d65223a220000000000000000000000000000000000000000000000600082015250565b7f222c2265787465726e616c5f75726c223a220000000000000000000000000000600082015250565b7f455243373231456e756d657261626c653a206f776e657220696e646578206f7560008201527f74206f6620626f756e6473000000000000000000000000000000000000000000602082015250565b7f4552433732313a207472616e7366657220746f206e6f6e20455243373231526560008201527f63656976657220696d706c656d656e7465720000000000000000000000000000602082015250565b7f4f776e61626c653a206e6577206f776e657220697320746865207a65726f206160008201527f6464726573730000000000000000000000000000000000000000000000000000602082015250565b7f4552433732313a20746f6b656e20616c7265616479206d696e74656400000000600082015250565b7f554e4b4e4f574e5f494400000000000000000000000000000000000000000000600082015250565b7f3c73766720786d6c6e733d27687474703a2f2f7777772e77332e6f72672f323060008201527f30302f737667272077696474683d2733303327206865696768743d273330332760208201527f3e3c696d6167652077696474683d2733303327206865696768743d273330332760408201527f207374796c653d27696d6167652d72656e646572696e673a20706978656c617460608201527f65642720687265663d27646174613a696d6167652f626d703b6261736536342c608082015250565b7f4552433732313a207472616e7366657220746f20746865207a65726f2061646460008201527f7265737300000000000000000000000000000000000000000000000000000000602082015250565b7f4552433732313a20617070726f766520746f2063616c6c657200000000000000600082015250565b7f222c226465736372697074696f6e223a22000000000000000000000000000000600082015250565b7f4552433732313a206f70657261746f7220717565727920666f72206e6f6e657860008201527f697374656e7420746f6b656e0000000000000000000000000000000000000000602082015250565b7f222c2264726177696e675f61646472657373223a220000000000000000000000600082015250565b7f272f3e3c2f7376673e227d000000000000000000000000000000000000000000600082015250565b7f4552433732313a20617070726f76652063616c6c6572206973206e6f74206f7760008201527f6e6572206e6f7220617070726f76656420666f7220616c6c0000000000000000602082015250565b7f4552433732313a2062616c616e636520717565727920666f7220746865207a6560008201527f726f206164647265737300000000000000000000000000000000000000000000602082015250565b7f4552433732313a206f776e657220717565727920666f72206e6f6e657869737460008201527f656e7420746f6b656e0000000000000000000000000000000000000000000000602082015250565b7f227d000000000000000000000000000000000000000000000000000000000000600082015250565b7f4552433732313a206d696e7420746f20746865207a65726f2061646472657373600082015250565b7f4552433732313a20617070726f76656420717565727920666f72206e6f6e657860008201527f697374656e7420746f6b656e0000000000000000000000000000000000000000602082015250565b7f4f776e61626c653a2063616c6c6572206973206e6f7420746865206f776e6572600082015250565b7f4552433732313a207472616e73666572206f6620746f6b656e2074686174206960008201527f73206e6f74206f776e0000000000000000000000000000000000000000000000602082015250565b7fde00000000000000000000000000000000000000000000000000000000000000600082015250565b7f4552433732313a20617070726f76616c20746f2063757272656e74206f776e6560008201527f7200000000000000000000000000000000000000000000000000000000000000602082015250565b7f44424e4654202300000000000000000000000000000000000000000000000000600082015250565b50565b7f4552433732313a207472616e736665722063616c6c6572206973206e6f74206f60008201527f776e6572206e6f7220617070726f766564000000000000000000000000000000602082015250565b7f455243373231456e756d657261626c653a20676c6f62616c20696e646578206f60008201527f7574206f6620626f756e64730000000000000000000000000000000000000000602082015250565b7f4445534352495054494f4e5f4641494c00000000000000000000000000000000600082015250565b7f6661696c7572652072656e6465722063616c6c00000000000000000000000000600082015250565b7f646174613a6170706c69636174696f6e2f6a736f6e2c00000000000000000000600082015250565b6145d181613b95565b81146145dc57600080fd5b50565b6145e881613ba7565b81146145f357600080fd5b50565b6145ff81613bb3565b811461460a57600080fd5b50565b61461681613bff565b811461462157600080fd5b5056fea26469706673582212200a1aa47d8f613c435d27506186cff7e3be74bdb5ff538438e844ecef2612165664736f6c63430008040033",
  "linkReferences": {},
  "deployedLinkReferences": {}
}